{
  "contractName": "CompoundChannelFactory",
  "abi": [
    {
      "anonymous": false,
      "inputs": [
        {
          "indexed": false,
          "internalType": "address",
          "name": "channelAddress",
          "type": "address"
        },
        {
          "indexed": false,
          "internalType": "address",
          "name": "sender",
          "type": "address"
        },
        {
          "indexed": false,
          "internalType": "address",
          "name": "recipient",
          "type": "address"
        }
      ],
      "name": "ChannelCreated",
      "type": "event"
    },
    {
      "inputs": [
        {
          "internalType": "address",
          "name": "",
          "type": "address"
        }
      ],
      "name": "recipientCount",
      "outputs": [
        {
          "internalType": "uint8",
          "name": "",
          "type": "uint8"
        }
      ],
      "stateMutability": "view",
      "type": "function"
    },
    {
      "inputs": [
        {
          "internalType": "address",
          "name": "",
          "type": "address"
        },
        {
          "internalType": "uint256",
          "name": "",
          "type": "uint256"
        }
      ],
      "name": "recipientRegistery",
      "outputs": [
        {
          "internalType": "address",
          "name": "",
          "type": "address"
        }
      ],
      "stateMutability": "view",
      "type": "function"
    },
    {
      "inputs": [
        {
          "internalType": "address",
          "name": "",
          "type": "address"
        }
      ],
      "name": "senderCount",
      "outputs": [
        {
          "internalType": "uint8",
          "name": "",
          "type": "uint8"
        }
      ],
      "stateMutability": "view",
      "type": "function"
    },
    {
      "inputs": [
        {
          "internalType": "address",
          "name": "",
          "type": "address"
        },
        {
          "internalType": "uint256",
          "name": "",
          "type": "uint256"
        }
      ],
      "name": "senderRegistery",
      "outputs": [
        {
          "internalType": "address",
          "name": "",
          "type": "address"
        }
      ],
      "stateMutability": "view",
      "type": "function"
    },
    {
      "inputs": [
        {
          "internalType": "address payable",
          "name": "target",
          "type": "address"
        }
      ],
      "name": "createClone",
      "outputs": [
        {
          "internalType": "address payable",
          "name": "result",
          "type": "address"
        }
      ],
      "stateMutability": "nonpayable",
      "type": "function"
    },
    {
      "inputs": [
        {
          "internalType": "address payable",
          "name": "_contract2Clone",
          "type": "address"
        },
        {
          "internalType": "address payable",
          "name": "_recipient",
          "type": "address"
        },
        {
          "internalType": "uint256",
          "name": "_endTime",
          "type": "uint256"
        },
        {
          "internalType": "address",
          "name": "_cEthAddress",
          "type": "address"
        }
      ],
      "name": "createEthChannel",
      "outputs": [],
      "stateMutability": "nonpayable",
      "type": "function"
    },
    {
      "inputs": [
        {
          "internalType": "address payable",
          "name": "_contract2Clone",
          "type": "address"
        },
        {
          "internalType": "address payable",
          "name": "_recipient",
          "type": "address"
        },
        {
          "internalType": "uint256",
          "name": "_endTime",
          "type": "uint256"
        },
        {
          "internalType": "address",
          "name": "_tokenAddress",
          "type": "address"
        },
        {
          "internalType": "address",
          "name": "_cTokenAddress",
          "type": "address"
        }
      ],
      "name": "createERC20Channel",
      "outputs": [],
      "stateMutability": "nonpayable",
      "type": "function"
    },
    {
      "inputs": [
        {
          "internalType": "address",
          "name": "_sender",
          "type": "address"
        },
        {
          "internalType": "address",
          "name": "_channelAddress",
          "type": "address"
        },
        {
          "internalType": "uint8",
          "name": "_channelNonce",
          "type": "uint8"
        },
        {
          "internalType": "uint256",
          "name": "_amount",
          "type": "uint256"
        },
        {
          "internalType": "bytes",
          "name": "_signature",
          "type": "bytes"
        }
      ],
      "name": "checkSignature",
      "outputs": [
        {
          "internalType": "bool",
          "name": "",
          "type": "bool"
        }
      ],
      "stateMutability": "pure",
      "type": "function"
    }
  ],
  "bytecode": "0x608060405234801561001057600080fd5b50611744806100206000396000f3fe608060405234801561001057600080fd5b50600436106100885760003560e01c80636cfea99a1161005b5780636cfea99a146102bb578063a887ba6214610319578063dd569f8b14610377578063f81b729f146104a157610088565b80630eaa7e531461008d5780635573d9131461011b57806357894c1b146101a957806361e06df91461022d575b600080fd5b6100d9600480360360408110156100a357600080fd5b81019080803573ffffffffffffffffffffffffffffffffffffffff1690602001909291908035906020019092919050505061054f565b604051808273ffffffffffffffffffffffffffffffffffffffff1673ffffffffffffffffffffffffffffffffffffffff16815260200191505060405180910390f35b6101a76004803603608081101561013157600080fd5b81019080803573ffffffffffffffffffffffffffffffffffffffff169060200190929190803573ffffffffffffffffffffffffffffffffffffffff16906020019092919080359060200190929190803573ffffffffffffffffffffffffffffffffffffffff16906020019092919050505061059a565b005b6101eb600480360360208110156101bf57600080fd5b81019080803573ffffffffffffffffffffffffffffffffffffffff169060200190929190505050610a5e565b604051808273ffffffffffffffffffffffffffffffffffffffff1673ffffffffffffffffffffffffffffffffffffffff16815260200191505060405180910390f35b6102796004803603604081101561024357600080fd5b81019080803573ffffffffffffffffffffffffffffffffffffffff16906020019092919080359060200190929190505050610ac8565b604051808273ffffffffffffffffffffffffffffffffffffffff1673ffffffffffffffffffffffffffffffffffffffff16815260200191505060405180910390f35b6102fd600480360360208110156102d157600080fd5b81019080803573ffffffffffffffffffffffffffffffffffffffff169060200190929190505050610b13565b604051808260ff1660ff16815260200191505060405180910390f35b61035b6004803603602081101561032f57600080fd5b81019080803573ffffffffffffffffffffffffffffffffffffffff169060200190929190505050610b33565b604051808260ff1660ff16815260200191505060405180910390f35b610487600480360360a081101561038d57600080fd5b81019080803573ffffffffffffffffffffffffffffffffffffffff169060200190929190803573ffffffffffffffffffffffffffffffffffffffff169060200190929190803560ff169060200190929190803590602001909291908035906020019064010000000081111561040157600080fd5b82018360208201111561041357600080fd5b8035906020019184600183028401116401000000008311171561043557600080fd5b91908080601f016020809104026020016040519081016040528093929190818152602001838380828437600081840152601f19601f820116905080830192505050505050509192919290505050610b53565b604051808215151515815260200191505060405180910390f35b61054d600480360360a08110156104b757600080fd5b81019080803573ffffffffffffffffffffffffffffffffffffffff169060200190929190803573ffffffffffffffffffffffffffffffffffffffff16906020019092919080359060200190929190803573ffffffffffffffffffffffffffffffffffffffff169060200190929190803573ffffffffffffffffffffffffffffffffffffffff169060200190929190505050610bd3565b005b6000602052816000526040600020818154811061056857fe5b906000526020600020016000915091509054906101000a900473ffffffffffffffffffffffffffffffffffffffff1681565b60006105a585610a5e565b90508073ffffffffffffffffffffffffffffffffffffffff16634a94db2833868686306040518663ffffffff1660e01b8152600401808673ffffffffffffffffffffffffffffffffffffffff1673ffffffffffffffffffffffffffffffffffffffff1681526020018573ffffffffffffffffffffffffffffffffffffffff1673ffffffffffffffffffffffffffffffffffffffff1681526020018481526020018373ffffffffffffffffffffffffffffffffffffffff1673ffffffffffffffffffffffffffffffffffffffff1681526020018273ffffffffffffffffffffffffffffffffffffffff1673ffffffffffffffffffffffffffffffffffffffff16815260200195505050505050602060405180830381600087803b1580156106ca57600080fd5b505af11580156106de573d6000803e3d6000fd5b505050506040513d60208110156106f457600080fd5b8101908080519060200190929190505050610777576040517f08c379a000000000000000000000000000000000000000000000000000000000815260040180806020018281038252600b8152602001807f696e6974206661696c656400000000000000000000000000000000000000000081525060200191505060405180910390fd5b6000803373ffffffffffffffffffffffffffffffffffffffff1673ffffffffffffffffffffffffffffffffffffffff168152602001908152602001600020819080600181540180825580915050600190039060005260206000200160009091909190916101000a81548173ffffffffffffffffffffffffffffffffffffffff021916908373ffffffffffffffffffffffffffffffffffffffff160217905550600160008573ffffffffffffffffffffffffffffffffffffffff1673ffffffffffffffffffffffffffffffffffffffff168152602001908152602001600020819080600181540180825580915050600190039060005260206000200160009091909190916101000a81548173ffffffffffffffffffffffffffffffffffffffff021916908373ffffffffffffffffffffffffffffffffffffffff1602179055506001600260003373ffffffffffffffffffffffffffffffffffffffff1673ffffffffffffffffffffffffffffffffffffffff16815260200190815260200160002060008282829054906101000a900460ff160192506101000a81548160ff021916908360ff1602179055506001600360008673ffffffffffffffffffffffffffffffffffffffff1673ffffffffffffffffffffffffffffffffffffffff16815260200190815260200160002060008282829054906101000a900460ff160192506101000a81548160ff021916908360ff1602179055507fa1df915b8442d05811e14e9963bdfe437dceea6c3af491bab0b7fc499232f18f813386604051808473ffffffffffffffffffffffffffffffffffffffff1673ffffffffffffffffffffffffffffffffffffffff1681526020018373ffffffffffffffffffffffffffffffffffffffff1673ffffffffffffffffffffffffffffffffffffffff1681526020018273ffffffffffffffffffffffffffffffffffffffff1673ffffffffffffffffffffffffffffffffffffffff168152602001935050505060405180910390a15050505050565b6000808260601b90506040517f3d602d80600a3d3981f3363d3d373d3d3d363d7300000000000000000000000081528160148201527f5af43d82803e903d91602b57fd5bf3000000000000000000000000000000000060288201526037816000f092505050919050565b60016020528160005260406000208181548110610ae157fe5b906000526020600020016000915091509054906101000a900473ffffffffffffffffffffffffffffffffffffffff1681565b60036020528060005260406000206000915054906101000a900460ff1681565b60026020528060005260406000206000915054906101000a900460ff1681565b6000610b5d61162b565b60405180604001604052808581526020018660ff1681525090506000610b8382886110cc565b9050610b98848261139090919063ffffffff16565b73ffffffffffffffffffffffffffffffffffffffff168873ffffffffffffffffffffffffffffffffffffffff16149250505095945050505050565b6000610bde86610a5e565b90508073ffffffffffffffffffffffffffffffffffffffff166304e4c4753387878787306040518763ffffffff1660e01b8152600401808773ffffffffffffffffffffffffffffffffffffffff1673ffffffffffffffffffffffffffffffffffffffff1681526020018673ffffffffffffffffffffffffffffffffffffffff1673ffffffffffffffffffffffffffffffffffffffff1681526020018581526020018473ffffffffffffffffffffffffffffffffffffffff1673ffffffffffffffffffffffffffffffffffffffff1681526020018373ffffffffffffffffffffffffffffffffffffffff1673ffffffffffffffffffffffffffffffffffffffff1681526020018273ffffffffffffffffffffffffffffffffffffffff1673ffffffffffffffffffffffffffffffffffffffff1681526020019650505050505050602060405180830381600087803b158015610d3757600080fd5b505af1158015610d4b573d6000803e3d6000fd5b505050506040513d6020811015610d6157600080fd5b8101908080519060200190929190505050610de4576040517f08c379a000000000000000000000000000000000000000000000000000000000815260040180806020018281038252600b8152602001807f696e6974206661696c656400000000000000000000000000000000000000000081525060200191505060405180910390fd5b6000803373ffffffffffffffffffffffffffffffffffffffff1673ffffffffffffffffffffffffffffffffffffffff168152602001908152602001600020819080600181540180825580915050600190039060005260206000200160009091909190916101000a81548173ffffffffffffffffffffffffffffffffffffffff021916908373ffffffffffffffffffffffffffffffffffffffff160217905550600160008673ffffffffffffffffffffffffffffffffffffffff1673ffffffffffffffffffffffffffffffffffffffff168152602001908152602001600020819080600181540180825580915050600190039060005260206000200160009091909190916101000a81548173ffffffffffffffffffffffffffffffffffffffff021916908373ffffffffffffffffffffffffffffffffffffffff1602179055506001600260003373ffffffffffffffffffffffffffffffffffffffff1673ffffffffffffffffffffffffffffffffffffffff16815260200190815260200160002060008282829054906101000a900460ff160192506101000a81548160ff021916908360ff1602179055506001600360008773ffffffffffffffffffffffffffffffffffffffff1673ffffffffffffffffffffffffffffffffffffffff16815260200190815260200160002060008282829054906101000a900460ff160192506101000a81548160ff021916908360ff1602179055507fa1df915b8442d05811e14e9963bdfe437dceea6c3af491bab0b7fc499232f18f813387604051808473ffffffffffffffffffffffffffffffffffffffff1673ffffffffffffffffffffffffffffffffffffffff1681526020018373ffffffffffffffffffffffffffffffffffffffff1673ffffffffffffffffffffffffffffffffffffffff1681526020018273ffffffffffffffffffffffffffffffffffffffff1673ffffffffffffffffffffffffffffffffffffffff168152602001935050505060405180910390a1505050505050565b6000806040518060800160405280605f81526020016116b0605f91396040516020018082805190602001908083835b6020831061111e57805182526020820191506020810190506020830392506110fb565b6001836020036101000a0380198251168184511680821785525050505050509050019150506040516020818303038152906040528051906020012060405180807f436f6d706f756e64204368616e6e656c730000000000000000000000000000008152506011019050604051809103902060405180807f310000000000000000000000000000000000000000000000000000000000000081525060010190506040518091039020602a867ff2e421f4a3edcb9b1111d503bfe733db1e3f6cdc2b7971ee739626c97e86a55860001b604051602001808781526020018681526020018581526020018481526020018373ffffffffffffffffffffffffffffffffffffffff1673ffffffffffffffffffffffffffffffffffffffff16815260200182815260200196505050505050506040516020818303038152906040528051906020012090508060405180606001604052806023815260200161166b602391396040516020018082805190602001908083835b602083106112b35780518252602082019150602081019050602083039250611290565b6001836020036101000a0380198251168184511680821785525050505050509050019150506040516020818303038152906040528051906020012085600001518660200151604051602001808481526020018381526020018260ff1660ff16815260200193505050506040516020818303038152906040528051906020012060405160200180807f1901000000000000000000000000000000000000000000000000000000000000815250600201838152602001828152602001925050506040516020818303038152906040528051906020012091505092915050565b60006041825114611409576040517f08c379a000000000000000000000000000000000000000000000000000000000815260040180806020018281038252601f8152602001807f45434453413a20696e76616c6964207369676e6174757265206c656e6774680081525060200191505060405180910390fd5b60008060006020850151925060408501519150606085015160001a90507f7fffffffffffffffffffffffffffffff5d576e7357a4501ddfe92f46681b20a08260001c11156114a2576040517f08c379a00000000000000000000000000000000000000000000000000000000081526004018080602001828103825260228152602001806116496022913960400191505060405180910390fd5b601b8160ff16141580156114ba5750601c8160ff1614155b15611510576040517f08c379a000000000000000000000000000000000000000000000000000000000815260040180806020018281038252602281526020018061168e6022913960400191505060405180910390fd5b600060018783868660405160008152602001604052604051808581526020018460ff1660ff1681526020018381526020018281526020019450505050506020604051602081039080840390855afa15801561156f573d6000803e3d6000fd5b505050602060405103519050600073ffffffffffffffffffffffffffffffffffffffff168173ffffffffffffffffffffffffffffffffffffffff16141561161e576040517f08c379a00000000000000000000000000000000000000000000000000000000081526004018080602001828103825260188152602001807f45434453413a20696e76616c6964207369676e6174757265000000000000000081525060200191505060405180910390fd5b8094505050505092915050565b604051806040016040528060008152602001600060ff168152509056fe45434453413a20696e76616c6964207369676e6174757265202773272076616c75655061796d656e742875696e7432353620616d6f756e742c75696e7438206e6f6e63652945434453413a20696e76616c6964207369676e6174757265202776272076616c7565454950373132446f6d61696e28737472696e67206e616d652c737472696e672076657273696f6e2c75696e7432353620636861696e49642c6164647265737320766572696679696e67436f6e74726163742c627974657333322073616c7429a26469706673582212206f1a2840bf7ca64c7e34630639f58c327b6967fe1210b57dee9677f07716105964736f6c63430006060033",
  "immutableReferences": {},
  "source": "pragma solidity ^0.6.0;\n\nimport \"@openzeppelin/contracts/token/ERC20/IERC20.sol\";\nimport \"@openzeppelin/contracts/cryptography/ECDSA.sol\";\nimport \"@openzeppelin/contracts/math/SafeMath.sol\";\nimport { EthChannel } from './EthChannel.sol';\nimport { Erc20Channel } from './Erc20Channel.sol';\n\ncontract CompoundChannelFactory {\n  using ECDSA for bytes32;\n\n  /* ============ State variables ============ */\n  mapping(address => address[]) public senderRegistery;\n  mapping(address => address[]) public recipientRegistery;\n  mapping(address => uint8) public senderCount;\n  mapping(address => uint8) public recipientCount;\n\n  /* ============ EIP712 Signature Information  ============ */\n  uint256 constant chainId = 42; //Kovan\n  bytes32 constant salt = 0xf2e421f4a3edcb9b1111d503bfe733db1e3f6cdc2b7971ee739626c97e86a558;\n  string private constant EIP712_DOMAIN = \"EIP712Domain(string name,string version,uint256 chainId,address verifyingContract,bytes32 salt)\";\n  string private constant PAYMENT_TYPE = \"Payment(uint256 amount,uint8 nonce)\";\n  bytes32 private constant EIP712_DOMAIN_TYPEHASH = keccak256(abi.encodePacked(EIP712_DOMAIN));\n  bytes32 private constant PAYMENT_TYPEHASH = keccak256(abi.encodePacked(PAYMENT_TYPE));\n  struct Payment {\n    uint256 amount;\n    uint8 nonce;\n  }\n\n  /* ============ Events ============ */\n  event ChannelCreated(address channelAddress, address sender, address recipient);\n\n  /* ============ Public Functions ============ */\n  /**\n   * Creates a channel contract clone EIP 1167\n   *\n   * @param target           Address to be cloned\n   */\n  function createClone(address payable target) public returns (address payable result) {\n    bytes20 targetBytes = bytes20(target);\n    assembly {\n      let clone := mload(0x40)\n      mstore(clone, 0x3d602d80600a3d3981f3363d3d373d3d3d363d73000000000000000000000000)\n      mstore(add(clone, 0x14), targetBytes)\n      mstore(add(clone, 0x28), 0x5af43d82803e903d91602b57fd5bf30000000000000000000000000000000000)\n      result := create(0, clone, 0x37)\n    }\n  }\n\n  /**\n   * Creates a cChannel that only handels Ether\n   *\n   * @param _contract2Clone       Contract address to Eth Channel Template\n   * @param _recipient            Address that will recieve the funds when channel is closed\n   * @param _endTime              Time in unix when the channel can be forced closed\n   * @param _cEthAddress          cEther address\n   */\n  function createEthChannel(\n    address payable _contract2Clone,\n    address payable _recipient,\n    uint256 _endTime,\n    address _cEthAddress\n  ) public {\n\n    address payable clone = createClone(_contract2Clone);\n    require(EthChannel(clone).init(\n      msg.sender,\n      _recipient,\n      _endTime,\n      _cEthAddress,\n      address(this)\n    ), 'init failed');\n\n    // Records new channel information\n    senderRegistery[msg.sender].push(clone);\n    recipientRegistery[_recipient].push(clone);\n    senderCount[msg.sender] += 1;\n    recipientCount[_recipient] += 1;\n    emit ChannelCreated(clone, msg.sender, _recipient);\n  }\n\n  /**\n   * Creates a cChannel that only handels Compound supported ERC20 tokens\n   *\n   * @param _contract2Clone       Contract address to the ERC20 Channel Template\n   * @param _recipient            Address that will recieve the funds when channel is closed\n   * @param _endTime              Time in unix when the channel can be forced closed if recip doesn't close\n   * @param _tokenAddress         token address of the underlying asset\n   * @param _cTokenAddress        cToken address\n   */\n  function createERC20Channel(\n    address payable _contract2Clone,\n    address payable _recipient,\n    uint256 _endTime,\n    address _tokenAddress,\n    address _cTokenAddress\n  ) public {\n\n    address payable clone = createClone(_contract2Clone);\n    require(Erc20Channel(clone).init(\n      msg.sender,\n      _recipient,\n      _endTime,\n      _tokenAddress,\n      _cTokenAddress,\n      address(this)\n    ), 'init failed');\n\n    // Records new channel information\n    senderRegistery[msg.sender].push(clone);\n    recipientRegistery[_recipient].push(clone);\n    senderCount[msg.sender] += 1;\n    recipientCount[_recipient] += 1;\n    emit ChannelCreated(clone, msg.sender, _recipient);\n  }\n\n  /**\n   * Hashes data for sig verification for the contract\n   *\n   * @param payment               Formatted Payment struct for sig data\n   * @param _channelAddress       Channel address that the sig is for\n   */\n  function hashPayment(\n    Payment memory payment,\n    address _channelAddress\n    ) private pure returns (bytes32){\n\n    bytes32 DOMAIN_SEPARATOR = keccak256(abi.encode(\n    EIP712_DOMAIN_TYPEHASH,\n    keccak256(\"Compound Channels\"),\n    keccak256(\"1\"),\n    chainId,\n    _channelAddress,\n    salt\n    ));\n\n    return keccak256(abi.encodePacked(\n      \"\\x19\\x01\",\n      DOMAIN_SEPARATOR,\n      keccak256(abi.encode(\n        PAYMENT_TYPEHASH,\n        payment.amount,\n        payment.nonce\n      ))\n    ));\n  }\n\n  /**\n   * Called by channel contracts to verfiy signatures\n   *\n   * @param _sender               The sender address for a channel\n   * @param _channelAddress       Channel address that the sig is for\n   * @param _channelNonce         Current nonce of the channel\n   * @param _amount               Amount that was signed over\n   */\n  function checkSignature(\n    address _sender,\n    address _channelAddress,\n    uint8 _channelNonce,\n    uint256 _amount,\n    bytes memory _signature\n    ) public pure returns (bool) {\n      Payment memory payment = Payment({\n        amount: _amount,\n        nonce: _channelNonce\n      });\n\n      bytes32 hash = hashPayment(payment, _channelAddress);\n      return _sender == hash.recover(_signature);\n  }\n}",
  "sourcePath": "/Users/justsomeguy/Documents/hack-money/compound-channels/contracts/CompoundChannelFactory.sol",
  "compiler": {
    "name": "solc",
    "version": "0.6.6+commit.6c089d02.Emscripten.clang"
  },
  "schemaVersion": "3.1.0",
  "updatedAt": "2020-05-19T21:03:37.635Z",
  "devdoc": {
    "methods": {
      "checkSignature(address,address,uint8,uint256,bytes)": {
        "params": {
          "_amount": "Amount that was signed over",
          "_channelAddress": "Channel address that the sig is for",
          "_channelNonce": "Current nonce of the channel",
          "_sender": "The sender address for a channel"
        }
      },
      "createClone(address)": {
        "params": {
          "target": "Address to be cloned"
        }
      },
      "createERC20Channel(address,address,uint256,address,address)": {
        "params": {
          "_cTokenAddress": "cToken address",
          "_contract2Clone": "Contract address to the ERC20 Channel Template",
          "_endTime": "Time in unix when the channel can be forced closed if recip doesn't close",
          "_recipient": "Address that will recieve the funds when channel is closed",
          "_tokenAddress": "token address of the underlying asset"
        }
      },
      "createEthChannel(address,address,uint256,address)": {
        "params": {
          "_cEthAddress": "cEther address",
          "_contract2Clone": "Contract address to Eth Channel Template",
          "_endTime": "Time in unix when the channel can be forced closed",
          "_recipient": "Address that will recieve the funds when channel is closed"
        }
      }
    }
  },
  "userdoc": {
    "methods": {
      "checkSignature(address,address,uint8,uint256,bytes)": {
        "notice": "Called by channel contracts to verfiy signatures"
      },
      "createClone(address)": {
        "notice": "Creates a channel contract clone EIP 1167"
      },
      "createERC20Channel(address,address,uint256,address,address)": {
        "notice": "Creates a cChannel that only handels Compound supported ERC20 tokens"
      },
      "createEthChannel(address,address,uint256,address)": {
        "notice": "Creates a cChannel that only handels Ether"
      }
    }
  }
}