{
  "contractName": "CompoundChannelFactory",
  "abi": [
    {
      "anonymous": false,
      "inputs": [
        {
          "indexed": false,
          "internalType": "address",
          "name": "channelAddress",
          "type": "address"
        },
        {
          "indexed": false,
          "internalType": "address",
          "name": "sender",
          "type": "address"
        }
      ],
      "name": "ChannelCreated",
      "type": "event"
    },
    {
      "inputs": [
        {
          "internalType": "address",
          "name": "",
          "type": "address"
        },
        {
          "internalType": "uint256",
          "name": "",
          "type": "uint256"
        }
      ],
      "name": "channelRegistery",
      "outputs": [
        {
          "internalType": "address",
          "name": "",
          "type": "address"
        }
      ],
      "stateMutability": "view",
      "type": "function"
    },
    {
      "inputs": [
        {
          "internalType": "address payable",
          "name": "_recipient",
          "type": "address"
        },
        {
          "internalType": "uint256",
          "name": "_endTime",
          "type": "uint256"
        },
        {
          "internalType": "uint256",
          "name": "_depositAmount",
          "type": "uint256"
        },
        {
          "internalType": "address",
          "name": "_tokenAddress",
          "type": "address"
        },
        {
          "internalType": "address",
          "name": "_cTokenAddress",
          "type": "address"
        }
      ],
      "name": "createChannel",
      "outputs": [
        {
          "internalType": "bool",
          "name": "",
          "type": "bool"
        }
      ],
      "stateMutability": "nonpayable",
      "type": "function"
    },
    {
      "inputs": [
        {
          "internalType": "address",
          "name": "_sender",
          "type": "address"
        },
        {
          "internalType": "address",
          "name": "_channelAddress",
          "type": "address"
        },
        {
          "internalType": "address",
          "name": "_checker",
          "type": "address"
        },
        {
          "internalType": "address",
          "name": "_recipient",
          "type": "address"
        },
        {
          "components": [
            {
              "internalType": "uint256",
              "name": "amount",
              "type": "uint256"
            }
          ],
          "internalType": "struct CompoundChannelFactory.Payment",
          "name": "payment",
          "type": "tuple"
        },
        {
          "internalType": "uint8",
          "name": "sigV",
          "type": "uint8"
        },
        {
          "internalType": "bytes32",
          "name": "sigR",
          "type": "bytes32"
        },
        {
          "internalType": "bytes32",
          "name": "sigS",
          "type": "bytes32"
        }
      ],
      "name": "checkSignature",
      "outputs": [
        {
          "internalType": "bool",
          "name": "",
          "type": "bool"
        }
      ],
      "stateMutability": "pure",
      "type": "function"
    }
  ],
  "bytecode": "0x608060405234801561001057600080fd5b50612c0b806100206000396000f3fe60806040523480156200001157600080fd5b5060043610620000465760003560e01c8063065b6c3f146200004b57806350a2c54314620000815780639dd67e6214620000b7575b600080fd5b620000696004803603810190620000639190620006eb565b620000ed565b60405162000078919062000c19565b60405180910390f35b6200009f600480360381019062000099919062000830565b620003c0565b604051620000ae919062000b25565b60405180910390f35b620000d56004803603810190620000cf91906200076d565b6200040c565b604051620000e4919062000c19565b60405180910390f35b6000808390506000338888878730604051620001099062000616565b6200011a9695949392919062000b42565b604051809103906000f08015801562000137573d6000803e3d6000fd5b5090508173ffffffffffffffffffffffffffffffffffffffff166323b872dd3383896040518463ffffffff1660e01b8152600401620001799392919062000baf565b602060405180830381600087803b1580156200019457600080fd5b505af1158015620001a9573d6000803e3d6000fd5b505050506040513d601f19601f82011682018060405250810190620001cf919062000871565b62000211576040517f08c379a0000000000000000000000000000000000000000000000000000000008152600401620002089062000d2b565b60405180910390fd5b8073ffffffffffffffffffffffffffffffffffffffff1663e2c41dbc6040518163ffffffff1660e01b8152600401602060405180830381600087803b1580156200025a57600080fd5b505af11580156200026f573d6000803e3d6000fd5b505050506040513d601f19601f8201168201806040525081019062000295919062000871565b620002d7576040517f08c379a0000000000000000000000000000000000000000000000000000000008152600401620002ce9062000d4d565b60405180910390fd5b6000803373ffffffffffffffffffffffffffffffffffffffff1673ffffffffffffffffffffffffffffffffffffffff168152602001908152602001600020819080600181540180825580915050600190039060005260206000200160009091909190916101000a81548173ffffffffffffffffffffffffffffffffffffffff021916908373ffffffffffffffffffffffffffffffffffffffff1602179055507f1d61294d5274ecaf47976300afbb3b7c0cc41dc69ec6c8889658e3d34fa6ce2b8133604051620003a992919062000bec565b60405180910390a160019250505095945050505050565b60006020528160005260406000208181548110620003da57fe5b906000526020600020016000915091509054906101000a900473ffffffffffffffffffffffffffffffffffffffff1681565b60008673ffffffffffffffffffffffffffffffffffffffff168673ffffffffffffffffffffffffffffffffffffffff16146200044757600080fd5b600162000455868a620004e0565b8585856040516000815260200160405260405162000477949392919062000c36565b6020604051602081039080840390855afa1580156200049a573d6000803e3d6000fd5b5050506020604051035173ffffffffffffffffffffffffffffffffffffffff168973ffffffffffffffffffffffffffffffffffffffff1614905098975050505050505050565b6000806040518060800160405280605f815260200162002b77605f91396040516200050b9062000aba565b6040518091039020604051620005219062000ad1565b6040518091039020602a867ff2e421f4a3edcb9b1111d503bfe733db1e3f6cdc2b7971ee739626c97e86a55860001b604051602001620005679695949392919062000c83565b604051602081830303815290604052805190602001209050806040518060400160405280601681526020017f5061796d656e742875696e32353620616d6f756e7429000000000000000000008152508560000151604051602001620005ce92919062000cf7565b60405160208183030381529060405280519060200120604051602001620005f792919062000ae8565b6040516020818303038152906040528051906020012091505092915050565b611c148062000f6383390190565b600081359050620006358162000ec6565b92915050565b6000813590506200064c8162000ee0565b92915050565b600081519050620006638162000efa565b92915050565b6000813590506200067a8162000f14565b92915050565b6000602082840312156200069357600080fd5b6200069f602062000d6f565b90506000620006b184828501620006bd565b60008301525092915050565b600081359050620006ce8162000f2e565b92915050565b600081359050620006e58162000f48565b92915050565b600080600080600060a086880312156200070457600080fd5b600062000714888289016200063b565b95505060206200072788828901620006bd565b94505060406200073a88828901620006bd565b93505060606200074d8882890162000624565b9250506080620007608882890162000624565b9150509295509295909350565b600080600080600080600080610100898b0312156200078b57600080fd5b60006200079b8b828c0162000624565b9850506020620007ae8b828c0162000624565b9750506040620007c18b828c0162000624565b9650506060620007d48b828c0162000624565b9550506080620007e78b828c0162000680565b94505060a0620007fa8b828c01620006d4565b93505060c06200080d8b828c0162000669565b92505060e0620008208b828c0162000669565b9150509295985092959890939650565b600080604083850312156200084457600080fd5b6000620008548582860162000624565b92505060206200086785828601620006bd565b9150509250929050565b6000602082840312156200088457600080fd5b6000620008948482850162000652565b91505092915050565b620008a88162000e39565b82525050565b620008b98162000dd8565b82525050565b620008ca8162000dc4565b82525050565b620008db8162000dec565b82525050565b620008ec8162000df8565b82525050565b62000907620009018262000df8565b62000eab565b82525050565b60006200091a8262000d9d565b62000926818562000da8565b93506200093881856020860162000e75565b620009438162000eb5565b840191505092915050565b60006200095d60128362000da8565b91507f7472616e7366657246726f6d206572726f7200000000000000000000000000006000830152602082019050919050565b60006200099f60118362000db9565b91507f436f6d706f756e64204368616e6e656c730000000000000000000000000000006000830152601182019050919050565b6000620009e160128362000da8565b91507f6465706f73697446756e6473206572726f7200000000000000000000000000006000830152602082019050919050565b600062000a2360028362000db9565b91507f34320000000000000000000000000000000000000000000000000000000000006000830152600282019050919050565b600062000a6560088362000db9565b91507f19010000000000000000000000000000000000000000000000000000000000006000830152600882019050919050565b62000aa38162000e22565b82525050565b62000ab48162000e2c565b82525050565b600062000ac78262000990565b9150819050919050565b600062000ade8262000a14565b9150819050919050565b600062000af58262000a56565b915062000b038285620008f2565b60208201915062000b158284620008f2565b6020820191508190509392505050565b600060208201905062000b3c6000830184620008bf565b92915050565b600060c08201905062000b596000830189620008ae565b62000b686020830188620008ae565b62000b77604083018762000a98565b62000b866060830186620008bf565b62000b956080830185620008bf565b62000ba460a0830184620008bf565b979650505050505050565b600060608201905062000bc660008301866200089d565b62000bd56020830185620008bf565b62000be4604083018462000a98565b949350505050565b600060408201905062000c036000830185620008bf565b62000c1260208301846200089d565b9392505050565b600060208201905062000c306000830184620008d0565b92915050565b600060808201905062000c4d6000830187620008e1565b62000c5c602083018662000aa9565b62000c6b6040830185620008e1565b62000c7a6060830184620008e1565b95945050505050565b600060c082019050818103600083015262000c9f81896200090d565b905062000cb06020830188620008e1565b62000cbf6040830187620008e1565b62000cce606083018662000a98565b62000cdd6080830185620008bf565b62000cec60a0830184620008e1565b979650505050505050565b6000604082019050818103600083015262000d1381856200090d565b905062000d24602083018462000a98565b9392505050565b6000602082019050818103600083015262000d46816200094e565b9050919050565b6000602082019050818103600083015262000d6881620009d2565b9050919050565b6000604051905081810181811067ffffffffffffffff8211171562000d9357600080fd5b8060405250919050565b600081519050919050565b600082825260208201905092915050565b600081905092915050565b600062000dd18262000e02565b9050919050565b600062000de58262000e02565b9050919050565b60008115159050919050565b6000819050919050565b600073ffffffffffffffffffffffffffffffffffffffff82169050919050565b6000819050919050565b600060ff82169050919050565b600062000e468262000e4d565b9050919050565b600062000e5a8262000e61565b9050919050565b600062000e6e8262000e02565b9050919050565b60005b8381101562000e9557808201518184015260208101905062000e78565b8381111562000ea5576000848401525b50505050565b6000819050919050565b6000601f19601f8301169050919050565b62000ed18162000dc4565b811462000edd57600080fd5b50565b62000eeb8162000dd8565b811462000ef757600080fd5b50565b62000f058162000dec565b811462000f1157600080fd5b50565b62000f1f8162000df8565b811462000f2b57600080fd5b50565b62000f398162000e22565b811462000f4557600080fd5b50565b62000f538162000e2c565b811462000f5f57600080fd5b5056fe60806040523480156200001157600080fd5b5060405162001c1438038062001c148339818101604052810190620000379190620001d3565b856000806101000a81548173ffffffffffffffffffffffffffffffffffffffff021916908373ffffffffffffffffffffffffffffffffffffffff16021790555084600160006101000a81548173ffffffffffffffffffffffffffffffffffffffff021916908373ffffffffffffffffffffffffffffffffffffffff1602179055508360028190555082600360006101000a81548173ffffffffffffffffffffffffffffffffffffffff021916908373ffffffffffffffffffffffffffffffffffffffff16021790555080600560006101000a81548173ffffffffffffffffffffffffffffffffffffffff021916908373ffffffffffffffffffffffffffffffffffffffff16021790555081600460006101000a81548173ffffffffffffffffffffffffffffffffffffffff021916908373ffffffffffffffffffffffffffffffffffffffff16021790555050505050505062000309565b6000815190506200019f81620002bb565b92915050565b600081519050620001b681620002d5565b92915050565b600081519050620001cd81620002ef565b92915050565b60008060008060008060c08789031215620001ed57600080fd5b6000620001fd89828a01620001a5565b96505060206200021089828a01620001a5565b95505060406200022389828a01620001bc565b94505060606200023689828a016200018e565b93505060806200024989828a016200018e565b92505060a06200025c89828a016200018e565b9150509295509295509295565b6000620002768262000291565b9050919050565b60006200028a8262000291565b9050919050565b600073ffffffffffffffffffffffffffffffffffffffff82169050919050565b6000819050919050565b620002c68162000269565b8114620002d257600080fd5b50565b620002e0816200027d565b8114620002ec57600080fd5b50565b620002fa81620002b1565b81146200030657600080fd5b50565b6118fb80620003196000396000f3fe60806040526004361061007b5760003560e01c8063776784141161004e578063776784141461012a578063966dae0e14610141578063e2c41dbc1461016c578063fc0c546a1461018a5761007b565b80633197cbb614610080578063415ffba7146100ab57806366d003ac146100d457806367e404ce146100ff575b600080fd5b34801561008c57600080fd5b506100956101b5565b6040516100a291906116e8565b60405180910390f35b3480156100b757600080fd5b506100d260048036038101906100cd91906110f6565b6101bb565b005b3480156100e057600080fd5b506100e961070f565b6040516100f69190611500565b60405180910390f35b34801561010b57600080fd5b50610114610735565b6040516101219190611500565b60405180910390f35b34801561013657600080fd5b5061013f61075a565b005b34801561014d57600080fd5b50610156610ae3565b60405161016391906114e5565b60405180910390f35b610174610b09565b604051610181919061156d565b60405180910390f35b34801561019657600080fd5b5061019f610dca565b6040516101ac91906115cd565b60405180910390f35b60025481565b600160009054906101000a900473ffffffffffffffffffffffffffffffffffffffff1673ffffffffffffffffffffffffffffffffffffffff163373ffffffffffffffffffffffffffffffffffffffff161461021557600080fd5b6000610248833060405160200161022d9291906114b9565b60405160208183030381529060405280519060200120610df0565b9050600061025f8383610e2090919063ffffffff16565b90506000809054906101000a900473ffffffffffffffffffffffffffffffffffffffff1673ffffffffffffffffffffffffffffffffffffffff168173ffffffffffffffffffffffffffffffffffffffff16146102ba57600080fd5b6000600460009054906101000a900473ffffffffffffffffffffffffffffffffffffffff1673ffffffffffffffffffffffffffffffffffffffff166370a08231306040518263ffffffff1660e01b815260040161031791906114e5565b60206040518083038186803b15801561032f57600080fd5b505afa158015610343573d6000803e3d6000fd5b505050506040513d601f19601f8201168201806040525081019061036791906110cd565b90506000600460009054906101000a900473ffffffffffffffffffffffffffffffffffffffff1673ffffffffffffffffffffffffffffffffffffffff1663db006a75836040518263ffffffff1660e01b81526004016103c691906116e8565b602060405180830381600087803b1580156103e057600080fd5b505af11580156103f4573d6000803e3d6000fd5b505050506040513d601f19601f8201168201806040525081019061041891906110cd565b14610458576040517f08c379a000000000000000000000000000000000000000000000000000000000815260040161044f906116c8565b60405180910390fd5b6000600360009054906101000a900473ffffffffffffffffffffffffffffffffffffffff1673ffffffffffffffffffffffffffffffffffffffff166370a08231306040518263ffffffff1660e01b81526004016104b591906114e5565b60206040518083038186803b1580156104cd57600080fd5b505afa1580156104e1573d6000803e3d6000fd5b505050506040513d601f19601f8201168201806040525081019061050591906110cd565b905060008682106105165786610518565b815b9050600360009054906101000a900473ffffffffffffffffffffffffffffffffffffffff1673ffffffffffffffffffffffffffffffffffffffff1663a9059cbb600160009054906101000a900473ffffffffffffffffffffffffffffffffffffffff16836040518363ffffffff1660e01b815260040161059992919061151b565b602060405180830381600087803b1580156105b357600080fd5b505af11580156105c7573d6000803e3d6000fd5b505050506040513d601f19601f820116820180604052508101906105eb91906110a4565b61062a576040517f08c379a0000000000000000000000000000000000000000000000000000000008152600401610621906116a8565b60405180910390fd5b8181101561070657600360009054906101000a900473ffffffffffffffffffffffffffffffffffffffff1673ffffffffffffffffffffffffffffffffffffffff1663a9059cbb6000809054906101000a900473ffffffffffffffffffffffffffffffffffffffff168385036040518363ffffffff1660e01b81526004016106b292919061151b565b602060405180830381600087803b1580156106cc57600080fd5b505af11580156106e0573d6000803e3d6000fd5b505050506040513d601f19601f8201168201806040525081019061070491906110a4565b505b50505050505050565b600160009054906101000a900473ffffffffffffffffffffffffffffffffffffffff1681565b6000809054906101000a900473ffffffffffffffffffffffffffffffffffffffff1681565b600254421161076857600080fd5b6000809054906101000a900473ffffffffffffffffffffffffffffffffffffffff1673ffffffffffffffffffffffffffffffffffffffff163373ffffffffffffffffffffffffffffffffffffffff16146107c157600080fd5b6000600460009054906101000a900473ffffffffffffffffffffffffffffffffffffffff1673ffffffffffffffffffffffffffffffffffffffff166370a08231306040518263ffffffff1660e01b815260040161081e91906114e5565b60206040518083038186803b15801561083657600080fd5b505afa15801561084a573d6000803e3d6000fd5b505050506040513d601f19601f8201168201806040525081019061086e91906110cd565b90506000600460009054906101000a900473ffffffffffffffffffffffffffffffffffffffff1673ffffffffffffffffffffffffffffffffffffffff1663db006a75836040518263ffffffff1660e01b81526004016108cd91906116e8565b602060405180830381600087803b1580156108e757600080fd5b505af11580156108fb573d6000803e3d6000fd5b505050506040513d601f19601f8201168201806040525081019061091f91906110cd565b1461095f576040517f08c379a0000000000000000000000000000000000000000000000000000000008152600401610956906116c8565b60405180910390fd5b6000600360009054906101000a900473ffffffffffffffffffffffffffffffffffffffff1673ffffffffffffffffffffffffffffffffffffffff166370a08231306040518263ffffffff1660e01b81526004016109bc91906114e5565b60206040518083038186803b1580156109d457600080fd5b505afa1580156109e8573d6000803e3d6000fd5b505050506040513d601f19601f82011682018060405250810190610a0c91906110cd565b9050600360009054906101000a900473ffffffffffffffffffffffffffffffffffffffff1673ffffffffffffffffffffffffffffffffffffffff1663a9059cbb6000809054906101000a900473ffffffffffffffffffffffffffffffffffffffff16836040518363ffffffff1660e01b8152600401610a8c92919061151b565b602060405180830381600087803b158015610aa657600080fd5b505af1158015610aba573d6000803e3d6000fd5b505050506040513d601f19601f82011682018060405250810190610ade91906110a4565b505050565b600560009054906101000a900473ffffffffffffffffffffffffffffffffffffffff1681565b600080600360009054906101000a900473ffffffffffffffffffffffffffffffffffffffff1673ffffffffffffffffffffffffffffffffffffffff166370a08231306040518263ffffffff1660e01b8152600401610b6791906114e5565b60206040518083038186803b158015610b7f57600080fd5b505afa158015610b93573d6000803e3d6000fd5b505050506040513d601f19601f82011682018060405250810190610bb791906110cd565b905060008111610bc357fe5b600360009054906101000a900473ffffffffffffffffffffffffffffffffffffffff1673ffffffffffffffffffffffffffffffffffffffff1663095ea7b3600460009054906101000a900473ffffffffffffffffffffffffffffffffffffffff16836040518363ffffffff1660e01b8152600401610c42929190611544565b602060405180830381600087803b158015610c5c57600080fd5b505af1158015610c70573d6000803e3d6000fd5b505050506040513d601f19601f82011682018060405250810190610c9491906110a4565b610cd3576040517f08c379a0000000000000000000000000000000000000000000000000000000008152600401610cca90611668565b60405180910390fd5b6000600460009054906101000a900473ffffffffffffffffffffffffffffffffffffffff1673ffffffffffffffffffffffffffffffffffffffff1663a0712d68836040518263ffffffff1660e01b8152600401610d3091906116e8565b602060405180830381600087803b158015610d4a57600080fd5b505af1158015610d5e573d6000803e3d6000fd5b505050506040513d601f19601f82011682018060405250810190610d8291906110cd565b14610dc2576040517f08c379a0000000000000000000000000000000000000000000000000000000008152600401610db990611688565b60405180910390fd5b600191505090565b600360009054906101000a900473ffffffffffffffffffffffffffffffffffffffff1681565b600081604051602001610e039190611493565b604051602081830303815290604052805190602001209050919050565b60006041825114610e66576040517f08c379a0000000000000000000000000000000000000000000000000000000008152600401610e5d90611608565b60405180910390fd5b60008060006020850151925060408501519150606085015160001a90507f7fffffffffffffffffffffffffffffff5d576e7357a4501ddfe92f46681b20a08260001c1115610ee9576040517f08c379a0000000000000000000000000000000000000000000000000000000008152600401610ee090611628565b60405180910390fd5b601b8160ff1614158015610f015750601c8160ff1614155b15610f41576040517f08c379a0000000000000000000000000000000000000000000000000000000008152600401610f3890611648565b60405180910390fd5b600060018783868660405160008152602001604052604051610f669493929190611588565b6020604051602081039080840390855afa158015610f88573d6000803e3d6000fd5b505050602060405103519050600073ffffffffffffffffffffffffffffffffffffffff168173ffffffffffffffffffffffffffffffffffffffff161415611004576040517f08c379a0000000000000000000000000000000000000000000000000000000008152600401610ffb906115e8565b60405180910390fd5b8094505050505092915050565b60008151905061102081611897565b92915050565b600082601f83011261103757600080fd5b813561104a61104582611730565b611703565b9150808252602083016020830185838301111561106657600080fd5b611071838284611843565b50505092915050565b600081359050611089816118ae565b92915050565b60008151905061109e816118ae565b92915050565b6000602082840312156110b657600080fd5b60006110c484828501611011565b91505092915050565b6000602082840312156110df57600080fd5b60006110ed8482850161108f565b91505092915050565b6000806040838503121561110957600080fd5b60006111178582860161107a565b925050602083013567ffffffffffffffff81111561113457600080fd5b61114085828601611026565b9150509250929050565b611153816117e9565b82525050565b6111628161178a565b82525050565b61117181611778565b82525050565b61118861118382611778565b611852565b82525050565b6111978161179c565b82525050565b6111a6816117a8565b82525050565b6111bd6111b8826117a8565b611864565b82525050565b6111cc816117fb565b82525050565b60006111df60188361175c565b91507f45434453413a20696e76616c6964207369676e617475726500000000000000006000830152602082019050919050565b600061121f601f8361175c565b91507f45434453413a20696e76616c6964207369676e6174757265206c656e677468006000830152602082019050919050565b600061125f601c8361176d565b91507f19457468657265756d205369676e6564204d6573736167653a0a3332000000006000830152601c82019050919050565b600061129f60228361175c565b91507f45434453413a20696e76616c6964207369676e6174757265202773272076616c60008301527f75650000000000000000000000000000000000000000000000000000000000006020830152604082019050919050565b600061130560228361175c565b91507f45434453413a20696e76616c6964207369676e6174757265202776272076616c60008301527f75650000000000000000000000000000000000000000000000000000000000006020830152604082019050919050565b600061136b600e8361175c565b91507f617070726f76616c206572726f720000000000000000000000000000000000006000830152602082019050919050565b60006113ab600d8361175c565b91507f6d696e74696e67206572726f72000000000000000000000000000000000000006000830152602082019050919050565b60006113eb600e8361175c565b91507f7472616e73666572206572726f720000000000000000000000000000000000006000830152602082019050919050565b600061142b600c8361175c565b91507f72656465656d206572726f7200000000000000000000000000000000000000006000830152602082019050919050565b611467816117d2565b82525050565b61147e611479826117d2565b611880565b82525050565b61148d816117dc565b82525050565b600061149e82611252565b91506114aa82846111ac565b60208201915081905092915050565b60006114c5828561146d565b6020820191506114d58284611177565b6014820191508190509392505050565b60006020820190506114fa6000830184611168565b92915050565b60006020820190506115156000830184611159565b92915050565b6000604082019050611530600083018561114a565b61153d602083018461145e565b9392505050565b60006040820190506115596000830185611168565b611566602083018461145e565b9392505050565b6000602082019050611582600083018461118e565b92915050565b600060808201905061159d600083018761119d565b6115aa6020830186611484565b6115b7604083018561119d565b6115c4606083018461119d565b95945050505050565b60006020820190506115e260008301846111c3565b92915050565b60006020820190508181036000830152611601816111d2565b9050919050565b6000602082019050818103600083015261162181611212565b9050919050565b6000602082019050818103600083015261164181611292565b9050919050565b60006020820190508181036000830152611661816112f8565b9050919050565b600060208201905081810360008301526116818161135e565b9050919050565b600060208201905081810360008301526116a18161139e565b9050919050565b600060208201905081810360008301526116c1816113de565b9050919050565b600060208201905081810360008301526116e18161141e565b9050919050565b60006020820190506116fd600083018461145e565b92915050565b6000604051905081810181811067ffffffffffffffff8211171561172657600080fd5b8060405250919050565b600067ffffffffffffffff82111561174757600080fd5b601f19601f8301169050602081019050919050565b600082825260208201905092915050565b600081905092915050565b6000611783826117b2565b9050919050565b6000611795826117b2565b9050919050565b60008115159050919050565b6000819050919050565b600073ffffffffffffffffffffffffffffffffffffffff82169050919050565b6000819050919050565b600060ff82169050919050565b60006117f48261181f565b9050919050565b60006118068261180d565b9050919050565b6000611818826117b2565b9050919050565b600061182a82611831565b9050919050565b600061183c826117b2565b9050919050565b82818337600083830152505050565b600061185d8261186e565b9050919050565b6000819050919050565b60006118798261188a565b9050919050565b6000819050919050565b60008160601b9050919050565b6118a08161179c565b81146118ab57600080fd5b50565b6118b7816117d2565b81146118c257600080fd5b5056fea2646970667358221220933565b126a175bd4b88c4be054b0a6e662a387a66c452e3682887d7bebe7bcd64736f6c63430006060033454950373132446f6d61696e28737472696e67206e616d652c737472696e672076657273696f6e2c75696e7432353620636861696e49642c6164647265737320766572696679696e67436f6e74726163742c627974657333322073616c7429a2646970667358221220b6c98bab1a0b8601bbf5c1e45e38367d0ff1e0f60b5da6c8e7e3c0d401b6e4b664736f6c63430006060033",
  "immutableReferences": {},
  "source": "pragma solidity ^0.6.0;\npragma experimental ABIEncoderV2;\n\nimport \"@openzeppelin/contracts/token/ERC20/IERC20.sol\";\nimport \"@openzeppelin/contracts/cryptography/ECDSA.sol\";\n\ninterface CompoundContractInterface {\n  function mint(uint mintAmount) external returns (uint);\n  function redeem(uint redeemTokens) external returns (uint);\n  function balanceOf(address guy) external view returns (uint);\n}\n\ncontract CompoundChannel {\n  using ECDSA for bytes32;\n\n//  State Variables\n  address payable public sender;\n  address payable public recipient;\n  uint256 public endTime;\n  IERC20 public token;\n  CompoundContractInterface cToken;\n  address public factoryAddress;\n\n//   Events\n    // Need to add events\n//   event FundsDeposited(address depositor, uint256 amount, address TokenAddress);\n\n  constructor(\n    address payable _sender,\n    address payable _recipient,\n    uint256 _endTime,\n    address _tokenAddress,\n    address _cTokenAddress,\n    address _factoryAddress\n    ) public {\n    sender = _sender;\n    recipient = _recipient;\n    endTime = _endTime;\n    token = IERC20(_tokenAddress);\n    factoryAddress = _factoryAddress;\n    cToken = CompoundContractInterface(_cTokenAddress);\n  }\n\n  function depositFunds() public payable returns(bool) {\n    uint256 tokenBalance = token.balanceOf(address(this));\n    assert(tokenBalance > 0);\n\n    require(token.approve(address(cToken), tokenBalance), 'approval error');\n    require(cToken.mint(tokenBalance) == 0, 'minting error');\n    // emit FundsDeposited(msg.sender, _depositAmount, address(token));\n    return true;\n  }\n\n  function forceClose() public {\n    require(now > endTime);\n    require(msg.sender == sender);\n    uint256 cTokenBalance = cToken.balanceOf(address(this));\n    require(cToken.redeem(cTokenBalance) == 0, \"redeem error\");\n    uint256 balance = token.balanceOf(address(this));\n    token.transfer(sender, balance);\n  }\n\n  function close(uint256 _value, bytes memory _signature) public {\n    require(msg.sender == recipient);\n\n    bytes32 hash = keccak256(abi.encodePacked(_value, address(this))).toEthSignedMessageHash();\n    address signer = hash.recover(_signature);\n    require(signer == sender);\n\n    // Redeem Tokens\n    uint256 cTokenBalance = cToken.balanceOf(address(this));\n    require(cToken.redeem(cTokenBalance) == 0, \"redeem error\");\n\n    uint256 balance = token.balanceOf(address(this));\n    uint256 toRecipient = balance < _value ? balance : _value;\n    require(token.transfer(recipient, toRecipient), \"transfer error\");\n\n    if (toRecipient < balance) token.transfer(sender, balance - toRecipient);\n  }\n}\n\ncontract CompoundChannelFactory {\n  using ECDSA for bytes32;\n  // State Variables\n  mapping(address => address[]) public channelRegistery;\n\n  // Signature Information\n  uint256 constant chainId = 42;\n  struct Payment {\n    uint256 amount;\n  }\n  string private constant PAYMENT_TYPEHASH = \"Payment(uin256 amount)\";\n  bytes32 constant salt = 0xf2e421f4a3edcb9b1111d503bfe733db1e3f6cdc2b7971ee739626c97e86a558;\n  string private constant EIP712_DOMAIN_TYPEHASH = \"EIP712Domain(string name,string version,uint256 chainId,address verifyingContract,bytes32 salt)\";\n\n  // Events\n  event ChannelCreated(address channelAddress, address sender);\n\n  function createChannel(\n    address payable _recipient,\n    uint256 _endTime,\n    uint256 _depositAmount,\n    address _tokenAddress,\n    address _cTokenAddress\n    ) public returns(bool) {\n\n    IERC20 token = IERC20(_tokenAddress);\n    // Creates new Channel Contract\n    CompoundChannel compChan = new CompoundChannel(\n      msg.sender,\n      _recipient,\n      _endTime,\n      _tokenAddress,\n      _cTokenAddress,\n      address(this) // Factory Address\n      );\n\n    // Transfers funds from allowance to the new contract\n    require(token.transferFrom(msg.sender, address(compChan), _depositAmount), 'transferFrom error');\n    // Has the new contract mint cTokens\n    require(compChan.depositFunds(), 'depositFunds error');  //issue with revert\n\n    // Record new channel information\n    channelRegistery[msg.sender].push(address(compChan));\n    emit ChannelCreated(address(compChan), msg.sender);\n    return true;\n  }\n\n  function hashPayment(\n    Payment memory payment,\n    address _channelAddress\n    ) private pure returns (bytes32){\n\n    bytes32 DOMAIN_SEPARATOR = keccak256(abi.encode(\n    EIP712_DOMAIN_TYPEHASH,\n    keccak256(\"Compound Channels\"),\n    keccak256(\"42\"),\n    chainId,\n    _channelAddress,\n    salt\n    ));\n\n    return keccak256(abi.encodePacked(\n      \"\\\\x19\\\\x01\",\n      DOMAIN_SEPARATOR,\n      keccak256(abi.encode(\n        PAYMENT_TYPEHASH,\n        payment.amount\n      ))\n    ));\n  }\n\n  function checkSignature(\n    address _sender,\n    address _channelAddress,\n    address _checker, // the msg.sender of the original tx\n    address _recipient,\n    Payment memory payment,\n    uint8 sigV,\n    bytes32 sigR,\n    bytes32 sigS\n    ) public pure returns (bool) {\n      require(_recipient == _checker);\n      return _sender == ecrecover(hashPayment(payment, _channelAddress), sigV, sigR, sigS);\n  }\n}",
  "sourcePath": "/Users/justsomeguy/Documents/hack-money/compound-channels/src/contracts/CompoundChannelFactory.sol",
  "compiler": {
    "name": "solc",
    "version": "0.6.6+commit.6c089d02.Emscripten.clang"
  },
  "schemaVersion": "3.1.0",
  "updatedAt": "2020-05-01T21:55:16.056Z",
  "devdoc": {
    "methods": {}
  },
  "userdoc": {
    "methods": {}
  }
}