{
  "contractName": "CompoundChannelFactory",
  "abi": [
    {
      "anonymous": false,
      "inputs": [
        {
          "indexed": false,
          "internalType": "address",
          "name": "channelAddress",
          "type": "address"
        },
        {
          "indexed": false,
          "internalType": "address",
          "name": "sender",
          "type": "address"
        },
        {
          "indexed": false,
          "internalType": "address",
          "name": "recipient",
          "type": "address"
        }
      ],
      "name": "ChannelCreated",
      "type": "event"
    },
    {
      "inputs": [
        {
          "internalType": "address",
          "name": "",
          "type": "address"
        },
        {
          "internalType": "uint256",
          "name": "",
          "type": "uint256"
        }
      ],
      "name": "recipientRegistery",
      "outputs": [
        {
          "internalType": "address",
          "name": "",
          "type": "address"
        }
      ],
      "stateMutability": "view",
      "type": "function"
    },
    {
      "inputs": [
        {
          "internalType": "address",
          "name": "",
          "type": "address"
        },
        {
          "internalType": "uint256",
          "name": "",
          "type": "uint256"
        }
      ],
      "name": "senderRegistery",
      "outputs": [
        {
          "internalType": "address",
          "name": "",
          "type": "address"
        }
      ],
      "stateMutability": "view",
      "type": "function"
    },
    {
      "inputs": [
        {
          "internalType": "address payable",
          "name": "_recipient",
          "type": "address"
        },
        {
          "internalType": "uint256",
          "name": "_endTime",
          "type": "uint256"
        },
        {
          "internalType": "address",
          "name": "_tokenAddress",
          "type": "address"
        },
        {
          "internalType": "address",
          "name": "_cTokenAddress",
          "type": "address"
        }
      ],
      "name": "createChannel",
      "outputs": [
        {
          "internalType": "bool",
          "name": "",
          "type": "bool"
        }
      ],
      "stateMutability": "nonpayable",
      "type": "function"
    },
    {
      "inputs": [
        {
          "internalType": "address",
          "name": "_sender",
          "type": "address"
        },
        {
          "internalType": "address",
          "name": "_channelAddress",
          "type": "address"
        },
        {
          "internalType": "uint256",
          "name": "_amount",
          "type": "uint256"
        },
        {
          "internalType": "bytes",
          "name": "_signature",
          "type": "bytes"
        }
      ],
      "name": "checkSignature",
      "outputs": [
        {
          "internalType": "bool",
          "name": "",
          "type": "bool"
        }
      ],
      "stateMutability": "pure",
      "type": "function"
    }
  ],
  "bytecode": "0x608060405234801561001057600080fd5b5061261e806100206000396000f3fe608060405234801561001057600080fd5b506004361061004c5760003560e01c80630eaa7e5314610051578063460de383146100df57806361e06df9146101fc5780636e6586441461028a575b600080fd5b61009d6004803603604081101561006757600080fd5b81019080803573ffffffffffffffffffffffffffffffffffffffff16906020019092919080359060200190929190505050610330565b604051808273ffffffffffffffffffffffffffffffffffffffff1673ffffffffffffffffffffffffffffffffffffffff16815260200191505060405180910390f35b6101e2600480360360808110156100f557600080fd5b81019080803573ffffffffffffffffffffffffffffffffffffffff169060200190929190803573ffffffffffffffffffffffffffffffffffffffff169060200190929190803590602001909291908035906020019064010000000081111561015c57600080fd5b82018360208201111561016e57600080fd5b8035906020019184600183028401116401000000008311171561019057600080fd5b91908080601f016020809104026020016040519081016040528093929190818152602001838380828437600081840152601f19601f82011690508083019250505050505050919291929050505061037b565b604051808215151515815260200191505060405180910390f35b6102486004803603604081101561021257600080fd5b81019080803573ffffffffffffffffffffffffffffffffffffffff169060200190929190803590602001909291905050506103f1565b604051808273ffffffffffffffffffffffffffffffffffffffff1673ffffffffffffffffffffffffffffffffffffffff16815260200191505060405180910390f35b610316600480360360808110156102a057600080fd5b81019080803573ffffffffffffffffffffffffffffffffffffffff16906020019092919080359060200190929190803573ffffffffffffffffffffffffffffffffffffffff169060200190929190803573ffffffffffffffffffffffffffffffffffffffff16906020019092919050505061043c565b604051808215151515815260200191505060405180910390f35b6000602052816000526040600020818154811061034957fe5b906000526020600020016000915091509054906101000a900473ffffffffffffffffffffffffffffffffffffffff1681565b6000610385610cfa565b604051806020016040528085815250905060006103a28287610790565b90506103b78482610a5f90919063ffffffff16565b73ffffffffffffffffffffffffffffffffffffffff168773ffffffffffffffffffffffffffffffffffffffff161492505050949350505050565b6001602052816000526040600020818154811061040a57fe5b906000526020600020016000915091509054906101000a900473ffffffffffffffffffffffffffffffffffffffff1681565b60008033868686863060405161045190610d0d565b808773ffffffffffffffffffffffffffffffffffffffff1673ffffffffffffffffffffffffffffffffffffffff1681526020018673ffffffffffffffffffffffffffffffffffffffff1673ffffffffffffffffffffffffffffffffffffffff1681526020018581526020018473ffffffffffffffffffffffffffffffffffffffff1673ffffffffffffffffffffffffffffffffffffffff1681526020018373ffffffffffffffffffffffffffffffffffffffff1673ffffffffffffffffffffffffffffffffffffffff1681526020018273ffffffffffffffffffffffffffffffffffffffff1673ffffffffffffffffffffffffffffffffffffffff1681526020019650505050505050604051809103906000f080158015610576573d6000803e3d6000fd5b5090506000803373ffffffffffffffffffffffffffffffffffffffff1673ffffffffffffffffffffffffffffffffffffffff168152602001908152602001600020819080600181540180825580915050600190039060005260206000200160009091909190916101000a81548173ffffffffffffffffffffffffffffffffffffffff021916908373ffffffffffffffffffffffffffffffffffffffff160217905550600160008773ffffffffffffffffffffffffffffffffffffffff1673ffffffffffffffffffffffffffffffffffffffff168152602001908152602001600020819080600181540180825580915050600190039060005260206000200160009091909190916101000a81548173ffffffffffffffffffffffffffffffffffffffff021916908373ffffffffffffffffffffffffffffffffffffffff1602179055507fa1df915b8442d05811e14e9963bdfe437dceea6c3af491bab0b7fc499232f18f813388604051808473ffffffffffffffffffffffffffffffffffffffff1673ffffffffffffffffffffffffffffffffffffffff1681526020018373ffffffffffffffffffffffffffffffffffffffff1673ffffffffffffffffffffffffffffffffffffffff1681526020018273ffffffffffffffffffffffffffffffffffffffff1673ffffffffffffffffffffffffffffffffffffffff168152602001935050505060405180910390a16001915050949350505050565b6000806040518060800160405280605f815260200161258a605f91396040516020018082805190602001908083835b602083106107e257805182526020820191506020810190506020830392506107bf565b6001836020036101000a0380198251168184511680821785525050505050509050019150506040516020818303038152906040528051906020012060405180807f436f6d706f756e64204368616e6e656c730000000000000000000000000000008152506011019050604051809103902060405180807f310000000000000000000000000000000000000000000000000000000000000081525060010190506040518091039020602a867ff2e421f4a3edcb9b1111d503bfe733db1e3f6cdc2b7971ee739626c97e86a55860001b604051602001808781526020018681526020018581526020018481526020018373ffffffffffffffffffffffffffffffffffffffff1673ffffffffffffffffffffffffffffffffffffffff1681526020018281526020019650505050505050604051602081830303815290604052805190602001209050806040518060400160405280601781526020017f5061796d656e742875696e7432353620616d6f756e74290000000000000000008152506040516020018082805190602001908083835b602083106109945780518252602082019150602081019050602083039250610971565b6001836020036101000a03801982511681845116808217855250505050505090500191505060405160208183030381529060405280519060200120856000015160405160200180838152602001828152602001925050506040516020818303038152906040528051906020012060405160200180807f1901000000000000000000000000000000000000000000000000000000000000815250600201838152602001828152602001925050506040516020818303038152906040528051906020012091505092915050565b60006041825114610ad8576040517f08c379a000000000000000000000000000000000000000000000000000000000815260040180806020018281038252601f8152602001807f45434453413a20696e76616c6964207369676e6174757265206c656e6774680081525060200191505060405180910390fd5b60008060006020850151925060408501519150606085015160001a90507f7fffffffffffffffffffffffffffffff5d576e7357a4501ddfe92f46681b20a08260001c1115610b71576040517f08c379a00000000000000000000000000000000000000000000000000000000081526004018080602001828103825260228152602001806125466022913960400191505060405180910390fd5b601b8160ff1614158015610b895750601c8160ff1614155b15610bdf576040517f08c379a00000000000000000000000000000000000000000000000000000000081526004018080602001828103825260228152602001806125686022913960400191505060405180910390fd5b600060018783868660405160008152602001604052604051808581526020018460ff1660ff1681526020018381526020018281526020019450505050506020604051602081039080840390855afa158015610c3e573d6000803e3d6000fd5b505050602060405103519050600073ffffffffffffffffffffffffffffffffffffffff168173ffffffffffffffffffffffffffffffffffffffff161415610ced576040517f08c379a00000000000000000000000000000000000000000000000000000000081526004018080602001828103825260188152602001807f45434453413a20696e76616c6964207369676e6174757265000000000000000081525060200191505060405180910390fd5b8094505050505092915050565b6040518060200160405280600081525090565b61182b80610d1b8339019056fe608060405234801561001057600080fd5b5060405161182b38038061182b833981810160405260c081101561003357600080fd5b8101908080519060200190929190805190602001909291908051906020019092919080519060200190929190805190602001909291908051906020019092919050505085600160006101000a81548173ffffffffffffffffffffffffffffffffffffffff021916908373ffffffffffffffffffffffffffffffffffffffff16021790555084600260006101000a81548173ffffffffffffffffffffffffffffffffffffffff021916908373ffffffffffffffffffffffffffffffffffffffff1602179055508360038190555082600460006101000a81548173ffffffffffffffffffffffffffffffffffffffff021916908373ffffffffffffffffffffffffffffffffffffffff16021790555081600560006101000a81548173ffffffffffffffffffffffffffffffffffffffff021916908373ffffffffffffffffffffffffffffffffffffffff16021790555080600660006101000a81548173ffffffffffffffffffffffffffffffffffffffff021916908373ffffffffffffffffffffffffffffffffffffffff160217905550505050505050611654806101d76000396000f3fe608060405234801561001057600080fd5b506004361061009e5760003560e01c806367e404ce1161006657806367e404ce1461023457806369e527da1461027e57806377678414146102c8578063b3ef7a07146102d2578063fc0c546a1461031c5761009e565b80633197cbb6146100a35780633b76594d146100c1578063415ffba71461010757806359356c5c146101cc57806366d003ac146101ea575b600080fd5b6100ab610366565b6040518082815260200191505060405180910390f35b6100ed600480360360208110156100d757600080fd5b810190808035906020019092919050505061036c565b604051808215151515815260200191505060405180910390f35b6101ca6004803603604081101561011d57600080fd5b81019080803590602001909291908035906020019064010000000081111561014457600080fd5b82018360208201111561015657600080fd5b8035906020019184600183028401116401000000008311171561017857600080fd5b91908080601f016020809104026020016040519081016040528093929190818152602001838380828437600081840152601f19601f8201169050808301925050505050505091929192905050506107fd565b005b6101d4611063565b6040518082815260200191505060405180910390f35b6101f2611069565b604051808273ffffffffffffffffffffffffffffffffffffffff1673ffffffffffffffffffffffffffffffffffffffff16815260200191505060405180910390f35b61023c61108f565b604051808273ffffffffffffffffffffffffffffffffffffffff1673ffffffffffffffffffffffffffffffffffffffff16815260200191505060405180910390f35b6102866110b5565b604051808273ffffffffffffffffffffffffffffffffffffffff1673ffffffffffffffffffffffffffffffffffffffff16815260200191505060405180910390f35b6102d06110db565b005b6102da61154a565b604051808273ffffffffffffffffffffffffffffffffffffffff1673ffffffffffffffffffffffffffffffffffffffff16815260200191505060405180910390f35b610324611570565b604051808273ffffffffffffffffffffffffffffffffffffffff1673ffffffffffffffffffffffffffffffffffffffff16815260200191505060405180910390f35b60035481565b6000600460009054906101000a900473ffffffffffffffffffffffffffffffffffffffff1673ffffffffffffffffffffffffffffffffffffffff166323b872dd3330856040518463ffffffff1660e01b8152600401808473ffffffffffffffffffffffffffffffffffffffff1673ffffffffffffffffffffffffffffffffffffffff1681526020018373ffffffffffffffffffffffffffffffffffffffff1673ffffffffffffffffffffffffffffffffffffffff1681526020018281526020019350505050602060405180830381600087803b15801561044b57600080fd5b505af115801561045f573d6000803e3d6000fd5b505050506040513d602081101561047557600080fd5b810190808051906020019092919050505050816000808282540192505081905550600460009054906101000a900473ffffffffffffffffffffffffffffffffffffffff1673ffffffffffffffffffffffffffffffffffffffff1663095ea7b3600560009054906101000a900473ffffffffffffffffffffffffffffffffffffffff16846040518363ffffffff1660e01b8152600401808373ffffffffffffffffffffffffffffffffffffffff1673ffffffffffffffffffffffffffffffffffffffff16815260200182815260200192505050602060405180830381600087803b15801561056157600080fd5b505af1158015610575573d6000803e3d6000fd5b505050506040513d602081101561058b57600080fd5b810190808051906020019092919050505061060e576040517f08c379a000000000000000000000000000000000000000000000000000000000815260040180806020018281038252600e8152602001807f617070726f76616c206572726f7200000000000000000000000000000000000081525060200191505060405180910390fd5b6000600560009054906101000a900473ffffffffffffffffffffffffffffffffffffffff1673ffffffffffffffffffffffffffffffffffffffff1663a0712d68846040518263ffffffff1660e01b815260040180828152602001915050602060405180830381600087803b15801561068557600080fd5b505af1158015610699573d6000803e3d6000fd5b505050506040513d60208110156106af57600080fd5b810190808051906020019092919050505014610733576040517f08c379a000000000000000000000000000000000000000000000000000000000815260040180806020018281038252600d8152602001807f6d696e74696e67206572726f720000000000000000000000000000000000000081525060200191505060405180910390fd5b7fdf4dcf17030d087ed1d90ed3c90719c7260706c1c4a88505dd2d0a982887cf433383600460009054906101000a900473ffffffffffffffffffffffffffffffffffffffff16604051808473ffffffffffffffffffffffffffffffffffffffff1673ffffffffffffffffffffffffffffffffffffffff1681526020018381526020018273ffffffffffffffffffffffffffffffffffffffff1673ffffffffffffffffffffffffffffffffffffffff168152602001935050505060405180910390a160019050919050565b600260009054906101000a900473ffffffffffffffffffffffffffffffffffffffff1673ffffffffffffffffffffffffffffffffffffffff163373ffffffffffffffffffffffffffffffffffffffff16146108c0576040517f08c379a00000000000000000000000000000000000000000000000000000000081526004018080602001828103825260148152602001807f6e6f6e726563697069656e74206164647265737300000000000000000000000081525060200191505060405180910390fd5b600660009054906101000a900473ffffffffffffffffffffffffffffffffffffffff1673ffffffffffffffffffffffffffffffffffffffff1663460de383600160009054906101000a900473ffffffffffffffffffffffffffffffffffffffff163085856040518563ffffffff1660e01b8152600401808573ffffffffffffffffffffffffffffffffffffffff1673ffffffffffffffffffffffffffffffffffffffff1681526020018473ffffffffffffffffffffffffffffffffffffffff1673ffffffffffffffffffffffffffffffffffffffff16815260200183815260200180602001828103825283818151815260200191508051906020019080838360005b838110156109dd5780820151818401526020810190506109c2565b50505050905090810190601f168015610a0a5780820380516001836020036101000a031916815260200191505b509550505050505060206040518083038186803b158015610a2a57600080fd5b505afa158015610a3e573d6000803e3d6000fd5b505050506040513d6020811015610a5457600080fd5b8101908080519060200190929190505050610ad7576040517f08c379a00000000000000000000000000000000000000000000000000000000081526004018080602001828103825260118152602001807f696e76616c6964207369676e617475726500000000000000000000000000000081525060200191505060405180910390fd5b6000600560009054906101000a900473ffffffffffffffffffffffffffffffffffffffff1673ffffffffffffffffffffffffffffffffffffffff166370a08231306040518263ffffffff1660e01b8152600401808273ffffffffffffffffffffffffffffffffffffffff1673ffffffffffffffffffffffffffffffffffffffff16815260200191505060206040518083038186803b158015610b7857600080fd5b505afa158015610b8c573d6000803e3d6000fd5b505050506040513d6020811015610ba257600080fd5b810190808051906020019092919050505090506000600560009054906101000a900473ffffffffffffffffffffffffffffffffffffffff1673ffffffffffffffffffffffffffffffffffffffff1663db006a75836040518263ffffffff1660e01b815260040180828152602001915050602060405180830381600087803b158015610c2c57600080fd5b505af1158015610c40573d6000803e3d6000fd5b505050506040513d6020811015610c5657600080fd5b810190808051906020019092919050505014610cda576040517f08c379a000000000000000000000000000000000000000000000000000000000815260040180806020018281038252600c8152602001807f72656465656d206572726f72000000000000000000000000000000000000000081525060200191505060405180910390fd5b6000600460009054906101000a900473ffffffffffffffffffffffffffffffffffffffff1673ffffffffffffffffffffffffffffffffffffffff166370a08231306040518263ffffffff1660e01b8152600401808273ffffffffffffffffffffffffffffffffffffffff1673ffffffffffffffffffffffffffffffffffffffff16815260200191505060206040518083038186803b158015610d7b57600080fd5b505afa158015610d8f573d6000803e3d6000fd5b505050506040513d6020811015610da557600080fd5b810190808051906020019092919050505090506000848210610dc75784610dc9565b815b9050600460009054906101000a900473ffffffffffffffffffffffffffffffffffffffff1673ffffffffffffffffffffffffffffffffffffffff1663a9059cbb600260009054906101000a900473ffffffffffffffffffffffffffffffffffffffff16836040518363ffffffff1660e01b8152600401808373ffffffffffffffffffffffffffffffffffffffff1673ffffffffffffffffffffffffffffffffffffffff16815260200182815260200192505050602060405180830381600087803b158015610e9657600080fd5b505af1158015610eaa573d6000803e3d6000fd5b505050506040513d6020811015610ec057600080fd5b8101908080519060200190929190505050610f43576040517f08c379a000000000000000000000000000000000000000000000000000000000815260040180806020018281038252600e8152602001807f7472616e73666572206572726f7200000000000000000000000000000000000081525060200191505060405180910390fd5b600080819055508181101561105c57600460009054906101000a900473ffffffffffffffffffffffffffffffffffffffff1673ffffffffffffffffffffffffffffffffffffffff1663a9059cbb600160009054906101000a900473ffffffffffffffffffffffffffffffffffffffff168385036040518363ffffffff1660e01b8152600401808373ffffffffffffffffffffffffffffffffffffffff1673ffffffffffffffffffffffffffffffffffffffff16815260200182815260200192505050602060405180830381600087803b15801561101f57600080fd5b505af1158015611033573d6000803e3d6000fd5b505050506040513d602081101561104957600080fd5b8101908080519060200190929190505050505b5050505050565b60005481565b600260009054906101000a900473ffffffffffffffffffffffffffffffffffffffff1681565b600160009054906101000a900473ffffffffffffffffffffffffffffffffffffffff1681565b600560009054906101000a900473ffffffffffffffffffffffffffffffffffffffff1681565b60035442116110e957600080fd5b600160009054906101000a900473ffffffffffffffffffffffffffffffffffffffff1673ffffffffffffffffffffffffffffffffffffffff163373ffffffffffffffffffffffffffffffffffffffff161461114357600080fd5b6000600560009054906101000a900473ffffffffffffffffffffffffffffffffffffffff1673ffffffffffffffffffffffffffffffffffffffff166370a08231306040518263ffffffff1660e01b8152600401808273ffffffffffffffffffffffffffffffffffffffff1673ffffffffffffffffffffffffffffffffffffffff16815260200191505060206040518083038186803b1580156111e457600080fd5b505afa1580156111f8573d6000803e3d6000fd5b505050506040513d602081101561120e57600080fd5b810190808051906020019092919050505090506000600560009054906101000a900473ffffffffffffffffffffffffffffffffffffffff1673ffffffffffffffffffffffffffffffffffffffff1663db006a75836040518263ffffffff1660e01b815260040180828152602001915050602060405180830381600087803b15801561129857600080fd5b505af11580156112ac573d6000803e3d6000fd5b505050506040513d60208110156112c257600080fd5b810190808051906020019092919050505014611346576040517f08c379a000000000000000000000000000000000000000000000000000000000815260040180806020018281038252600c8152602001807f72656465656d206572726f72000000000000000000000000000000000000000081525060200191505060405180910390fd5b6000600460009054906101000a900473ffffffffffffffffffffffffffffffffffffffff1673ffffffffffffffffffffffffffffffffffffffff166370a08231306040518263ffffffff1660e01b8152600401808273ffffffffffffffffffffffffffffffffffffffff1673ffffffffffffffffffffffffffffffffffffffff16815260200191505060206040518083038186803b1580156113e757600080fd5b505afa1580156113fb573d6000803e3d6000fd5b505050506040513d602081101561141157600080fd5b810190808051906020019092919050505090506114396000805461159690919063ffffffff16565b600081905550600460009054906101000a900473ffffffffffffffffffffffffffffffffffffffff1673ffffffffffffffffffffffffffffffffffffffff1663a9059cbb600160009054906101000a900473ffffffffffffffffffffffffffffffffffffffff16836040518363ffffffff1660e01b8152600401808373ffffffffffffffffffffffffffffffffffffffff1673ffffffffffffffffffffffffffffffffffffffff16815260200182815260200192505050602060405180830381600087803b15801561150a57600080fd5b505af115801561151e573d6000803e3d6000fd5b505050506040513d602081101561153457600080fd5b8101908080519060200190929190505050505050565b600660009054906101000a900473ffffffffffffffffffffffffffffffffffffffff1681565b600460009054906101000a900473ffffffffffffffffffffffffffffffffffffffff1681565b600080828401905083811015611614576040517f08c379a000000000000000000000000000000000000000000000000000000000815260040180806020018281038252601b8152602001807f536166654d6174683a206164646974696f6e206f766572666c6f77000000000081525060200191505060405180910390fd5b809150509291505056fea2646970667358221220eaceac138954cd45f41ee673279e82e08d442385795ffc0832d8c637264877d664736f6c6343000606003345434453413a20696e76616c6964207369676e6174757265202773272076616c756545434453413a20696e76616c6964207369676e6174757265202776272076616c7565454950373132446f6d61696e28737472696e67206e616d652c737472696e672076657273696f6e2c75696e7432353620636861696e49642c6164647265737320766572696679696e67436f6e74726163742c627974657333322073616c7429a26469706673582212207e10a216e0b0002f0767700c757748e585bb36e87be683b77c5d376af43bdb2364736f6c63430006060033",
  "immutableReferences": {},
  "source": "pragma solidity ^0.6.0;\n\nimport \"@openzeppelin/contracts/token/ERC20/IERC20.sol\";\nimport \"@openzeppelin/contracts/cryptography/ECDSA.sol\";\nimport \"@openzeppelin/contracts/math/SafeMath.sol\";\n\ninterface CompoundContractInterface {\n  function mint(uint mintAmount) external returns (uint);\n  function redeem(uint redeemTokens) external returns (uint);\n  function balanceOf(address guy) external view returns (uint);\n}\n\ncontract CompoundChannel {\n  using SafeMath for uint256;\n//  State Variables\n  uint256 public underlyingBalance; // underlying asset balance\n  address payable public sender;\n  address payable public recipient;\n  uint256 public endTime;\n  IERC20 public token;\n  CompoundContractInterface public cToken;\n  CompoundChannelFactory public compFactory;\n\n//   Events\n    // Need to add events\n  event FundsDeposited(address depositor, uint256 amount, address TokenAddress);\n\n  constructor(\n    address payable _sender,\n    address payable _recipient,\n    uint256 _endTime,\n    address _tokenAddress,\n    address _cTokenAddress,\n    address _factoryAddress\n    ) public {\n    sender = _sender;\n    recipient = _recipient;\n    endTime = _endTime;\n    token = IERC20(_tokenAddress);\n    cToken = CompoundContractInterface(_cTokenAddress);\n    compFactory = CompoundChannelFactory(_factoryAddress);\n  }\n\n  function depositFunds(uint256 _amount) public returns(bool) {\n    token.transferFrom(msg.sender, address(this), _amount);\n    underlyingBalance += _amount; // update underlying asset balance\n    require(token.approve(address(cToken), _amount), 'approval error');\n    require(cToken.mint(_amount) == 0, 'minting error');\n    emit FundsDeposited(msg.sender, _amount, address(token));\n    return true;\n  }\n\n  function forceClose() public {\n    require(now > endTime);\n    require(msg.sender == sender);\n    uint256 cTokenBalance = cToken.balanceOf(address(this));\n    require(cToken.redeem(cTokenBalance) == 0, \"redeem error\");\n    uint256 balance = token.balanceOf(address(this));\n    underlyingBalance = underlyingBalance.add(0);\n    token.transfer(sender, balance);\n  }\n\n  function close(\n    uint256 _amount,\n    bytes memory _signature\n  ) public {\n    require(msg.sender == recipient, 'nonrecipient address');\n\n    require(compFactory.checkSignature(\n      sender,\n      address(this),\n      _amount,\n      _signature\n    ), 'invalid signature');\n\n    // Redeem Tokens\n    uint256 cTokenBalance = cToken.balanceOf(address(this));\n    require(cToken.redeem(cTokenBalance) == 0, \"redeem error\");\n\n    uint256 balance = token.balanceOf(address(this));\n    uint256 toRecipient = balance < _amount ? balance : _amount;\n    require(token.transfer(recipient, toRecipient), \"transfer error\");\n    underlyingBalance = 0;\n    if (toRecipient < balance) token.transfer(sender, balance - toRecipient);\n  }\n}\n\ncontract CompoundChannelFactory {\n  using ECDSA for bytes32;\n  // State Variables\n  mapping(address => address[]) public senderRegistery;\n  mapping(address => address[]) public recipientRegistery;\n\n  // Signature Information\n  uint256 constant chainId = 42; //Kovan\n  bytes32 constant salt = 0xf2e421f4a3edcb9b1111d503bfe733db1e3f6cdc2b7971ee739626c97e86a558;\n\n  string private constant EIP712_DOMAIN = \"EIP712Domain(string name,string version,uint256 chainId,address verifyingContract,bytes32 salt)\";\n  string private constant PAYMENT_TYPE = \"Payment(uint256 amount)\";\n\n  bytes32 private constant EIP712_DOMAIN_TYPEHASH = keccak256(abi.encodePacked(EIP712_DOMAIN));\n  bytes32 private constant PAYMENT_TYPEHASH = keccak256(abi.encodePacked(PAYMENT_TYPE));\n\n  struct Payment {\n    uint256 amount;\n  }\n\n  // Events\n  event ChannelCreated(address channelAddress, address sender, address recipient);\n\n  function createChannel(\n    address payable _recipient,\n    uint256 _endTime,\n    address _tokenAddress,\n    address _cTokenAddress\n    ) public returns(bool) {\n\n    // Creates new Channel Contract\n    CompoundChannel compChan = new CompoundChannel(\n      msg.sender,\n      _recipient,\n      _endTime,\n      _tokenAddress,\n      _cTokenAddress,\n      address(this) // Factory Address\n    );\n\n    // Record new channel information\n    senderRegistery[msg.sender].push(address(compChan));\n    recipientRegistery[_recipient].push(address(compChan));\n    emit ChannelCreated(address(compChan), msg.sender, _recipient);\n    return true;\n  }\n\n  function hashPayment(\n    Payment memory payment,\n    address _channelAddress\n    ) private pure returns (bytes32){\n\n    bytes32 DOMAIN_SEPARATOR = keccak256(abi.encode(\n    EIP712_DOMAIN_TYPEHASH,\n    keccak256(\"Compound Channels\"),\n    keccak256(\"1\"),\n    chainId,\n    _channelAddress, // address of the channel that the message is for\n    salt\n    ));\n\n    return keccak256(abi.encodePacked(\n      \"\\x19\\x01\",\n      DOMAIN_SEPARATOR,\n      keccak256(abi.encode(\n        PAYMENT_TYPEHASH,\n        payment.amount\n      ))\n    ));\n  }\n\n  function checkSignature(\n    address _sender,\n    address _channelAddress,\n    uint256 _amount,\n    bytes memory _signature\n    ) public pure returns (bool) {\n      Payment memory payment = Payment({\n        amount: _amount\n      });\n\n      bytes32 hash = hashPayment(payment, _channelAddress);\n      return _sender == hash.recover(_signature);\n  }\n}",
  "sourcePath": "/Users/justsomeguy/Documents/hack-money/compound-channels/src/contracts/CompoundChannelFactory.sol",
  "compiler": {
    "name": "solc",
    "version": "0.6.6+commit.6c089d02.Emscripten.clang"
  },
  "schemaVersion": "3.1.0",
  "updatedAt": "2020-05-06T01:40:27.883Z",
  "devdoc": {
    "methods": {}
  },
  "userdoc": {
    "methods": {}
  }
}