{
  "contractName": "CompoundChannelFactory",
  "abi": [
    {
      "anonymous": false,
      "inputs": [
        {
          "indexed": false,
          "internalType": "address",
          "name": "channelAddress",
          "type": "address"
        },
        {
          "indexed": false,
          "internalType": "address",
          "name": "sender",
          "type": "address"
        },
        {
          "indexed": false,
          "internalType": "address",
          "name": "recipient",
          "type": "address"
        }
      ],
      "name": "ChannelCreated",
      "type": "event"
    },
    {
      "inputs": [
        {
          "internalType": "address",
          "name": "",
          "type": "address"
        }
      ],
      "name": "recipientCount",
      "outputs": [
        {
          "internalType": "uint8",
          "name": "",
          "type": "uint8"
        }
      ],
      "stateMutability": "view",
      "type": "function"
    },
    {
      "inputs": [
        {
          "internalType": "address",
          "name": "",
          "type": "address"
        },
        {
          "internalType": "uint256",
          "name": "",
          "type": "uint256"
        }
      ],
      "name": "recipientRegistery",
      "outputs": [
        {
          "internalType": "address",
          "name": "",
          "type": "address"
        }
      ],
      "stateMutability": "view",
      "type": "function"
    },
    {
      "inputs": [
        {
          "internalType": "address",
          "name": "",
          "type": "address"
        }
      ],
      "name": "senderCount",
      "outputs": [
        {
          "internalType": "uint8",
          "name": "",
          "type": "uint8"
        }
      ],
      "stateMutability": "view",
      "type": "function"
    },
    {
      "inputs": [
        {
          "internalType": "address",
          "name": "",
          "type": "address"
        },
        {
          "internalType": "uint256",
          "name": "",
          "type": "uint256"
        }
      ],
      "name": "senderRegistery",
      "outputs": [
        {
          "internalType": "address",
          "name": "",
          "type": "address"
        }
      ],
      "stateMutability": "view",
      "type": "function"
    },
    {
      "inputs": [
        {
          "internalType": "address payable",
          "name": "_recipient",
          "type": "address"
        },
        {
          "internalType": "uint256",
          "name": "_endTime",
          "type": "uint256"
        },
        {
          "internalType": "address",
          "name": "_tokenAddress",
          "type": "address"
        },
        {
          "internalType": "address",
          "name": "_cTokenAddress",
          "type": "address"
        }
      ],
      "name": "createErc20Channel",
      "outputs": [
        {
          "internalType": "bool",
          "name": "",
          "type": "bool"
        }
      ],
      "stateMutability": "nonpayable",
      "type": "function"
    },
    {
      "inputs": [
        {
          "internalType": "address payable",
          "name": "_recipient",
          "type": "address"
        },
        {
          "internalType": "uint256",
          "name": "_endTime",
          "type": "uint256"
        },
        {
          "internalType": "address",
          "name": "_cEthAddress",
          "type": "address"
        }
      ],
      "name": "createEthChannel",
      "outputs": [
        {
          "internalType": "bool",
          "name": "",
          "type": "bool"
        }
      ],
      "stateMutability": "nonpayable",
      "type": "function"
    },
    {
      "inputs": [
        {
          "internalType": "address",
          "name": "_sender",
          "type": "address"
        },
        {
          "internalType": "address",
          "name": "_channelAddress",
          "type": "address"
        },
        {
          "internalType": "uint8",
          "name": "_channelNonce",
          "type": "uint8"
        },
        {
          "internalType": "uint256",
          "name": "_amount",
          "type": "uint256"
        },
        {
          "internalType": "bytes",
          "name": "_signature",
          "type": "bytes"
        }
      ],
      "name": "checkSignature",
      "outputs": [
        {
          "internalType": "bool",
          "name": "",
          "type": "bool"
        }
      ],
      "stateMutability": "pure",
      "type": "function"
    }
  ],
  "bytecode": "0x608060405234801561001057600080fd5b506172a6806100206000396000f3fe608060405234801561001057600080fd5b506004361061007d5760003560e01c80636cfea99a1161005b5780636cfea99a14610244578063a887ba62146102a2578063dd569f8b14610300578063f26a79b81461042a5761007d565b80630eaa7e53146100825780631dc91f2a1461011057806361e06df9146101b6575b600080fd5b6100ce6004803603604081101561009857600080fd5b81019080803573ffffffffffffffffffffffffffffffffffffffff169060200190929190803590602001909291905050506104b0565b604051808273ffffffffffffffffffffffffffffffffffffffff1673ffffffffffffffffffffffffffffffffffffffff16815260200191505060405180910390f35b61019c6004803603608081101561012657600080fd5b81019080803573ffffffffffffffffffffffffffffffffffffffff16906020019092919080359060200190929190803573ffffffffffffffffffffffffffffffffffffffff169060200190929190803573ffffffffffffffffffffffffffffffffffffffff1690602001909291905050506104fb565b604051808215151515815260200191505060405180910390f35b610202600480360360408110156101cc57600080fd5b81019080803573ffffffffffffffffffffffffffffffffffffffff16906020019092919080359060200190929190505050610925565b604051808273ffffffffffffffffffffffffffffffffffffffff1673ffffffffffffffffffffffffffffffffffffffff16815260200191505060405180910390f35b6102866004803603602081101561025a57600080fd5b81019080803573ffffffffffffffffffffffffffffffffffffffff169060200190929190505050610970565b604051808260ff1660ff16815260200191505060405180910390f35b6102e4600480360360208110156102b857600080fd5b81019080803573ffffffffffffffffffffffffffffffffffffffff169060200190929190505050610990565b604051808260ff1660ff16815260200191505060405180910390f35b610410600480360360a081101561031657600080fd5b81019080803573ffffffffffffffffffffffffffffffffffffffff169060200190929190803573ffffffffffffffffffffffffffffffffffffffff169060200190929190803560ff169060200190929190803590602001909291908035906020019064010000000081111561038a57600080fd5b82018360208201111561039c57600080fd5b803590602001918460018302840111640100000000831117156103be57600080fd5b91908080601f016020809104026020016040519081016040528093929190818152602001838380828437600081840152601f19601f8201169050808301925050505050505091929192905050506109b0565b604051808215151515815260200191505060405180910390f35b6104966004803603606081101561044057600080fd5b81019080803573ffffffffffffffffffffffffffffffffffffffff16906020019092919080359060200190929190803573ffffffffffffffffffffffffffffffffffffffff169060200190929190505050610a30565b604051808215151515815260200191505060405180910390f35b600060205281600052604060002081815481106104c957fe5b906000526020600020016000915091509054906101000a900473ffffffffffffffffffffffffffffffffffffffff1681565b60008033868686863060405161051090611384565b808773ffffffffffffffffffffffffffffffffffffffff1673ffffffffffffffffffffffffffffffffffffffff1681526020018673ffffffffffffffffffffffffffffffffffffffff1673ffffffffffffffffffffffffffffffffffffffff1681526020018581526020018473ffffffffffffffffffffffffffffffffffffffff1673ffffffffffffffffffffffffffffffffffffffff1681526020018373ffffffffffffffffffffffffffffffffffffffff1673ffffffffffffffffffffffffffffffffffffffff1681526020018273ffffffffffffffffffffffffffffffffffffffff1673ffffffffffffffffffffffffffffffffffffffff1681526020019650505050505050604051809103906000f080158015610635573d6000803e3d6000fd5b5090506000803373ffffffffffffffffffffffffffffffffffffffff1673ffffffffffffffffffffffffffffffffffffffff168152602001908152602001600020819080600181540180825580915050600190039060005260206000200160009091909190916101000a81548173ffffffffffffffffffffffffffffffffffffffff021916908373ffffffffffffffffffffffffffffffffffffffff160217905550600160008773ffffffffffffffffffffffffffffffffffffffff1673ffffffffffffffffffffffffffffffffffffffff168152602001908152602001600020819080600181540180825580915050600190039060005260206000200160009091909190916101000a81548173ffffffffffffffffffffffffffffffffffffffff021916908373ffffffffffffffffffffffffffffffffffffffff1602179055506001600260003373ffffffffffffffffffffffffffffffffffffffff1673ffffffffffffffffffffffffffffffffffffffff16815260200190815260200160002060008282829054906101000a900460ff160192506101000a81548160ff021916908360ff1602179055506001600360008873ffffffffffffffffffffffffffffffffffffffff1673ffffffffffffffffffffffffffffffffffffffff16815260200190815260200160002060008282829054906101000a900460ff160192506101000a81548160ff021916908360ff1602179055507fa1df915b8442d05811e14e9963bdfe437dceea6c3af491bab0b7fc499232f18f813388604051808473ffffffffffffffffffffffffffffffffffffffff1673ffffffffffffffffffffffffffffffffffffffff1681526020018373ffffffffffffffffffffffffffffffffffffffff1673ffffffffffffffffffffffffffffffffffffffff1681526020018273ffffffffffffffffffffffffffffffffffffffff1673ffffffffffffffffffffffffffffffffffffffff168152602001935050505060405180910390a16001915050949350505050565b6001602052816000526040600020818154811061093e57fe5b906000526020600020016000915091509054906101000a900473ffffffffffffffffffffffffffffffffffffffff1681565b60036020528060005260406000206000915054906101000a900460ff1681565b60026020528060005260406000206000915054906101000a900460ff1681565b60006109ba611391565b60405180604001604052808581526020018660ff16815250905060006109e08288610e25565b90506109f584826110e990919063ffffffff16565b73ffffffffffffffffffffffffffffffffffffffff168873ffffffffffffffffffffffffffffffffffffffff16149250505095945050505050565b6000803385858530604051610a44906113ae565b808673ffffffffffffffffffffffffffffffffffffffff1673ffffffffffffffffffffffffffffffffffffffff1681526020018573ffffffffffffffffffffffffffffffffffffffff1673ffffffffffffffffffffffffffffffffffffffff1681526020018481526020018373ffffffffffffffffffffffffffffffffffffffff1673ffffffffffffffffffffffffffffffffffffffff1681526020018273ffffffffffffffffffffffffffffffffffffffff1673ffffffffffffffffffffffffffffffffffffffff16815260200195505050505050604051809103906000f080158015610b36573d6000803e3d6000fd5b5090506000803373ffffffffffffffffffffffffffffffffffffffff1673ffffffffffffffffffffffffffffffffffffffff168152602001908152602001600020819080600181540180825580915050600190039060005260206000200160009091909190916101000a81548173ffffffffffffffffffffffffffffffffffffffff021916908373ffffffffffffffffffffffffffffffffffffffff160217905550600160008673ffffffffffffffffffffffffffffffffffffffff1673ffffffffffffffffffffffffffffffffffffffff168152602001908152602001600020819080600181540180825580915050600190039060005260206000200160009091909190916101000a81548173ffffffffffffffffffffffffffffffffffffffff021916908373ffffffffffffffffffffffffffffffffffffffff1602179055506001600260003373ffffffffffffffffffffffffffffffffffffffff1673ffffffffffffffffffffffffffffffffffffffff16815260200190815260200160002060008282829054906101000a900460ff160192506101000a81548160ff021916908360ff1602179055506001600360008773ffffffffffffffffffffffffffffffffffffffff1673ffffffffffffffffffffffffffffffffffffffff16815260200190815260200160002060008282829054906101000a900460ff160192506101000a81548160ff021916908360ff1602179055507fa1df915b8442d05811e14e9963bdfe437dceea6c3af491bab0b7fc499232f18f813387604051808473ffffffffffffffffffffffffffffffffffffffff1673ffffffffffffffffffffffffffffffffffffffff1681526020018373ffffffffffffffffffffffffffffffffffffffff1673ffffffffffffffffffffffffffffffffffffffff1681526020018273ffffffffffffffffffffffffffffffffffffffff1673ffffffffffffffffffffffffffffffffffffffff168152602001935050505060405180910390a160019150509392505050565b6000806040518060800160405280605f8152602001617212605f91396040516020018082805190602001908083835b60208310610e775780518252602082019150602081019050602083039250610e54565b6001836020036101000a0380198251168184511680821785525050505050509050019150506040516020818303038152906040528051906020012060405180807f436f6d706f756e64204368616e6e656c730000000000000000000000000000008152506011019050604051809103902060405180807f310000000000000000000000000000000000000000000000000000000000000081525060010190506040518091039020602a867ff2e421f4a3edcb9b1111d503bfe733db1e3f6cdc2b7971ee739626c97e86a55860001b604051602001808781526020018681526020018581526020018481526020018373ffffffffffffffffffffffffffffffffffffffff1673ffffffffffffffffffffffffffffffffffffffff1681526020018281526020019650505050505050604051602081830303815290604052805190602001209050806040518060600160405280602381526020016171cd602391396040516020018082805190602001908083835b6020831061100c5780518252602082019150602081019050602083039250610fe9565b6001836020036101000a0380198251168184511680821785525050505050509050019150506040516020818303038152906040528051906020012085600001518660200151604051602001808481526020018381526020018260ff1660ff16815260200193505050506040516020818303038152906040528051906020012060405160200180807f1901000000000000000000000000000000000000000000000000000000000000815250600201838152602001828152602001925050506040516020818303038152906040528051906020012091505092915050565b60006041825114611162576040517f08c379a000000000000000000000000000000000000000000000000000000000815260040180806020018281038252601f8152602001807f45434453413a20696e76616c6964207369676e6174757265206c656e6774680081525060200191505060405180910390fd5b60008060006020850151925060408501519150606085015160001a90507f7fffffffffffffffffffffffffffffff5d576e7357a4501ddfe92f46681b20a08260001c11156111fb576040517f08c379a00000000000000000000000000000000000000000000000000000000081526004018080602001828103825260228152602001806171ab6022913960400191505060405180910390fd5b601b8160ff16141580156112135750601c8160ff1614155b15611269576040517f08c379a00000000000000000000000000000000000000000000000000000000081526004018080602001828103825260228152602001806171f06022913960400191505060405180910390fd5b600060018783868660405160008152602001604052604051808581526020018460ff1660ff1681526020018381526020018281526020019450505050506020604051602081039080840390855afa1580156112c8573d6000803e3d6000fd5b505050602060405103519050600073ffffffffffffffffffffffffffffffffffffffff168173ffffffffffffffffffffffffffffffffffffffff161415611377576040517f08c379a00000000000000000000000000000000000000000000000000000000081526004018080602001828103825260188152602001807f45434453413a20696e76616c6964207369676e6174757265000000000000000081525060200191505060405180910390fd5b8094505050505092915050565b613b19806113bc83390190565b604051806040016040528060008152602001600060ff1681525090565b6122d680614ed58339019056fe608060405234801561001057600080fd5b50604051613b19380380613b19833981810160405260c081101561003357600080fd5b8101908080519060200190929190805190602001909291908051906020019092919080519060200190929190805190602001909291908051906020019092919050505085600160006101000a81548173ffffffffffffffffffffffffffffffffffffffff021916908373ffffffffffffffffffffffffffffffffffffffff16021790555084600260006101000a81548173ffffffffffffffffffffffffffffffffffffffff021916908373ffffffffffffffffffffffffffffffffffffffff1602179055508360038190555082600460016101000a81548173ffffffffffffffffffffffffffffffffffffffff021916908373ffffffffffffffffffffffffffffffffffffffff16021790555081600560006101000a81548173ffffffffffffffffffffffffffffffffffffffff021916908373ffffffffffffffffffffffffffffffffffffffff16021790555080600660006101000a81548173ffffffffffffffffffffffffffffffffffffffff021916908373ffffffffffffffffffffffffffffffffffffffff160217905550505050505050613942806101d76000396000f3fe6080604052600436106100f75760003560e01c80637fdb655c1161008a578063b79092fd11610059578063b79092fd146104d3578063d69c496614610526578063f8f222fd14610597578063fc0c546a14610605576100f8565b80637fdb655c1461036f5780639d1f66ac14610386578063a90689f5146103d7578063b3ef7a071461047c576100f8565b806366d003ac116100c657806366d003ac1461025357806367e404ce146102aa57806369e527da146103015780637767841414610358576100f8565b80631220ce42146100fa5780633197cbb61461012b578063415ffba71461015657806359356c5c14610228576100f8565b5b005b34801561010657600080fd5b5061010f61065c565b604051808260ff1660ff16815260200191505060405180910390f35b34801561013757600080fd5b5061014061066f565b6040518082815260200191505060405180910390f35b34801561016257600080fd5b506102266004803603604081101561017957600080fd5b8101908080359060200190929190803590602001906401000000008111156101a057600080fd5b8201836020820111156101b257600080fd5b803590602001918460018302840111640100000000831117156101d457600080fd5b91908080601f016020809104026020016040519081016040528093929190818152602001838380828437600081840152601f19601f820116905080830192505050505050509192919290505050610675565b005b34801561023457600080fd5b5061023d610f36565b6040518082815260200191505060405180910390f35b34801561025f57600080fd5b50610268610f3c565b604051808273ffffffffffffffffffffffffffffffffffffffff1673ffffffffffffffffffffffffffffffffffffffff16815260200191505060405180910390f35b3480156102b657600080fd5b506102bf610f62565b604051808273ffffffffffffffffffffffffffffffffffffffff1673ffffffffffffffffffffffffffffffffffffffff16815260200191505060405180910390f35b34801561030d57600080fd5b50610316610f88565b604051808273ffffffffffffffffffffffffffffffffffffffff1673ffffffffffffffffffffffffffffffffffffffff16815260200191505060405180910390f35b34801561036457600080fd5b5061036d610fae565b005b34801561037b57600080fd5b506103846114db565b005b34801561039257600080fd5b506103d5600480360360208110156103a957600080fd5b81019080803573ffffffffffffffffffffffffffffffffffffffff169060200190929190505050611a0b565b005b3480156103e357600080fd5b5061047a600480360360a08110156103fa57600080fd5b81019080803573ffffffffffffffffffffffffffffffffffffffff169060200190929190803573ffffffffffffffffffffffffffffffffffffffff1690602001909291908035906020019092919080359060200190929190803573ffffffffffffffffffffffffffffffffffffffff169060200190929190505050611d94565b005b34801561048857600080fd5b506104916126bb565b604051808273ffffffffffffffffffffffffffffffffffffffff1673ffffffffffffffffffffffffffffffffffffffff16815260200191505060405180910390f35b3480156104df57600080fd5b5061050c600480360360208110156104f657600080fd5b81019080803590602001909291905050506126e1565b604051808215151515815260200191505060405180910390f35b34801561053257600080fd5b506105956004803603604081101561054957600080fd5b81019080803573ffffffffffffffffffffffffffffffffffffffff169060200190929190803573ffffffffffffffffffffffffffffffffffffffff169060200190929190505050612b7e565b005b610603600480360360608110156105ad57600080fd5b81019080803573ffffffffffffffffffffffffffffffffffffffff16906020019092919080359060200190929190803573ffffffffffffffffffffffffffffffffffffffff1690602001909291905050506130fd565b005b34801561061157600080fd5b5061061a613754565b604051808273ffffffffffffffffffffffffffffffffffffffff1673ffffffffffffffffffffffffffffffffffffffff16815260200191505060405180910390f35b600460009054906101000a900460ff1681565b60035481565b600260009054906101000a900473ffffffffffffffffffffffffffffffffffffffff1673ffffffffffffffffffffffffffffffffffffffff163373ffffffffffffffffffffffffffffffffffffffff1614610738576040517f08c379a00000000000000000000000000000000000000000000000000000000081526004018080602001828103825260148152602001807f6e6f6e726563697069656e74206164647265737300000000000000000000000081525060200191505060405180910390fd5b600660009054906101000a900473ffffffffffffffffffffffffffffffffffffffff1673ffffffffffffffffffffffffffffffffffffffff1663dd569f8b600160009054906101000a900473ffffffffffffffffffffffffffffffffffffffff1630600460009054906101000a900460ff1686866040518663ffffffff1660e01b8152600401808673ffffffffffffffffffffffffffffffffffffffff1673ffffffffffffffffffffffffffffffffffffffff1681526020018573ffffffffffffffffffffffffffffffffffffffff1673ffffffffffffffffffffffffffffffffffffffff1681526020018460ff1660ff16815260200183815260200180602001828103825283818151815260200191508051906020019080838360005b83811015610871578082015181840152602081019050610856565b50505050905090810190601f16801561089e5780820380516001836020036101000a031916815260200191505b50965050505050505060206040518083038186803b1580156108bf57600080fd5b505afa1580156108d3573d6000803e3d6000fd5b505050506040513d60208110156108e957600080fd5b810190808051906020019092919050505061096c576040517f08c379a00000000000000000000000000000000000000000000000000000000081526004018080602001828103825260118152602001807f696e76616c6964207369676e617475726500000000000000000000000000000081525060200191505060405180910390fd5b6001600460008282829054906101000a900460ff160192506101000a81548160ff021916908360ff160217905550600080819055506000600560009054906101000a900473ffffffffffffffffffffffffffffffffffffffff1673ffffffffffffffffffffffffffffffffffffffff166370a08231306040518263ffffffff1660e01b8152600401808273ffffffffffffffffffffffffffffffffffffffff1673ffffffffffffffffffffffffffffffffffffffff16815260200191505060206040518083038186803b158015610a4257600080fd5b505afa158015610a56573d6000803e3d6000fd5b505050506040513d6020811015610a6c57600080fd5b810190808051906020019092919050505090506000600560009054906101000a900473ffffffffffffffffffffffffffffffffffffffff1673ffffffffffffffffffffffffffffffffffffffff1663db006a75836040518263ffffffff1660e01b815260040180828152602001915050602060405180830381600087803b158015610af657600080fd5b505af1158015610b0a573d6000803e3d6000fd5b505050506040513d6020811015610b2057600080fd5b810190808051906020019092919050505014610ba4576040517f08c379a000000000000000000000000000000000000000000000000000000000815260040180806020018281038252600c8152602001807f72656465656d206572726f72000000000000000000000000000000000000000081525060200191505060405180910390fd5b6000600460019054906101000a900473ffffffffffffffffffffffffffffffffffffffff1673ffffffffffffffffffffffffffffffffffffffff166370a08231306040518263ffffffff1660e01b8152600401808273ffffffffffffffffffffffffffffffffffffffff1673ffffffffffffffffffffffffffffffffffffffff16815260200191505060206040518083038186803b158015610c4557600080fd5b505afa158015610c59573d6000803e3d6000fd5b505050506040513d6020811015610c6f57600080fd5b810190808051906020019092919050505090506000848210610c915784610c93565b815b9050600460019054906101000a900473ffffffffffffffffffffffffffffffffffffffff1673ffffffffffffffffffffffffffffffffffffffff1663a9059cbb600260009054906101000a900473ffffffffffffffffffffffffffffffffffffffff16836040518363ffffffff1660e01b8152600401808373ffffffffffffffffffffffffffffffffffffffff1673ffffffffffffffffffffffffffffffffffffffff16815260200182815260200192505050602060405180830381600087803b158015610d6057600080fd5b505af1158015610d74573d6000803e3d6000fd5b505050506040513d6020811015610d8a57600080fd5b8101908080519060200190929190505050610e0d576040517f08c379a000000000000000000000000000000000000000000000000000000000815260040180806020018281038252600e8152602001807f7472616e73666572206572726f7200000000000000000000000000000000000081525060200191505060405180910390fd5b81811015610f2f57600460019054906101000a900473ffffffffffffffffffffffffffffffffffffffff1673ffffffffffffffffffffffffffffffffffffffff1663a9059cbb600160009054906101000a900473ffffffffffffffffffffffffffffffffffffffff16610e89848661377a90919063ffffffff16565b6040518363ffffffff1660e01b8152600401808373ffffffffffffffffffffffffffffffffffffffff1673ffffffffffffffffffffffffffffffffffffffff16815260200182815260200192505050602060405180830381600087803b158015610ef257600080fd5b505af1158015610f06573d6000803e3d6000fd5b505050506040513d6020811015610f1c57600080fd5b8101908080519060200190929190505050505b5050505050565b60005481565b600260009054906101000a900473ffffffffffffffffffffffffffffffffffffffff1681565b600160009054906101000a900473ffffffffffffffffffffffffffffffffffffffff1681565b600560009054906101000a900473ffffffffffffffffffffffffffffffffffffffff1681565b6003544211611025576040517f08c379a00000000000000000000000000000000000000000000000000000000081526004018080602001828103825260128152602001807f746f6f206561726c7920746f20636c6f7365000000000000000000000000000081525060200191505060405180910390fd5b600160009054906101000a900473ffffffffffffffffffffffffffffffffffffffff1673ffffffffffffffffffffffffffffffffffffffff163373ffffffffffffffffffffffffffffffffffffffff16146110e8576040517f08c379a00000000000000000000000000000000000000000000000000000000081526004018080602001828103825260118152602001807f6e6f6e73656e646572206164647265737300000000000000000000000000000081525060200191505060405180910390fd5b600080819055506000600560009054906101000a900473ffffffffffffffffffffffffffffffffffffffff1673ffffffffffffffffffffffffffffffffffffffff166370a08231306040518263ffffffff1660e01b8152600401808273ffffffffffffffffffffffffffffffffffffffff1673ffffffffffffffffffffffffffffffffffffffff16815260200191505060206040518083038186803b15801561119057600080fd5b505afa1580156111a4573d6000803e3d6000fd5b505050506040513d60208110156111ba57600080fd5b810190808051906020019092919050505090506000600560009054906101000a900473ffffffffffffffffffffffffffffffffffffffff1673ffffffffffffffffffffffffffffffffffffffff1663db006a75836040518263ffffffff1660e01b815260040180828152602001915050602060405180830381600087803b15801561124457600080fd5b505af1158015611258573d6000803e3d6000fd5b505050506040513d602081101561126e57600080fd5b8101908080519060200190929190505050146112f2576040517f08c379a000000000000000000000000000000000000000000000000000000000815260040180806020018281038252600c8152602001807f72656465656d206572726f72000000000000000000000000000000000000000081525060200191505060405180910390fd5b6000600460019054906101000a900473ffffffffffffffffffffffffffffffffffffffff1673ffffffffffffffffffffffffffffffffffffffff166370a08231306040518263ffffffff1660e01b8152600401808273ffffffffffffffffffffffffffffffffffffffff1673ffffffffffffffffffffffffffffffffffffffff16815260200191505060206040518083038186803b15801561139357600080fd5b505afa1580156113a7573d6000803e3d6000fd5b505050506040513d60208110156113bd57600080fd5b81019080805190602001909291905050509050600460019054906101000a900473ffffffffffffffffffffffffffffffffffffffff1673ffffffffffffffffffffffffffffffffffffffff1663a9059cbb600160009054906101000a900473ffffffffffffffffffffffffffffffffffffffff16836040518363ffffffff1660e01b8152600401808373ffffffffffffffffffffffffffffffffffffffff1673ffffffffffffffffffffffffffffffffffffffff16815260200182815260200192505050602060405180830381600087803b15801561149b57600080fd5b505af11580156114af573d6000803e3d6000fd5b505050506040513d60208110156114c557600080fd5b8101908080519060200190929190505050505050565b6000600460019054906101000a900473ffffffffffffffffffffffffffffffffffffffff1673ffffffffffffffffffffffffffffffffffffffff1663dd62ed3e33306040518363ffffffff1660e01b8152600401808373ffffffffffffffffffffffffffffffffffffffff1673ffffffffffffffffffffffffffffffffffffffff1681526020018273ffffffffffffffffffffffffffffffffffffffff1673ffffffffffffffffffffffffffffffffffffffff1681526020019250505060206040518083038186803b1580156115b057600080fd5b505afa1580156115c4573d6000803e3d6000fd5b505050506040513d60208110156115da57600080fd5b810190808051906020019092919050505090506000600560009054906101000a900473ffffffffffffffffffffffffffffffffffffffff1673ffffffffffffffffffffffffffffffffffffffff166317bfdfbc306040518263ffffffff1660e01b8152600401808273ffffffffffffffffffffffffffffffffffffffff1673ffffffffffffffffffffffffffffffffffffffff168152602001915050602060405180830381600087803b15801561169057600080fd5b505af11580156116a4573d6000803e3d6000fd5b505050506040513d60208110156116ba57600080fd5b810190808051906020019092919050505090508082111561187057600460019054906101000a900473ffffffffffffffffffffffffffffffffffffffff1673ffffffffffffffffffffffffffffffffffffffff1663a9059cbb30836040518363ffffffff1660e01b8152600401808373ffffffffffffffffffffffffffffffffffffffff1673ffffffffffffffffffffffffffffffffffffffff16815260200182815260200192505050602060405180830381600087803b15801561177e57600080fd5b505af1158015611792573d6000803e3d6000fd5b505050506040513d60208110156117a857600080fd5b810190808051906020019092919050505050600560009054906101000a900473ffffffffffffffffffffffffffffffffffffffff1673ffffffffffffffffffffffffffffffffffffffff16630e752702826040518263ffffffff1660e01b815260040180828152602001915050602060405180830381600087803b15801561182f57600080fd5b505af1158015611843573d6000803e3d6000fd5b505050506040513d602081101561185957600080fd5b810190808051906020019092919050505050611a07565b600460019054906101000a900473ffffffffffffffffffffffffffffffffffffffff1673ffffffffffffffffffffffffffffffffffffffff1663a9059cbb30846040518363ffffffff1660e01b8152600401808373ffffffffffffffffffffffffffffffffffffffff1673ffffffffffffffffffffffffffffffffffffffff16815260200182815260200192505050602060405180830381600087803b15801561191957600080fd5b505af115801561192d573d6000803e3d6000fd5b505050506040513d602081101561194357600080fd5b810190808051906020019092919050505050600560009054906101000a900473ffffffffffffffffffffffffffffffffffffffff1673ffffffffffffffffffffffffffffffffffffffff16630e752702836040518263ffffffff1660e01b815260040180828152602001915050602060405180830381600087803b1580156119ca57600080fd5b505af11580156119de573d6000803e3d6000fd5b505050506040513d60208110156119f457600080fd5b8101908080519060200190929190505050505b5050565b6000600560009054906101000a900473ffffffffffffffffffffffffffffffffffffffff1673ffffffffffffffffffffffffffffffffffffffff166317bfdfbc306040518263ffffffff1660e01b8152600401808273ffffffffffffffffffffffffffffffffffffffff1673ffffffffffffffffffffffffffffffffffffffff168152602001915050602060405180830381600087803b158015611aae57600080fd5b505af1158015611ac2573d6000803e3d6000fd5b505050506040513d6020811015611ad857600080fd5b8101908080519060200190929190505050905060008114611b61576040517f08c379a00000000000000000000000000000000000000000000000000000000081526004018080602001828103825260128152602001807f6e65656420746f2072657061792064656274000000000000000000000000000081525060200191505060405180910390fd5b600082905060008173ffffffffffffffffffffffffffffffffffffffff166370a08231306040518263ffffffff1660e01b8152600401808273ffffffffffffffffffffffffffffffffffffffff1673ffffffffffffffffffffffffffffffffffffffff16815260200191505060206040518083038186803b158015611be557600080fd5b505afa158015611bf9573d6000803e3d6000fd5b505050506040513d6020811015611c0f57600080fd5b8101908080519060200190929190505050905060008273ffffffffffffffffffffffffffffffffffffffff1663db006a75836040518263ffffffff1660e01b815260040180828152602001915050602060405180830381600087803b158015611c7757600080fd5b505af1158015611c8b573d6000803e3d6000fd5b505050506040513d6020811015611ca157600080fd5b810190808051906020019092919050505014611d25576040517f08c379a000000000000000000000000000000000000000000000000000000000815260040180806020018281038252600c8152602001807f72656465656d206572726f72000000000000000000000000000000000000000081525060200191505060405180910390fd5b600160009054906101000a900473ffffffffffffffffffffffffffffffffffffffff1673ffffffffffffffffffffffffffffffffffffffff166108fc479081150290604051600060405180830381858888f19350505050158015611d8d573d6000803e3d6000fd5b5050505050565b8373ffffffffffffffffffffffffffffffffffffffff16600560009054906101000a900473ffffffffffffffffffffffffffffffffffffffff1673ffffffffffffffffffffffffffffffffffffffff161415611def57600080fd5b6000859050600085905060008390508273ffffffffffffffffffffffffffffffffffffffff166323b872dd3330896040518463ffffffff1660e01b8152600401808473ffffffffffffffffffffffffffffffffffffffff1673ffffffffffffffffffffffffffffffffffffffff1681526020018373ffffffffffffffffffffffffffffffffffffffff1673ffffffffffffffffffffffffffffffffffffffff1681526020018281526020019350505050602060405180830381600087803b158015611eb957600080fd5b505af1158015611ecd573d6000803e3d6000fd5b505050506040513d6020811015611ee357600080fd5b8101908080519060200190929190505050508273ffffffffffffffffffffffffffffffffffffffff1663095ea7b388886040518363ffffffff1660e01b8152600401808373ffffffffffffffffffffffffffffffffffffffff1673ffffffffffffffffffffffffffffffffffffffff16815260200182815260200192505050602060405180830381600087803b158015611f7c57600080fd5b505af1158015611f90573d6000803e3d6000fd5b505050506040513d6020811015611fa657600080fd5b8101908080519060200190929190505050612029576040517f08c379a000000000000000000000000000000000000000000000000000000000815260040180806020018281038252600e8152602001807f617070726f76616c206572726f7200000000000000000000000000000000000081525060200191505060405180910390fd5b60008273ffffffffffffffffffffffffffffffffffffffff1663a0712d68886040518263ffffffff1660e01b815260040180828152602001915050602060405180830381600087803b15801561207e57600080fd5b505af1158015612092573d6000803e3d6000fd5b505050506040513d60208110156120a857600080fd5b81019080805190602001909291905050501461212c576040517f08c379a000000000000000000000000000000000000000000000000000000000815260040180806020018281038252600d8152602001807f6d696e74696e67206572726f720000000000000000000000000000000000000081525060200191505060405180910390fd5b6060600167ffffffffffffffff8111801561214657600080fd5b506040519080825280602002602001820160405280156121755781602001602082028036833780820191505090505b509050878160008151811061218657fe5b602002602001019073ffffffffffffffffffffffffffffffffffffffff16908173ffffffffffffffffffffffffffffffffffffffff168152505060608273ffffffffffffffffffffffffffffffffffffffff1663c2998238836040518263ffffffff1660e01b81526004018080602001828103825283818151815260200191508051906020019060200280838360005b83811015612231578082015181840152602081019050612216565b5050505090500192505050600060405180830381600087803b15801561225657600080fd5b505af115801561226a573d6000803e3d6000fd5b505050506040513d6000823e3d601f19601f82011682018060405250602081101561229457600080fd5b81019080805160405193929190846401000000008211156122b457600080fd5b838201915060208201858111156122ca57600080fd5b82518660208202830111640100000000821117156122e757600080fd5b8083526020830192505050908051906020019060200280838360005b8381101561231e578082015181840152602081019050612303565b50505050905001604052505050905060008160008151811061233c57fe5b6020026020010151146123b7576040517f08c379a00000000000000000000000000000000000000000000000000000000081526004018080602001828103825260208152602001807f436f6d7074726f6c6c65722e656e7465724d61726b657473206661696c65642e81525060200191505060405180910390fd5b600560009054906101000a900473ffffffffffffffffffffffffffffffffffffffff1673ffffffffffffffffffffffffffffffffffffffff1663c5ebeaec886040518263ffffffff1660e01b815260040180828152602001915050602060405180830381600087803b15801561242c57600080fd5b505af1158015612440573d6000803e3d6000fd5b505050506040513d602081101561245657600080fd5b81019080805190602001909291905050505061247d876000546137c490919063ffffffff16565b600081905550600460019054906101000a900473ffffffffffffffffffffffffffffffffffffffff1673ffffffffffffffffffffffffffffffffffffffff1663095ea7b3600560009054906101000a900473ffffffffffffffffffffffffffffffffffffffff16896040518363ffffffff1660e01b8152600401808373ffffffffffffffffffffffffffffffffffffffff1673ffffffffffffffffffffffffffffffffffffffff16815260200182815260200192505050602060405180830381600087803b15801561254e57600080fd5b505af1158015612562573d6000803e3d6000fd5b505050506040513d602081101561257857600080fd5b8101908080519060200190929190505050506000600560009054906101000a900473ffffffffffffffffffffffffffffffffffffffff1673ffffffffffffffffffffffffffffffffffffffff1663a0712d68896040518263ffffffff1660e01b815260040180828152602001915050602060405180830381600087803b15801561260157600080fd5b505af1158015612615573d6000803e3d6000fd5b505050506040513d602081101561262b57600080fd5b8101908080519060200190929190505050146126af576040517f08c379a000000000000000000000000000000000000000000000000000000000815260040180806020018281038252600d8152602001807f6d696e74696e67206572726f720000000000000000000000000000000000000081525060200191505060405180910390fd5b50505050505050505050565b600660009054906101000a900473ffffffffffffffffffffffffffffffffffffffff1681565b6000600460019054906101000a900473ffffffffffffffffffffffffffffffffffffffff1673ffffffffffffffffffffffffffffffffffffffff166323b872dd3330856040518463ffffffff1660e01b8152600401808473ffffffffffffffffffffffffffffffffffffffff1673ffffffffffffffffffffffffffffffffffffffff1681526020018373ffffffffffffffffffffffffffffffffffffffff1673ffffffffffffffffffffffffffffffffffffffff1681526020018281526020019350505050602060405180830381600087803b1580156127c057600080fd5b505af11580156127d4573d6000803e3d6000fd5b505050506040513d60208110156127ea57600080fd5b810190808051906020019092919050505050612811826000546137c490919063ffffffff16565b600081905550600460019054906101000a900473ffffffffffffffffffffffffffffffffffffffff1673ffffffffffffffffffffffffffffffffffffffff1663095ea7b3600560009054906101000a900473ffffffffffffffffffffffffffffffffffffffff16846040518363ffffffff1660e01b8152600401808373ffffffffffffffffffffffffffffffffffffffff1673ffffffffffffffffffffffffffffffffffffffff16815260200182815260200192505050602060405180830381600087803b1580156128e257600080fd5b505af11580156128f6573d6000803e3d6000fd5b505050506040513d602081101561290c57600080fd5b810190808051906020019092919050505061298f576040517f08c379a000000000000000000000000000000000000000000000000000000000815260040180806020018281038252600e8152602001807f617070726f76616c206572726f7200000000000000000000000000000000000081525060200191505060405180910390fd5b6000600560009054906101000a900473ffffffffffffffffffffffffffffffffffffffff1673ffffffffffffffffffffffffffffffffffffffff1663a0712d68846040518263ffffffff1660e01b815260040180828152602001915050602060405180830381600087803b158015612a0657600080fd5b505af1158015612a1a573d6000803e3d6000fd5b505050506040513d6020811015612a3057600080fd5b810190808051906020019092919050505014612ab4576040517f08c379a000000000000000000000000000000000000000000000000000000000815260040180806020018281038252600d8152602001807f6d696e74696e67206572726f720000000000000000000000000000000000000081525060200191505060405180910390fd5b7fdf4dcf17030d087ed1d90ed3c90719c7260706c1c4a88505dd2d0a982887cf433383600460019054906101000a900473ffffffffffffffffffffffffffffffffffffffff16604051808473ffffffffffffffffffffffffffffffffffffffff1673ffffffffffffffffffffffffffffffffffffffff1681526020018381526020018273ffffffffffffffffffffffffffffffffffffffff1673ffffffffffffffffffffffffffffffffffffffff168152602001935050505060405180910390a160019050919050565b600460019054906101000a900473ffffffffffffffffffffffffffffffffffffffff1673ffffffffffffffffffffffffffffffffffffffff168273ffffffffffffffffffffffffffffffffffffffff161415612bd957600080fd5b600560009054906101000a900473ffffffffffffffffffffffffffffffffffffffff1673ffffffffffffffffffffffffffffffffffffffff168173ffffffffffffffffffffffffffffffffffffffff161415612c3457600080fd5b6000600560009054906101000a900473ffffffffffffffffffffffffffffffffffffffff1673ffffffffffffffffffffffffffffffffffffffff166317bfdfbc306040518263ffffffff1660e01b8152600401808273ffffffffffffffffffffffffffffffffffffffff1673ffffffffffffffffffffffffffffffffffffffff168152602001915050602060405180830381600087803b158015612cd757600080fd5b505af1158015612ceb573d6000803e3d6000fd5b505050506040513d6020811015612d0157600080fd5b8101908080519060200190929190505050905060008114612d8a576040517f08c379a00000000000000000000000000000000000000000000000000000000081526004018080602001828103825260128152602001807f6e65656420746f2072657061792064656274000000000000000000000000000081525060200191505060405180910390fd5b6000829050600084905060008273ffffffffffffffffffffffffffffffffffffffff166370a08231306040518263ffffffff1660e01b8152600401808273ffffffffffffffffffffffffffffffffffffffff1673ffffffffffffffffffffffffffffffffffffffff16815260200191505060206040518083038186803b158015612e1357600080fd5b505afa158015612e27573d6000803e3d6000fd5b505050506040513d6020811015612e3d57600080fd5b8101908080519060200190929190505050905060008373ffffffffffffffffffffffffffffffffffffffff1663db006a75836040518263ffffffff1660e01b815260040180828152602001915050602060405180830381600087803b158015612ea557600080fd5b505af1158015612eb9573d6000803e3d6000fd5b505050506040513d6020811015612ecf57600080fd5b810190808051906020019092919050505014612f53576040517f08c379a000000000000000000000000000000000000000000000000000000000815260040180806020018281038252600c8152602001807f72656465656d206572726f72000000000000000000000000000000000000000081525060200191505060405180910390fd5b60008273ffffffffffffffffffffffffffffffffffffffff166370a08231306040518263ffffffff1660e01b8152600401808273ffffffffffffffffffffffffffffffffffffffff1673ffffffffffffffffffffffffffffffffffffffff16815260200191505060206040518083038186803b158015612fd257600080fd5b505afa158015612fe6573d6000803e3d6000fd5b505050506040513d6020811015612ffc57600080fd5b810190808051906020019092919050505090508273ffffffffffffffffffffffffffffffffffffffff1663a9059cbb600160009054906101000a900473ffffffffffffffffffffffffffffffffffffffff16836040518363ffffffff1660e01b8152600401808373ffffffffffffffffffffffffffffffffffffffff1673ffffffffffffffffffffffffffffffffffffffff16815260200182815260200192505050602060405180830381600087803b1580156130b857600080fd5b505af11580156130cc573d6000803e3d6000fd5b505050506040513d60208110156130e257600080fd5b81019080805190602001909291905050505050505050505050565b8273ffffffffffffffffffffffffffffffffffffffff16600560009054906101000a900473ffffffffffffffffffffffffffffffffffffffff1673ffffffffffffffffffffffffffffffffffffffff16141561315857600080fd5b600083905060008290508173ffffffffffffffffffffffffffffffffffffffff16631249c58b6203d090346040518363ffffffff1660e01b81526004016000604051808303818589803b1580156131ae57600080fd5b5088f11580156131c2573d6000803e3d6000fd5b5050505050506060600167ffffffffffffffff811180156131e257600080fd5b506040519080825280602002602001820160405280156132115781602001602082028036833780820191505090505b509050858160008151811061322257fe5b602002602001019073ffffffffffffffffffffffffffffffffffffffff16908173ffffffffffffffffffffffffffffffffffffffff168152505060608273ffffffffffffffffffffffffffffffffffffffff1663c2998238836040518263ffffffff1660e01b81526004018080602001828103825283818151815260200191508051906020019060200280838360005b838110156132cd5780820151818401526020810190506132b2565b5050505090500192505050600060405180830381600087803b1580156132f257600080fd5b505af1158015613306573d6000803e3d6000fd5b505050506040513d6000823e3d601f19601f82011682018060405250602081101561333057600080fd5b810190808051604051939291908464010000000082111561335057600080fd5b8382019150602082018581111561336657600080fd5b825186602082028301116401000000008211171561338357600080fd5b8083526020830192505050908051906020019060200280838360005b838110156133ba57808201518184015260208101905061339f565b5050505090500160405250505090506000816000815181106133d857fe5b602002602001015114613453576040517f08c379a00000000000000000000000000000000000000000000000000000000081526004018080602001828103825260208152602001807f436f6d7074726f6c6c65722e656e7465724d61726b657473206661696c65642e81525060200191505060405180910390fd5b600560009054906101000a900473ffffffffffffffffffffffffffffffffffffffff1673ffffffffffffffffffffffffffffffffffffffff1663c5ebeaec876040518263ffffffff1660e01b815260040180828152602001915050602060405180830381600087803b1580156134c857600080fd5b505af11580156134dc573d6000803e3d6000fd5b505050506040513d60208110156134f257600080fd5b810190808051906020019092919050505050613519866000546137c490919063ffffffff16565b600081905550600460019054906101000a900473ffffffffffffffffffffffffffffffffffffffff1673ffffffffffffffffffffffffffffffffffffffff1663095ea7b3600560009054906101000a900473ffffffffffffffffffffffffffffffffffffffff16886040518363ffffffff1660e01b8152600401808373ffffffffffffffffffffffffffffffffffffffff1673ffffffffffffffffffffffffffffffffffffffff16815260200182815260200192505050602060405180830381600087803b1580156135ea57600080fd5b505af11580156135fe573d6000803e3d6000fd5b505050506040513d602081101561361457600080fd5b8101908080519060200190929190505050506000600560009054906101000a900473ffffffffffffffffffffffffffffffffffffffff1673ffffffffffffffffffffffffffffffffffffffff1663a0712d68886040518263ffffffff1660e01b815260040180828152602001915050602060405180830381600087803b15801561369d57600080fd5b505af11580156136b1573d6000803e3d6000fd5b505050506040513d60208110156136c757600080fd5b81019080805190602001909291905050501461374b576040517f08c379a000000000000000000000000000000000000000000000000000000000815260040180806020018281038252600d8152602001807f6d696e74696e67206572726f720000000000000000000000000000000000000081525060200191505060405180910390fd5b50505050505050565b600460019054906101000a900473ffffffffffffffffffffffffffffffffffffffff1681565b60006137bc83836040518060400160405280601e81526020017f536166654d6174683a207375627472616374696f6e206f766572666c6f77000081525061384c565b905092915050565b600080828401905083811015613842576040517f08c379a000000000000000000000000000000000000000000000000000000000815260040180806020018281038252601b8152602001807f536166654d6174683a206164646974696f6e206f766572666c6f77000000000081525060200191505060405180910390fd5b8091505092915050565b60008383111582906138f9576040517f08c379a00000000000000000000000000000000000000000000000000000000081526004018080602001828103825283818151815260200191508051906020019080838360005b838110156138be5780820151818401526020810190506138a3565b50505050905090810190601f1680156138eb5780820380516001836020036101000a031916815260200191505b509250505060405180910390fd5b506000838503905080915050939250505056fea2646970667358221220a776a7a201e3c4b104840ce220e8ab2d179578732f1f1ff7db0d19790f07563364736f6c63430006060033608060405234801561001057600080fd5b506040516122d63803806122d6833981810160405260a081101561003357600080fd5b81019080805190602001909291908051906020019092919080519060200190929190805190602001909291908051906020019092919050505084600160006101000a81548173ffffffffffffffffffffffffffffffffffffffff021916908373ffffffffffffffffffffffffffffffffffffffff16021790555083600260006101000a81548173ffffffffffffffffffffffffffffffffffffffff021916908373ffffffffffffffffffffffffffffffffffffffff1602179055508260038190555081600460016101000a81548173ffffffffffffffffffffffffffffffffffffffff021916908373ffffffffffffffffffffffffffffffffffffffff16021790555080600560006101000a81548173ffffffffffffffffffffffffffffffffffffffff021916908373ffffffffffffffffffffffffffffffffffffffff160217905550505050505061214b8061018b6000396000f3fe6080604052600436106100c65760003560e01c80634a5a41141161007f57806367e404ce1161005957806367e404ce146103a157806377678414146103f8578063b3ef7a071461040f578063d69c496614610466576100c7565b80634a5a41141461031557806359356c5c1461031f57806366d003ac1461034a576100c7565b80631220ce42146100c957806319b68c00146100fa5780633197cbb6146101515780633c01a8421461017c578063415ffba714610221578063439370b1146102f3576100c7565b5b005b3480156100d557600080fd5b506100de6104d7565b604051808260ff1660ff16815260200191505060405180910390f35b34801561010657600080fd5b5061010f6104ea565b604051808273ffffffffffffffffffffffffffffffffffffffff1673ffffffffffffffffffffffffffffffffffffffff16815260200191505060405180910390f35b34801561015d57600080fd5b50610166610510565b6040518082815260200191505060405180910390f35b34801561018857600080fd5b5061021f600480360360a081101561019f57600080fd5b81019080803573ffffffffffffffffffffffffffffffffffffffff169060200190929190803573ffffffffffffffffffffffffffffffffffffffff1690602001909291908035906020019092919080359060200190929190803573ffffffffffffffffffffffffffffffffffffffff169060200190929190505050610516565b005b34801561022d57600080fd5b506102f16004803603604081101561024457600080fd5b81019080803590602001909291908035906020019064010000000081111561026b57600080fd5b82018360208201111561027d57600080fd5b8035906020019184600183028401116401000000008311171561029f57600080fd5b91908080601f016020809104026020016040519081016040528093929190818152602001838380828437600081840152601f19601f820116905080830192505050505050509192919290505050610c99565b005b6102fb6112d4565b604051808215151515815260200191505060405180910390f35b61031d6113eb565b005b34801561032b57600080fd5b50610334611631565b6040518082815260200191505060405180910390f35b34801561035657600080fd5b5061035f611637565b604051808273ffffffffffffffffffffffffffffffffffffffff1673ffffffffffffffffffffffffffffffffffffffff16815260200191505060405180910390f35b3480156103ad57600080fd5b506103b661165d565b604051808273ffffffffffffffffffffffffffffffffffffffff1673ffffffffffffffffffffffffffffffffffffffff16815260200191505060405180910390f35b34801561040457600080fd5b5061040d611683565b005b34801561041b57600080fd5b50610424611a39565b604051808273ffffffffffffffffffffffffffffffffffffffff1673ffffffffffffffffffffffffffffffffffffffff16815260200191505060405180910390f35b34801561047257600080fd5b506104d56004803603604081101561048957600080fd5b81019080803573ffffffffffffffffffffffffffffffffffffffff169060200190929190803573ffffffffffffffffffffffffffffffffffffffff169060200190929190505050611a5f565b005b600460009054906101000a900460ff1681565b600460019054906101000a900473ffffffffffffffffffffffffffffffffffffffff1681565b60035481565b8373ffffffffffffffffffffffffffffffffffffffff16600460019054906101000a900473ffffffffffffffffffffffffffffffffffffffff1673ffffffffffffffffffffffffffffffffffffffff16141561057157600080fd5b6000859050600085905060008390508273ffffffffffffffffffffffffffffffffffffffff166323b872dd3330896040518463ffffffff1660e01b8152600401808473ffffffffffffffffffffffffffffffffffffffff1673ffffffffffffffffffffffffffffffffffffffff1681526020018373ffffffffffffffffffffffffffffffffffffffff1673ffffffffffffffffffffffffffffffffffffffff1681526020018281526020019350505050602060405180830381600087803b15801561063b57600080fd5b505af115801561064f573d6000803e3d6000fd5b505050506040513d602081101561066557600080fd5b8101908080519060200190929190505050508273ffffffffffffffffffffffffffffffffffffffff1663095ea7b388886040518363ffffffff1660e01b8152600401808373ffffffffffffffffffffffffffffffffffffffff1673ffffffffffffffffffffffffffffffffffffffff16815260200182815260200192505050602060405180830381600087803b1580156106fe57600080fd5b505af1158015610712573d6000803e3d6000fd5b505050506040513d602081101561072857600080fd5b81019080805190602001909291905050506107ab576040517f08c379a000000000000000000000000000000000000000000000000000000000815260040180806020018281038252600e8152602001807f617070726f76616c206572726f7200000000000000000000000000000000000081525060200191505060405180910390fd5b60008273ffffffffffffffffffffffffffffffffffffffff1663a0712d68886040518263ffffffff1660e01b815260040180828152602001915050602060405180830381600087803b15801561080057600080fd5b505af1158015610814573d6000803e3d6000fd5b505050506040513d602081101561082a57600080fd5b8101908080519060200190929190505050146108ae576040517f08c379a000000000000000000000000000000000000000000000000000000000815260040180806020018281038252600d8152602001807f6d696e74696e67206572726f720000000000000000000000000000000000000081525060200191505060405180910390fd5b6060600167ffffffffffffffff811180156108c857600080fd5b506040519080825280602002602001820160405280156108f75781602001602082028036833780820191505090505b509050878160008151811061090857fe5b602002602001019073ffffffffffffffffffffffffffffffffffffffff16908173ffffffffffffffffffffffffffffffffffffffff168152505060608273ffffffffffffffffffffffffffffffffffffffff1663c2998238836040518263ffffffff1660e01b81526004018080602001828103825283818151815260200191508051906020019060200280838360005b838110156109b3578082015181840152602081019050610998565b5050505090500192505050600060405180830381600087803b1580156109d857600080fd5b505af11580156109ec573d6000803e3d6000fd5b505050506040513d6000823e3d601f19601f820116820180604052506020811015610a1657600080fd5b8101908080516040519392919084640100000000821115610a3657600080fd5b83820191506020820185811115610a4c57600080fd5b8251866020820283011164010000000082111715610a6957600080fd5b8083526020830192505050908051906020019060200280838360005b83811015610aa0578082015181840152602081019050610a85565b505050509050016040525050509050600081600081518110610abe57fe5b602002602001015114610b39576040517f08c379a00000000000000000000000000000000000000000000000000000000081526004018080602001828103825260208152602001807f436f6d7074726f6c6c65722e656e7465724d61726b657473206661696c65642e81525060200191505060405180910390fd5b600460019054906101000a900473ffffffffffffffffffffffffffffffffffffffff1673ffffffffffffffffffffffffffffffffffffffff1663c5ebeaec886040518263ffffffff1660e01b815260040180828152602001915050602060405180830381600087803b158015610bae57600080fd5b505af1158015610bc2573d6000803e3d6000fd5b505050506040513d6020811015610bd857600080fd5b810190808051906020019092919050505050610bff87600054611f8390919063ffffffff16565b600081905550600460019054906101000a900473ffffffffffffffffffffffffffffffffffffffff1673ffffffffffffffffffffffffffffffffffffffff16631249c58b6203d090896040518363ffffffff1660e01b81526004016000604051808303818589803b158015610c7357600080fd5b5088f1158015610c87573d6000803e3d6000fd5b50505050505050505050505050505050565b600260009054906101000a900473ffffffffffffffffffffffffffffffffffffffff1673ffffffffffffffffffffffffffffffffffffffff163373ffffffffffffffffffffffffffffffffffffffff1614610d5c576040517f08c379a00000000000000000000000000000000000000000000000000000000081526004018080602001828103825260148152602001807f6e6f6e726563697069656e74206164647265737300000000000000000000000081525060200191505060405180910390fd5b600560009054906101000a900473ffffffffffffffffffffffffffffffffffffffff1673ffffffffffffffffffffffffffffffffffffffff1663dd569f8b600160009054906101000a900473ffffffffffffffffffffffffffffffffffffffff1630600460009054906101000a900460ff1686866040518663ffffffff1660e01b8152600401808673ffffffffffffffffffffffffffffffffffffffff1673ffffffffffffffffffffffffffffffffffffffff1681526020018573ffffffffffffffffffffffffffffffffffffffff1673ffffffffffffffffffffffffffffffffffffffff1681526020018460ff1660ff16815260200183815260200180602001828103825283818151815260200191508051906020019080838360005b83811015610e95578082015181840152602081019050610e7a565b50505050905090810190601f168015610ec25780820380516001836020036101000a031916815260200191505b50965050505050505060206040518083038186803b158015610ee357600080fd5b505afa158015610ef7573d6000803e3d6000fd5b505050506040513d6020811015610f0d57600080fd5b8101908080519060200190929190505050610f90576040517f08c379a00000000000000000000000000000000000000000000000000000000081526004018080602001828103825260118152602001807f696e76616c6964207369676e617475726500000000000000000000000000000081525060200191505060405180910390fd5b6001600460008282829054906101000a900460ff160192506101000a81548160ff021916908360ff160217905550600080819055506000600460019054906101000a900473ffffffffffffffffffffffffffffffffffffffff1673ffffffffffffffffffffffffffffffffffffffff166370a08231306040518263ffffffff1660e01b8152600401808273ffffffffffffffffffffffffffffffffffffffff1673ffffffffffffffffffffffffffffffffffffffff16815260200191505060206040518083038186803b15801561106657600080fd5b505afa15801561107a573d6000803e3d6000fd5b505050506040513d602081101561109057600080fd5b810190808051906020019092919050505090506000600460019054906101000a900473ffffffffffffffffffffffffffffffffffffffff1673ffffffffffffffffffffffffffffffffffffffff1663db006a75836040518263ffffffff1660e01b815260040180828152602001915050602060405180830381600087803b15801561111a57600080fd5b505af115801561112e573d6000803e3d6000fd5b505050506040513d602081101561114457600080fd5b8101908080519060200190929190505050146111c8576040517f08c379a000000000000000000000000000000000000000000000000000000000815260040180806020018281038252600c8152602001807f72656465656d206572726f72000000000000000000000000000000000000000081525060200191505060405180910390fd5b600047905060008482106111dc57846111de565b815b9050600260009054906101000a900473ffffffffffffffffffffffffffffffffffffffff1673ffffffffffffffffffffffffffffffffffffffff166108fc829081150290604051600060405180830381858888f19350505050158015611248573d6000803e3d6000fd5b50818110156112cd57600160009054906101000a900473ffffffffffffffffffffffffffffffffffffffff1673ffffffffffffffffffffffffffffffffffffffff166108fc6112a0838561200b90919063ffffffff16565b9081150290604051600060405180830381858888f193505050501580156112cb573d6000803e3d6000fd5b505b5050505050565b6000600460019054906101000a900473ffffffffffffffffffffffffffffffffffffffff1673ffffffffffffffffffffffffffffffffffffffff16631249c58b6203d090346040518363ffffffff1660e01b81526004016000604051808303818589803b15801561134457600080fd5b5088f1158015611358573d6000803e3d6000fd5b50505050505061137334600054611f8390919063ffffffff16565b6000819055507f66ff7c8f71ccc7c36152a41920d0d3b46ef3034359f76aa1498ed4478c204b5c3334604051808373ffffffffffffffffffffffffffffffffffffffff1673ffffffffffffffffffffffffffffffffffffffff1681526020018281526020019250505060405180910390a16001905090565b60003490506000600460019054906101000a900473ffffffffffffffffffffffffffffffffffffffff1673ffffffffffffffffffffffffffffffffffffffff166317bfdfbc306040518263ffffffff1660e01b8152600401808273ffffffffffffffffffffffffffffffffffffffff1673ffffffffffffffffffffffffffffffffffffffff168152602001915050602060405180830381600087803b15801561149357600080fd5b505af11580156114a7573d6000803e3d6000fd5b505050506040513d60208110156114bd57600080fd5b81019080805190602001909291905050509050808211156115a957600460019054906101000a900473ffffffffffffffffffffffffffffffffffffffff1673ffffffffffffffffffffffffffffffffffffffff16634e4d9fea826040518263ffffffff1660e01b81526004016000604051808303818588803b15801561154257600080fd5b505af1158015611556573d6000803e3d6000fd5b50505050503373ffffffffffffffffffffffffffffffffffffffff166108fc8284039081150290604051600060405180830381858888f193505050501580156115a3573d6000803e3d6000fd5b5061162d565b600460019054906101000a900473ffffffffffffffffffffffffffffffffffffffff1673ffffffffffffffffffffffffffffffffffffffff16634e4d9fea836040518263ffffffff1660e01b81526004016000604051808303818588803b15801561161357600080fd5b505af1158015611627573d6000803e3d6000fd5b50505050505b5050565b60005481565b600260009054906101000a900473ffffffffffffffffffffffffffffffffffffffff1681565b600160009054906101000a900473ffffffffffffffffffffffffffffffffffffffff1681565b60035442116116fa576040517f08c379a00000000000000000000000000000000000000000000000000000000081526004018080602001828103825260128152602001807f746f6f206561726c7920746f20636c6f7365000000000000000000000000000081525060200191505060405180910390fd5b600160009054906101000a900473ffffffffffffffffffffffffffffffffffffffff1673ffffffffffffffffffffffffffffffffffffffff163373ffffffffffffffffffffffffffffffffffffffff16146117bd576040517f08c379a00000000000000000000000000000000000000000000000000000000081526004018080602001828103825260118152602001807f6e6f6e73656e646572206164647265737300000000000000000000000000000081525060200191505060405180910390fd5b600080819055506000600460019054906101000a900473ffffffffffffffffffffffffffffffffffffffff1673ffffffffffffffffffffffffffffffffffffffff166370a08231306040518263ffffffff1660e01b8152600401808273ffffffffffffffffffffffffffffffffffffffff1673ffffffffffffffffffffffffffffffffffffffff16815260200191505060206040518083038186803b15801561186557600080fd5b505afa158015611879573d6000803e3d6000fd5b505050506040513d602081101561188f57600080fd5b810190808051906020019092919050505090506000600460019054906101000a900473ffffffffffffffffffffffffffffffffffffffff1673ffffffffffffffffffffffffffffffffffffffff1663db006a75836040518263ffffffff1660e01b815260040180828152602001915050602060405180830381600087803b15801561191957600080fd5b505af115801561192d573d6000803e3d6000fd5b505050506040513d602081101561194357600080fd5b8101908080519060200190929190505050146119c7576040517f08c379a000000000000000000000000000000000000000000000000000000000815260040180806020018281038252600c8152602001807f72656465656d206572726f72000000000000000000000000000000000000000081525060200191505060405180910390fd5b6000479050600160009054906101000a900473ffffffffffffffffffffffffffffffffffffffff1673ffffffffffffffffffffffffffffffffffffffff166108fc829081150290604051600060405180830381858888f19350505050158015611a34573d6000803e3d6000fd5b505050565b600560009054906101000a900473ffffffffffffffffffffffffffffffffffffffff1681565b600460019054906101000a900473ffffffffffffffffffffffffffffffffffffffff1673ffffffffffffffffffffffffffffffffffffffff168273ffffffffffffffffffffffffffffffffffffffff161415611aba57600080fd5b6000600460019054906101000a900473ffffffffffffffffffffffffffffffffffffffff1673ffffffffffffffffffffffffffffffffffffffff166317bfdfbc306040518263ffffffff1660e01b8152600401808273ffffffffffffffffffffffffffffffffffffffff1673ffffffffffffffffffffffffffffffffffffffff168152602001915050602060405180830381600087803b158015611b5d57600080fd5b505af1158015611b71573d6000803e3d6000fd5b505050506040513d6020811015611b8757600080fd5b8101908080519060200190929190505050905060008114611c10576040517f08c379a00000000000000000000000000000000000000000000000000000000081526004018080602001828103825260128152602001807f6e65656420746f2072657061792064656274000000000000000000000000000081525060200191505060405180910390fd5b6000839050600083905060008273ffffffffffffffffffffffffffffffffffffffff166370a08231306040518263ffffffff1660e01b8152600401808273ffffffffffffffffffffffffffffffffffffffff1673ffffffffffffffffffffffffffffffffffffffff16815260200191505060206040518083038186803b158015611c9957600080fd5b505afa158015611cad573d6000803e3d6000fd5b505050506040513d6020811015611cc357600080fd5b8101908080519060200190929190505050905060008373ffffffffffffffffffffffffffffffffffffffff1663db006a75836040518263ffffffff1660e01b815260040180828152602001915050602060405180830381600087803b158015611d2b57600080fd5b505af1158015611d3f573d6000803e3d6000fd5b505050506040513d6020811015611d5557600080fd5b810190808051906020019092919050505014611dd9576040517f08c379a000000000000000000000000000000000000000000000000000000000815260040180806020018281038252600c8152602001807f72656465656d206572726f72000000000000000000000000000000000000000081525060200191505060405180910390fd5b60008273ffffffffffffffffffffffffffffffffffffffff166370a08231306040518263ffffffff1660e01b8152600401808273ffffffffffffffffffffffffffffffffffffffff1673ffffffffffffffffffffffffffffffffffffffff16815260200191505060206040518083038186803b158015611e5857600080fd5b505afa158015611e6c573d6000803e3d6000fd5b505050506040513d6020811015611e8257600080fd5b810190808051906020019092919050505090508273ffffffffffffffffffffffffffffffffffffffff1663a9059cbb600160009054906101000a900473ffffffffffffffffffffffffffffffffffffffff16836040518363ffffffff1660e01b8152600401808373ffffffffffffffffffffffffffffffffffffffff1673ffffffffffffffffffffffffffffffffffffffff16815260200182815260200192505050602060405180830381600087803b158015611f3e57600080fd5b505af1158015611f52573d6000803e3d6000fd5b505050506040513d6020811015611f6857600080fd5b81019080805190602001909291905050505050505050505050565b600080828401905083811015612001576040517f08c379a000000000000000000000000000000000000000000000000000000000815260040180806020018281038252601b8152602001807f536166654d6174683a206164646974696f6e206f766572666c6f77000000000081525060200191505060405180910390fd5b8091505092915050565b600061204d83836040518060400160405280601e81526020017f536166654d6174683a207375627472616374696f6e206f766572666c6f770000815250612055565b905092915050565b6000838311158290612102576040517f08c379a00000000000000000000000000000000000000000000000000000000081526004018080602001828103825283818151815260200191508051906020019080838360005b838110156120c75780820151818401526020810190506120ac565b50505050905090810190601f1680156120f45780820380516001836020036101000a031916815260200191505b509250505060405180910390fd5b506000838503905080915050939250505056fea2646970667358221220a42907202f3d7dce222b0edf95b3d59e677a146484ada6485815195a29f58bfd64736f6c6343000606003345434453413a20696e76616c6964207369676e6174757265202773272076616c75655061796d656e742875696e7432353620616d6f756e742c75696e7438206e6f6e63652945434453413a20696e76616c6964207369676e6174757265202776272076616c7565454950373132446f6d61696e28737472696e67206e616d652c737472696e672076657273696f6e2c75696e7432353620636861696e49642c6164647265737320766572696679696e67436f6e74726163742c627974657333322073616c7429a2646970667358221220985f9bf5738e4d248c580031e2377e270043e1f6d8a1783d3f39c5bbc203cda964736f6c63430006060033",
  "immutableReferences": {},
  "source": "pragma solidity ^0.6.0;\n\nimport \"@openzeppelin/contracts/token/ERC20/IERC20.sol\";\nimport \"@openzeppelin/contracts/cryptography/ECDSA.sol\";\nimport \"@openzeppelin/contracts/math/SafeMath.sol\";\n\ninterface CERC20 {\n  function mint(uint256) external returns (uint256);\n  function redeem(uint256) external returns (uint256);\n  function balanceOf(address) external view returns (uint256);\n  function borrow(uint256) external returns (uint256);\n  function borrowBalanceCurrent(address account) external returns (uint);\n  function repayBorrow(uint repayAmount) external returns (uint);\n}\n\ninterface CETH {\n  function mint() external payable;\n  function exchangeRateCurrent() external returns (uint256);\n  function supplyRatePerBlock() external returns (uint256);\n  function redeem(uint256) external returns (uint256);\n  function redeemUnderlying(uint256) external returns (uint256);\n  function balanceOf(address) external view returns (uint256);\n  function borrow(uint256) external returns (uint256);\n  function borrowBalanceCurrent(address account) external returns (uint);\n  function repayBorrow() external payable;\n}\n\ninterface Comptroller {\n  function markets(address) external returns (bool, uint256);\n  function enterMarkets(address[] calldata) external returns (uint256[] memory);\n  function getAccountLiquidity(address) external view returns (uint256, uint256, uint256);\n}\n\ncontract EthChannel {\n  using SafeMath for uint256;\n//  State Variables\n  uint256 public underlyingBalance; // underlying asset balance\n  address payable public sender;\n  address payable public recipient;\n  uint256 public endTime;\n  uint8 public channelNonce;\n  CETH public cEther;\n  CompoundChannelFactory public compFactory;\n\n//   Events\n    // Need to add events\n  event EthDeposited(address depositor, uint256 amount);\n\n  constructor(\n    address payable _sender,\n    address payable _recipient,\n    uint256 _endTime,\n    address _cEtherAddress,\n    address _factoryAddress\n    ) public {\n    sender = _sender;\n    recipient = _recipient;\n    endTime = _endTime;\n    cEther = CETH(_cEtherAddress);\n    compFactory = CompoundChannelFactory(_factoryAddress);\n  }\n\n  function depositEth() public payable returns(bool) {\n    cEther.mint{gas: 250000, value: msg.value}(); //0.6.0 syntax\n    underlyingBalance = underlyingBalance.add(msg.value); // update underlying asset balance\n    emit EthDeposited(msg.sender, msg.value);\n    return true;\n  }\n\n  function forceClose() public {\n    require(now > endTime, 'too early to close');\n    require(msg.sender == sender, 'nonsender address');\n    underlyingBalance = 0;\n    \n    uint256 cEthBalance = cEther.balanceOf(address(this));\n    require(cEther.redeem(cEthBalance) == 0, \"redeem error\");\n    uint256 balance = address(this).balance;\n    sender.transfer(balance);\n  }\n\n  function close(\n    uint256 _amount,\n    bytes memory _signature\n  ) public {\n    require(msg.sender == recipient, 'nonrecipient address');\n\n    require(compFactory.checkSignature(\n      sender,\n      address(this),\n      channelNonce,\n      _amount,\n      _signature\n    ), 'invalid signature');\n\n    channelNonce += 1;\n    underlyingBalance = 0;\n    // Redeem Tokens\n    uint256 cEthBalance = cEther.balanceOf(address(this));\n    require(cEther.redeem(cEthBalance) == 0, \"redeem error\");\n\n    uint256 balance = address(this).balance;\n    uint256 toRecipient = balance < _amount ? balance : _amount;\n    recipient.transfer(toRecipient);\n    if (toRecipient < balance) sender.transfer(balance.sub(toRecipient));\n  }\n\n  function borrowEthAgainstERC20(\n    address _tokenGive, \n    address _cTokenGive, \n    uint256 _giveAmount,\n    uint256 _getAmount,\n    address _compTrollAddress\n    ) public {\n    require(address(cEther) != _cTokenGive);\n    IERC20 tokenGive = IERC20(_tokenGive);\n    CERC20 cTokenGive = CERC20(_cTokenGive);\n    Comptroller comptroller = Comptroller(_compTrollAddress);\n    // Move allowance to channel\n    tokenGive.transferFrom(msg.sender, address(this), _giveAmount);\n\n    // Supply Colateral for borrow\n    require(tokenGive.approve(_cTokenGive, _giveAmount), 'approval error');\n    require(cTokenGive.mint(_giveAmount) == 0, 'minting error');\n\n    // Enter the market\n    address[] memory cTokens = new address[](1);\n    cTokens[0] = _cTokenGive;\n    uint256[] memory errors = comptroller.enterMarkets(cTokens);\n    if (errors[0] != 0) {\n      revert(\"Comptroller.enterMarkets failed.\");\n    }\n    cEther.borrow(_getAmount);\n    underlyingBalance = underlyingBalance.add(_getAmount); // update underlying asset balance\n    cEther.mint{gas: 250000, value: _getAmount}(); //0.6.0 syntax\n  }\n\n  function repayEthBorrowed() public payable {\n    uint received = msg.value;\n    uint256 repayAmount = cEther.borrowBalanceCurrent(address(this));\n\n    if(received > repayAmount) {\n      cEther.repayBorrow{value: repayAmount}();\n      msg.sender.transfer(received - repayAmount);\n    }\n    else {\n      cEther.repayBorrow{value: received}();\n    }\n  }\n\n  function withdrawLoanedERC20(address _cTokenGave, address _tokenGave) public {\n    require(_cTokenGave != address(cEther));\n    uint256 repayAmount = cEther.borrowBalanceCurrent(address(this));\n    require(repayAmount == 0, 'need to repay debt');\n\n    CERC20 cTokenGave = CERC20(_cTokenGave);\n    IERC20 tokenGave = IERC20(_tokenGave);\n\n    uint256 cTokenBalance = cTokenGave.balanceOf(address(this));\n    require(cTokenGave.redeem(cTokenBalance) == 0, 'redeem error');\n    uint256 tokenBalance = tokenGave.balanceOf(address(this));\n    tokenGave.transfer(sender, tokenBalance);\n  }\n  \n  fallback() external payable { } //Needed to recieve ether\n  \n}\n\ncontract Erc20Channel {\n  using SafeMath for uint256;\n//  State Variables\n  uint256 public underlyingBalance; // underlying asset balance\n  address payable public sender;\n  address payable public recipient;\n  uint256 public endTime;\n  uint8 public channelNonce;\n  IERC20 public token;\n  CERC20 public cToken;\n  CompoundChannelFactory public compFactory;\n\n//   Events\n    // Need to add events\n  event FundsDeposited(address depositor, uint256 amount, address TokenAddress);\n\n  constructor(\n    address payable _sender,\n    address payable _recipient,\n    uint256 _endTime,\n    address _tokenAddress,\n    address _cTokenAddress,\n    address _factoryAddress\n    ) public {\n    sender = _sender;\n    recipient = _recipient;\n    endTime = _endTime;\n    token = IERC20(_tokenAddress); // zero address if underlying is Ether \n    cToken = CERC20(_cTokenAddress);\n    compFactory = CompoundChannelFactory(_factoryAddress);\n  }\n\n  function depositERC20(uint256 _amount) public returns(bool) {\n    token.transferFrom(msg.sender, address(this), _amount);\n    underlyingBalance = underlyingBalance.add(_amount); // update underlying asset balance\n    require(token.approve(address(cToken), _amount), 'approval error');\n    require(cToken.mint(_amount) == 0, 'minting error');\n    emit FundsDeposited(msg.sender, _amount, address(token));\n    return true;\n  }\n\n  function forceClose() public {\n    require(now > endTime, 'too early to close');\n    require(msg.sender == sender, 'nonsender address');\n    underlyingBalance = 0;\n    \n    uint256 cTokenBalance = cToken.balanceOf(address(this));\n    require(cToken.redeem(cTokenBalance) == 0, \"redeem error\");\n    uint256 balance = token.balanceOf(address(this));\n    token.transfer(sender, balance);\n  }\n\n  function close(\n    uint256 _amount,\n    bytes memory _signature\n  ) public {\n    require(msg.sender == recipient, 'nonrecipient address');\n\n    require(compFactory.checkSignature(\n      sender,\n      address(this),\n      channelNonce,\n      _amount,\n      _signature\n    ), 'invalid signature');\n\n    channelNonce += 1;\n    underlyingBalance = 0;\n    // Redeem Tokens\n    uint256 cTokenBalance = cToken.balanceOf(address(this));\n    require(cToken.redeem(cTokenBalance) == 0, \"redeem error\");\n\n    uint256 balance = token.balanceOf(address(this));\n    uint256 toRecipient = balance < _amount ? balance : _amount;\n    require(token.transfer(recipient, toRecipient), \"transfer error\");\n    if (toRecipient < balance) token.transfer(sender, balance.sub(toRecipient));\n  }\n\n  function borrowERC20AgainstERC20(\n    address _tokenGive, \n    address _cTokenGive, \n    uint256 _giveAmount,\n    uint256 _getAmount,\n    address _compTrollAddress\n    ) public {\n    // Prevents from entering the market of the channel asset\n    require(address(cToken) != _cTokenGive);\n\n    // Contract Instances\n    IERC20 tokenGive = IERC20(_tokenGive);\n    CERC20 cTokenGive = CERC20(_cTokenGive);\n    Comptroller comptroller = Comptroller(_compTrollAddress);\n\n    // Move allowance to channel\n    tokenGive.transferFrom(msg.sender, address(this), _giveAmount);\n\n    // Supply Colateral for borrow\n    require(tokenGive.approve(_cTokenGive, _giveAmount), 'approval error');\n    require(cTokenGive.mint(_giveAmount) == 0, 'minting error');\n\n    // Enter the market\n    address[] memory cTokens = new address[](1);\n    cTokens[0] = _cTokenGive;\n    uint256[] memory errors = comptroller.enterMarkets(cTokens);\n    if (errors[0] != 0) {\n      revert(\"Comptroller.enterMarkets failed.\");\n    }\n    cToken.borrow(_getAmount);\n    underlyingBalance = underlyingBalance.add(_getAmount); // update underlying asset balance\n    // Takes borrow amount and converts back to cToken\n    token.approve(address(cToken), _getAmount);\n    require(cToken.mint(_getAmount) == 0, 'minting error');\n  }\n\n  function borrowERC20AgainstETH(\n    address _cEthGive, \n    uint256 _getAmount,\n    address _compTrollAddress\n    ) public payable {\n    require(address(cToken) != _cEthGive);\n\n    // Contract Instances\n    CETH cEthGive = CETH(_cEthGive);\n    Comptroller comptroller = Comptroller(_compTrollAddress);\n    \n    // Supply Colateral for borrow\n    cEthGive.mint{gas: 250000, value: msg.value}(); //0.6.0 syntax\n\n    // Enter the market\n    address[] memory cTokens = new address[](1);\n    cTokens[0] = _cEthGive;\n    uint256[] memory errors = comptroller.enterMarkets(cTokens);\n    if (errors[0] != 0) {\n      revert(\"Comptroller.enterMarkets failed.\");\n    }\n    cToken.borrow(_getAmount);\n    underlyingBalance = underlyingBalance.add(_getAmount); // update underlying asset balance\n    // Takes borrow amount and converts back to cToken\n    token.approve(address(address(cToken)), _getAmount);\n    require(cToken.mint(_getAmount) == 0, 'minting error');\n  }\n\n  function repayERC20Borrowed() public {\n    uint256 allowance = token.allowance(msg.sender, address(this));\n    uint256 repayAmount = cToken.borrowBalanceCurrent(address(this));\n\n    if(allowance > repayAmount) {\n      token.transfer(address(this), repayAmount);\n      cToken.repayBorrow(repayAmount);\n    }\n\n    else {\n      token.transfer(address(this), allowance);\n      cToken.repayBorrow(allowance);\n    }\n  }\n\n  function withdrawLoanedERC20(address _tokenGave, address _cTokenGave) public {\n    require(_tokenGave != address(token));\n    require(_cTokenGave != address(cToken));\n\n    uint256 repayAmount = cToken.borrowBalanceCurrent(address(this));\n    require(repayAmount == 0, 'need to repay debt');\n\n    CERC20 cTokenGave = CERC20(_cTokenGave);\n    IERC20 tokenGave = IERC20(_tokenGave);\n    \n    uint256 cTokenBalance = cTokenGave.balanceOf(address(this));\n    require(cTokenGave.redeem(cTokenBalance) == 0, 'redeem error');\n    uint256 tokenBalance = tokenGave.balanceOf(address(this));\n    tokenGave.transfer(sender, tokenBalance);\n  }\n\n  function withdrawLoanedEth(address _cEth) public {\n    uint256 repayAmount = cToken.borrowBalanceCurrent(address(this));\n    require(repayAmount == 0, 'need to repay debt');\n\n    CETH cEther = CETH(_cEth);\n    uint256 cEthBalance = cEther.balanceOf(address(this));\n    require(cEther.redeem(cEthBalance) == 0, 'redeem error');\n    sender.transfer(address(this).balance);\n  }\n  \n  fallback() external payable { } //Needed to recieve ether\n}\n\ncontract CompoundChannelFactory {\n  using ECDSA for bytes32;\n  // State Variables\n  mapping(address => address[]) public senderRegistery;\n  mapping(address => address[]) public recipientRegistery;\n  mapping(address => uint8) public senderCount;\n  mapping(address => uint8) public recipientCount;\n\n  // Signature Information\n  uint256 constant chainId = 42; //Kovan\n  bytes32 constant salt = 0xf2e421f4a3edcb9b1111d503bfe733db1e3f6cdc2b7971ee739626c97e86a558;\n\n  string private constant EIP712_DOMAIN = \"EIP712Domain(string name,string version,uint256 chainId,address verifyingContract,bytes32 salt)\";\n  string private constant PAYMENT_TYPE = \"Payment(uint256 amount,uint8 nonce)\";\n\n  bytes32 private constant EIP712_DOMAIN_TYPEHASH = keccak256(abi.encodePacked(EIP712_DOMAIN));\n  bytes32 private constant PAYMENT_TYPEHASH = keccak256(abi.encodePacked(PAYMENT_TYPE));\n\n  struct Payment {\n    uint256 amount;\n    uint8 nonce;\n  }\n\n  // Events\n  event ChannelCreated(address channelAddress, address sender, address recipient);\n\n  function createErc20Channel(\n    address payable _recipient,\n    uint256 _endTime,\n    address _tokenAddress,\n    address _cTokenAddress\n    ) public returns(bool) {\n\n    // Creates new Channel Contract\n    Erc20Channel compChan = new Erc20Channel(\n      msg.sender,\n      _recipient,\n      _endTime,\n      _tokenAddress,\n      _cTokenAddress,\n      address(this) // Factory Address\n    );\n\n    // Record new channel information\n    senderRegistery[msg.sender].push(address(compChan));\n    recipientRegistery[_recipient].push(address(compChan));\n    senderCount[msg.sender] += 1;\n    recipientCount[_recipient] += 1;\n    emit ChannelCreated(address(compChan), msg.sender, _recipient);\n    return true;\n  }\n  \n  function createEthChannel(\n    address payable _recipient,\n    uint256 _endTime,\n    address _cEthAddress\n    ) public returns(bool) {\n\n    // Creates new Channel Contract\n    EthChannel ethChan = new EthChannel(\n      msg.sender,\n      _recipient,\n      _endTime,\n      _cEthAddress,\n      address(this) // Factory Address\n    );\n\n    // Record new channel information\n    senderRegistery[msg.sender].push(address(ethChan));\n    recipientRegistery[_recipient].push(address(ethChan));\n    senderCount[msg.sender] += 1;\n    recipientCount[_recipient] += 1;\n    emit ChannelCreated(address(ethChan), msg.sender, _recipient);\n    return true;\n  }\n\n  function hashPayment(\n    Payment memory payment,\n    address _channelAddress\n    ) private pure returns (bytes32){\n\n    bytes32 DOMAIN_SEPARATOR = keccak256(abi.encode(\n    EIP712_DOMAIN_TYPEHASH,\n    keccak256(\"Compound Channels\"),\n    keccak256(\"1\"),\n    chainId,\n    _channelAddress, // address of the channel that the message is for\n    salt\n    ));\n\n    return keccak256(abi.encodePacked(\n      \"\\x19\\x01\",\n      DOMAIN_SEPARATOR,\n      keccak256(abi.encode(\n        PAYMENT_TYPEHASH,\n        payment.amount,\n        payment.nonce\n      ))\n    ));\n  }\n\n  function checkSignature(\n    address _sender,\n    address _channelAddress,\n    uint8 _channelNonce,\n    uint256 _amount,\n    bytes memory _signature\n    ) public pure returns (bool) {\n      Payment memory payment = Payment({\n        amount: _amount,\n        nonce: _channelNonce\n      });\n\n      bytes32 hash = hashPayment(payment, _channelAddress);\n      return _sender == hash.recover(_signature);\n  }\n}",
  "sourcePath": "/Users/justsomeguy/Documents/hack-money/compound-channels/src/contracts/CompoundChannelFactory.sol",
  "compiler": {
    "name": "solc",
    "version": "0.6.6+commit.6c089d02.Emscripten.clang"
  },
  "schemaVersion": "3.1.0",
  "updatedAt": "2020-05-12T16:28:47.653Z",
  "devdoc": {
    "methods": {}
  },
  "userdoc": {
    "methods": {}
  }
}