{
  "contractName": "Erc20Channel",
  "abi": [
    {
      "inputs": [
        {
          "internalType": "address",
          "name": "_factoryAddress",
          "type": "address"
        }
      ],
      "stateMutability": "nonpayable",
      "type": "constructor"
    },
    {
      "anonymous": false,
      "inputs": [
        {
          "indexed": false,
          "internalType": "address",
          "name": "depositor",
          "type": "address"
        },
        {
          "indexed": false,
          "internalType": "uint256",
          "name": "amount",
          "type": "uint256"
        },
        {
          "indexed": false,
          "internalType": "address",
          "name": "TokenAddress",
          "type": "address"
        }
      ],
      "name": "FundsDeposited",
      "type": "event"
    },
    {
      "stateMutability": "payable",
      "type": "fallback"
    },
    {
      "inputs": [],
      "name": "cToken",
      "outputs": [
        {
          "internalType": "contract CERC20",
          "name": "",
          "type": "address"
        }
      ],
      "stateMutability": "view",
      "type": "function"
    },
    {
      "inputs": [],
      "name": "channelNonce",
      "outputs": [
        {
          "internalType": "uint8",
          "name": "",
          "type": "uint8"
        }
      ],
      "stateMutability": "view",
      "type": "function"
    },
    {
      "inputs": [],
      "name": "compFactory",
      "outputs": [
        {
          "internalType": "contract CompChannelFactory",
          "name": "",
          "type": "address"
        }
      ],
      "stateMutability": "view",
      "type": "function"
    },
    {
      "inputs": [],
      "name": "endTime",
      "outputs": [
        {
          "internalType": "uint256",
          "name": "",
          "type": "uint256"
        }
      ],
      "stateMutability": "view",
      "type": "function"
    },
    {
      "inputs": [],
      "name": "factoryAddress",
      "outputs": [
        {
          "internalType": "address",
          "name": "",
          "type": "address"
        }
      ],
      "stateMutability": "view",
      "type": "function"
    },
    {
      "inputs": [],
      "name": "recipient",
      "outputs": [
        {
          "internalType": "address payable",
          "name": "",
          "type": "address"
        }
      ],
      "stateMutability": "view",
      "type": "function"
    },
    {
      "inputs": [],
      "name": "sender",
      "outputs": [
        {
          "internalType": "address payable",
          "name": "",
          "type": "address"
        }
      ],
      "stateMutability": "view",
      "type": "function"
    },
    {
      "inputs": [],
      "name": "token",
      "outputs": [
        {
          "internalType": "contract IERC20",
          "name": "",
          "type": "address"
        }
      ],
      "stateMutability": "view",
      "type": "function"
    },
    {
      "inputs": [],
      "name": "underlyingBalance",
      "outputs": [
        {
          "internalType": "uint256",
          "name": "",
          "type": "uint256"
        }
      ],
      "stateMutability": "view",
      "type": "function"
    },
    {
      "inputs": [
        {
          "internalType": "address payable",
          "name": "_sender",
          "type": "address"
        },
        {
          "internalType": "address payable",
          "name": "_recipient",
          "type": "address"
        },
        {
          "internalType": "uint256",
          "name": "_endTime",
          "type": "uint256"
        },
        {
          "internalType": "address",
          "name": "_tokenAddress",
          "type": "address"
        },
        {
          "internalType": "address",
          "name": "_cTokenAddress",
          "type": "address"
        },
        {
          "internalType": "address",
          "name": "_factoryAddress",
          "type": "address"
        }
      ],
      "name": "init",
      "outputs": [
        {
          "internalType": "bool",
          "name": "",
          "type": "bool"
        }
      ],
      "stateMutability": "nonpayable",
      "type": "function"
    },
    {
      "inputs": [
        {
          "internalType": "uint256",
          "name": "_amount",
          "type": "uint256"
        }
      ],
      "name": "depositERC20",
      "outputs": [
        {
          "internalType": "bool",
          "name": "",
          "type": "bool"
        }
      ],
      "stateMutability": "nonpayable",
      "type": "function"
    },
    {
      "inputs": [],
      "name": "forceClose",
      "outputs": [],
      "stateMutability": "nonpayable",
      "type": "function"
    },
    {
      "inputs": [
        {
          "internalType": "uint256",
          "name": "_amount",
          "type": "uint256"
        },
        {
          "internalType": "bytes",
          "name": "_signature",
          "type": "bytes"
        }
      ],
      "name": "close",
      "outputs": [],
      "stateMutability": "nonpayable",
      "type": "function"
    },
    {
      "inputs": [
        {
          "internalType": "address",
          "name": "_tokenGive",
          "type": "address"
        },
        {
          "internalType": "address",
          "name": "_cTokenGive",
          "type": "address"
        },
        {
          "internalType": "uint256",
          "name": "_giveAmount",
          "type": "uint256"
        },
        {
          "internalType": "uint256",
          "name": "_getAmount",
          "type": "uint256"
        },
        {
          "internalType": "address",
          "name": "_compTrollAddress",
          "type": "address"
        }
      ],
      "name": "borrowERC20AgainstERC20",
      "outputs": [],
      "stateMutability": "nonpayable",
      "type": "function"
    },
    {
      "inputs": [
        {
          "internalType": "address",
          "name": "_cEthGive",
          "type": "address"
        },
        {
          "internalType": "uint256",
          "name": "_getAmount",
          "type": "uint256"
        },
        {
          "internalType": "address",
          "name": "_compTrollAddress",
          "type": "address"
        }
      ],
      "name": "borrowERC20AgainstETH",
      "outputs": [],
      "stateMutability": "payable",
      "type": "function"
    },
    {
      "inputs": [],
      "name": "repayERC20Borrowed",
      "outputs": [],
      "stateMutability": "nonpayable",
      "type": "function"
    },
    {
      "inputs": [
        {
          "internalType": "address",
          "name": "_tokenGave",
          "type": "address"
        },
        {
          "internalType": "address",
          "name": "_cTokenGave",
          "type": "address"
        }
      ],
      "name": "withdrawLoanedERC20",
      "outputs": [],
      "stateMutability": "nonpayable",
      "type": "function"
    },
    {
      "inputs": [
        {
          "internalType": "address",
          "name": "_cEth",
          "type": "address"
        }
      ],
      "name": "withdrawLoanedEth",
      "outputs": [],
      "stateMutability": "nonpayable",
      "type": "function"
    }
  ],
  "bytecode": "0x608060405234801561001057600080fd5b50604051613dd2380380613dd28339818101604052602081101561003357600080fd5b810190808051906020019092919050505080600660006101000a81548173ffffffffffffffffffffffffffffffffffffffff021916908373ffffffffffffffffffffffffffffffffffffffff16021790555080600760006101000a81548173ffffffffffffffffffffffffffffffffffffffff021916908373ffffffffffffffffffffffffffffffffffffffff16021790555050613cfc806100d66000396000f3fe60806040526004361061010d5760003560e01c80637fdb655c11610095578063b3ef7a0711610064578063b3ef7a07146105dc578063b79092fd14610633578063d69c496614610686578063f8f222fd146106f7578063fc0c546a146107655761010e565b80637fdb655c14610478578063966dae0e1461048f5780639d1f66ac146104e6578063a90689f5146105375761010e565b806359356c5c116100dc57806359356c5c1461033157806366d003ac1461035c57806367e404ce146103b357806369e527da1461040a57806377678414146104615761010e565b806304e4c475146101105780631220ce42146102035780633197cbb614610234578063415ffba71461025f5761010e565b5b005b34801561011c57600080fd5b506101e9600480360360c081101561013357600080fd5b81019080803573ffffffffffffffffffffffffffffffffffffffff169060200190929190803573ffffffffffffffffffffffffffffffffffffffff16906020019092919080359060200190929190803573ffffffffffffffffffffffffffffffffffffffff169060200190929190803573ffffffffffffffffffffffffffffffffffffffff169060200190929190803573ffffffffffffffffffffffffffffffffffffffff1690602001909291905050506107bc565b604051808215151515815260200191505060405180910390f35b34801561020f57600080fd5b506102186109ee565b604051808260ff1660ff16815260200191505060405180910390f35b34801561024057600080fd5b50610249610a01565b6040518082815260200191505060405180910390f35b34801561026b57600080fd5b5061032f6004803603604081101561028257600080fd5b8101908080359060200190929190803590602001906401000000008111156102a957600080fd5b8201836020820111156102bb57600080fd5b803590602001918460018302840111640100000000831117156102dd57600080fd5b91908080601f016020809104026020016040519081016040528093929190818152602001838380828437600081840152601f19601f820116905080830192505050505050509192919290505050610a07565b005b34801561033d57600080fd5b506103466112ca565b6040518082815260200191505060405180910390f35b34801561036857600080fd5b506103716112d0565b604051808273ffffffffffffffffffffffffffffffffffffffff1673ffffffffffffffffffffffffffffffffffffffff16815260200191505060405180910390f35b3480156103bf57600080fd5b506103c86112f6565b604051808273ffffffffffffffffffffffffffffffffffffffff1673ffffffffffffffffffffffffffffffffffffffff16815260200191505060405180910390f35b34801561041657600080fd5b5061041f61131c565b604051808273ffffffffffffffffffffffffffffffffffffffff1673ffffffffffffffffffffffffffffffffffffffff16815260200191505060405180910390f35b34801561046d57600080fd5b50610476611342565b005b34801561048457600080fd5b5061048d61186f565b005b34801561049b57600080fd5b506104a4611d9f565b604051808273ffffffffffffffffffffffffffffffffffffffff1673ffffffffffffffffffffffffffffffffffffffff16815260200191505060405180910390f35b3480156104f257600080fd5b506105356004803603602081101561050957600080fd5b81019080803573ffffffffffffffffffffffffffffffffffffffff169060200190929190505050611dc5565b005b34801561054357600080fd5b506105da600480360360a081101561055a57600080fd5b81019080803573ffffffffffffffffffffffffffffffffffffffff169060200190929190803573ffffffffffffffffffffffffffffffffffffffff1690602001909291908035906020019092919080359060200190929190803573ffffffffffffffffffffffffffffffffffffffff16906020019092919050505061214e565b005b3480156105e857600080fd5b506105f1612a75565b604051808273ffffffffffffffffffffffffffffffffffffffff1673ffffffffffffffffffffffffffffffffffffffff16815260200191505060405180910390f35b34801561063f57600080fd5b5061066c6004803603602081101561065657600080fd5b8101908080359060200190929190505050612a9b565b604051808215151515815260200191505060405180910390f35b34801561069257600080fd5b506106f5600480360360408110156106a957600080fd5b81019080803573ffffffffffffffffffffffffffffffffffffffff169060200190929190803573ffffffffffffffffffffffffffffffffffffffff169060200190929190505050612f38565b005b6107636004803603606081101561070d57600080fd5b81019080803573ffffffffffffffffffffffffffffffffffffffff16906020019092919080359060200190929190803573ffffffffffffffffffffffffffffffffffffffff1690602001909291905050506134b7565b005b34801561077157600080fd5b5061077a613b0e565b604051808273ffffffffffffffffffffffffffffffffffffffff1673ffffffffffffffffffffffffffffffffffffffff16815260200191505060405180910390f35b6000600660009054906101000a900473ffffffffffffffffffffffffffffffffffffffff1673ffffffffffffffffffffffffffffffffffffffff163373ffffffffffffffffffffffffffffffffffffffff161461081857600080fd5b60001515600760149054906101000a900460ff1615151461083857600080fd5b6001600760146101000a81548160ff02191690831515021790555081600660006101000a81548173ffffffffffffffffffffffffffffffffffffffff021916908373ffffffffffffffffffffffffffffffffffffffff16021790555081600760006101000a81548173ffffffffffffffffffffffffffffffffffffffff021916908373ffffffffffffffffffffffffffffffffffffffff16021790555086600160006101000a81548173ffffffffffffffffffffffffffffffffffffffff021916908373ffffffffffffffffffffffffffffffffffffffff16021790555085600260006101000a81548173ffffffffffffffffffffffffffffffffffffffff021916908373ffffffffffffffffffffffffffffffffffffffff1602179055508460038190555083600460016101000a81548173ffffffffffffffffffffffffffffffffffffffff021916908373ffffffffffffffffffffffffffffffffffffffff16021790555082600560006101000a81548173ffffffffffffffffffffffffffffffffffffffff021916908373ffffffffffffffffffffffffffffffffffffffff160217905550600190509695505050505050565b600460009054906101000a900460ff1681565b60035481565b600260009054906101000a900473ffffffffffffffffffffffffffffffffffffffff1673ffffffffffffffffffffffffffffffffffffffff163373ffffffffffffffffffffffffffffffffffffffff1614610aca576040517f08c379a00000000000000000000000000000000000000000000000000000000081526004018080602001828103825260148152602001807f6e6f6e726563697069656e74206164647265737300000000000000000000000081525060200191505060405180910390fd5b600760009054906101000a900473ffffffffffffffffffffffffffffffffffffffff1673ffffffffffffffffffffffffffffffffffffffff1663dd569f8b600160009054906101000a900473ffffffffffffffffffffffffffffffffffffffff1630600460009054906101000a900460ff1686866040518663ffffffff1660e01b8152600401808673ffffffffffffffffffffffffffffffffffffffff1673ffffffffffffffffffffffffffffffffffffffff1681526020018573ffffffffffffffffffffffffffffffffffffffff1673ffffffffffffffffffffffffffffffffffffffff1681526020018460ff1660ff16815260200183815260200180602001828103825283818151815260200191508051906020019080838360005b83811015610c03578082015181840152602081019050610be8565b50505050905090810190601f168015610c305780820380516001836020036101000a031916815260200191505b509650505050505050602060405180830381600087803b158015610c5357600080fd5b505af1158015610c67573d6000803e3d6000fd5b505050506040513d6020811015610c7d57600080fd5b8101908080519060200190929190505050610d00576040517f08c379a00000000000000000000000000000000000000000000000000000000081526004018080602001828103825260118152602001807f696e76616c6964207369676e617475726500000000000000000000000000000081525060200191505060405180910390fd5b6001600460008282829054906101000a900460ff160192506101000a81548160ff021916908360ff160217905550600080819055506000600560009054906101000a900473ffffffffffffffffffffffffffffffffffffffff1673ffffffffffffffffffffffffffffffffffffffff166370a08231306040518263ffffffff1660e01b8152600401808273ffffffffffffffffffffffffffffffffffffffff1673ffffffffffffffffffffffffffffffffffffffff16815260200191505060206040518083038186803b158015610dd657600080fd5b505afa158015610dea573d6000803e3d6000fd5b505050506040513d6020811015610e0057600080fd5b810190808051906020019092919050505090506000600560009054906101000a900473ffffffffffffffffffffffffffffffffffffffff1673ffffffffffffffffffffffffffffffffffffffff1663db006a75836040518263ffffffff1660e01b815260040180828152602001915050602060405180830381600087803b158015610e8a57600080fd5b505af1158015610e9e573d6000803e3d6000fd5b505050506040513d6020811015610eb457600080fd5b810190808051906020019092919050505014610f38576040517f08c379a000000000000000000000000000000000000000000000000000000000815260040180806020018281038252600c8152602001807f72656465656d206572726f72000000000000000000000000000000000000000081525060200191505060405180910390fd5b6000600460019054906101000a900473ffffffffffffffffffffffffffffffffffffffff1673ffffffffffffffffffffffffffffffffffffffff166370a08231306040518263ffffffff1660e01b8152600401808273ffffffffffffffffffffffffffffffffffffffff1673ffffffffffffffffffffffffffffffffffffffff16815260200191505060206040518083038186803b158015610fd957600080fd5b505afa158015610fed573d6000803e3d6000fd5b505050506040513d602081101561100357600080fd5b8101908080519060200190929190505050905060008482106110255784611027565b815b9050600460019054906101000a900473ffffffffffffffffffffffffffffffffffffffff1673ffffffffffffffffffffffffffffffffffffffff1663a9059cbb600260009054906101000a900473ffffffffffffffffffffffffffffffffffffffff16836040518363ffffffff1660e01b8152600401808373ffffffffffffffffffffffffffffffffffffffff1673ffffffffffffffffffffffffffffffffffffffff16815260200182815260200192505050602060405180830381600087803b1580156110f457600080fd5b505af1158015611108573d6000803e3d6000fd5b505050506040513d602081101561111e57600080fd5b81019080805190602001909291905050506111a1576040517f08c379a000000000000000000000000000000000000000000000000000000000815260040180806020018281038252600e8152602001807f7472616e73666572206572726f7200000000000000000000000000000000000081525060200191505060405180910390fd5b818110156112c357600460019054906101000a900473ffffffffffffffffffffffffffffffffffffffff1673ffffffffffffffffffffffffffffffffffffffff1663a9059cbb600160009054906101000a900473ffffffffffffffffffffffffffffffffffffffff1661121d8486613b3490919063ffffffff16565b6040518363ffffffff1660e01b8152600401808373ffffffffffffffffffffffffffffffffffffffff1673ffffffffffffffffffffffffffffffffffffffff16815260200182815260200192505050602060405180830381600087803b15801561128657600080fd5b505af115801561129a573d6000803e3d6000fd5b505050506040513d60208110156112b057600080fd5b8101908080519060200190929190505050505b5050505050565b60005481565b600260009054906101000a900473ffffffffffffffffffffffffffffffffffffffff1681565b600160009054906101000a900473ffffffffffffffffffffffffffffffffffffffff1681565b600560009054906101000a900473ffffffffffffffffffffffffffffffffffffffff1681565b60035442116113b9576040517f08c379a00000000000000000000000000000000000000000000000000000000081526004018080602001828103825260128152602001807f746f6f206561726c7920746f20636c6f7365000000000000000000000000000081525060200191505060405180910390fd5b600160009054906101000a900473ffffffffffffffffffffffffffffffffffffffff1673ffffffffffffffffffffffffffffffffffffffff163373ffffffffffffffffffffffffffffffffffffffff161461147c576040517f08c379a00000000000000000000000000000000000000000000000000000000081526004018080602001828103825260118152602001807f6e6f6e73656e646572206164647265737300000000000000000000000000000081525060200191505060405180910390fd5b600080819055506000600560009054906101000a900473ffffffffffffffffffffffffffffffffffffffff1673ffffffffffffffffffffffffffffffffffffffff166370a08231306040518263ffffffff1660e01b8152600401808273ffffffffffffffffffffffffffffffffffffffff1673ffffffffffffffffffffffffffffffffffffffff16815260200191505060206040518083038186803b15801561152457600080fd5b505afa158015611538573d6000803e3d6000fd5b505050506040513d602081101561154e57600080fd5b810190808051906020019092919050505090506000600560009054906101000a900473ffffffffffffffffffffffffffffffffffffffff1673ffffffffffffffffffffffffffffffffffffffff1663db006a75836040518263ffffffff1660e01b815260040180828152602001915050602060405180830381600087803b1580156115d857600080fd5b505af11580156115ec573d6000803e3d6000fd5b505050506040513d602081101561160257600080fd5b810190808051906020019092919050505014611686576040517f08c379a000000000000000000000000000000000000000000000000000000000815260040180806020018281038252600c8152602001807f72656465656d206572726f72000000000000000000000000000000000000000081525060200191505060405180910390fd5b6000600460019054906101000a900473ffffffffffffffffffffffffffffffffffffffff1673ffffffffffffffffffffffffffffffffffffffff166370a08231306040518263ffffffff1660e01b8152600401808273ffffffffffffffffffffffffffffffffffffffff1673ffffffffffffffffffffffffffffffffffffffff16815260200191505060206040518083038186803b15801561172757600080fd5b505afa15801561173b573d6000803e3d6000fd5b505050506040513d602081101561175157600080fd5b81019080805190602001909291905050509050600460019054906101000a900473ffffffffffffffffffffffffffffffffffffffff1673ffffffffffffffffffffffffffffffffffffffff1663a9059cbb600160009054906101000a900473ffffffffffffffffffffffffffffffffffffffff16836040518363ffffffff1660e01b8152600401808373ffffffffffffffffffffffffffffffffffffffff1673ffffffffffffffffffffffffffffffffffffffff16815260200182815260200192505050602060405180830381600087803b15801561182f57600080fd5b505af1158015611843573d6000803e3d6000fd5b505050506040513d602081101561185957600080fd5b8101908080519060200190929190505050505050565b6000600460019054906101000a900473ffffffffffffffffffffffffffffffffffffffff1673ffffffffffffffffffffffffffffffffffffffff1663dd62ed3e33306040518363ffffffff1660e01b8152600401808373ffffffffffffffffffffffffffffffffffffffff1673ffffffffffffffffffffffffffffffffffffffff1681526020018273ffffffffffffffffffffffffffffffffffffffff1673ffffffffffffffffffffffffffffffffffffffff1681526020019250505060206040518083038186803b15801561194457600080fd5b505afa158015611958573d6000803e3d6000fd5b505050506040513d602081101561196e57600080fd5b810190808051906020019092919050505090506000600560009054906101000a900473ffffffffffffffffffffffffffffffffffffffff1673ffffffffffffffffffffffffffffffffffffffff166317bfdfbc306040518263ffffffff1660e01b8152600401808273ffffffffffffffffffffffffffffffffffffffff1673ffffffffffffffffffffffffffffffffffffffff168152602001915050602060405180830381600087803b158015611a2457600080fd5b505af1158015611a38573d6000803e3d6000fd5b505050506040513d6020811015611a4e57600080fd5b8101908080519060200190929190505050905080821115611c0457600460019054906101000a900473ffffffffffffffffffffffffffffffffffffffff1673ffffffffffffffffffffffffffffffffffffffff1663a9059cbb30836040518363ffffffff1660e01b8152600401808373ffffffffffffffffffffffffffffffffffffffff1673ffffffffffffffffffffffffffffffffffffffff16815260200182815260200192505050602060405180830381600087803b158015611b1257600080fd5b505af1158015611b26573d6000803e3d6000fd5b505050506040513d6020811015611b3c57600080fd5b810190808051906020019092919050505050600560009054906101000a900473ffffffffffffffffffffffffffffffffffffffff1673ffffffffffffffffffffffffffffffffffffffff16630e752702826040518263ffffffff1660e01b815260040180828152602001915050602060405180830381600087803b158015611bc357600080fd5b505af1158015611bd7573d6000803e3d6000fd5b505050506040513d6020811015611bed57600080fd5b810190808051906020019092919050505050611d9b565b600460019054906101000a900473ffffffffffffffffffffffffffffffffffffffff1673ffffffffffffffffffffffffffffffffffffffff1663a9059cbb30846040518363ffffffff1660e01b8152600401808373ffffffffffffffffffffffffffffffffffffffff1673ffffffffffffffffffffffffffffffffffffffff16815260200182815260200192505050602060405180830381600087803b158015611cad57600080fd5b505af1158015611cc1573d6000803e3d6000fd5b505050506040513d6020811015611cd757600080fd5b810190808051906020019092919050505050600560009054906101000a900473ffffffffffffffffffffffffffffffffffffffff1673ffffffffffffffffffffffffffffffffffffffff16630e752702836040518263ffffffff1660e01b815260040180828152602001915050602060405180830381600087803b158015611d5e57600080fd5b505af1158015611d72573d6000803e3d6000fd5b505050506040513d6020811015611d8857600080fd5b8101908080519060200190929190505050505b5050565b600660009054906101000a900473ffffffffffffffffffffffffffffffffffffffff1681565b6000600560009054906101000a900473ffffffffffffffffffffffffffffffffffffffff1673ffffffffffffffffffffffffffffffffffffffff166317bfdfbc306040518263ffffffff1660e01b8152600401808273ffffffffffffffffffffffffffffffffffffffff1673ffffffffffffffffffffffffffffffffffffffff168152602001915050602060405180830381600087803b158015611e6857600080fd5b505af1158015611e7c573d6000803e3d6000fd5b505050506040513d6020811015611e9257600080fd5b8101908080519060200190929190505050905060008114611f1b576040517f08c379a00000000000000000000000000000000000000000000000000000000081526004018080602001828103825260128152602001807f6e65656420746f2072657061792064656274000000000000000000000000000081525060200191505060405180910390fd5b600082905060008173ffffffffffffffffffffffffffffffffffffffff166370a08231306040518263ffffffff1660e01b8152600401808273ffffffffffffffffffffffffffffffffffffffff1673ffffffffffffffffffffffffffffffffffffffff16815260200191505060206040518083038186803b158015611f9f57600080fd5b505afa158015611fb3573d6000803e3d6000fd5b505050506040513d6020811015611fc957600080fd5b8101908080519060200190929190505050905060008273ffffffffffffffffffffffffffffffffffffffff1663db006a75836040518263ffffffff1660e01b815260040180828152602001915050602060405180830381600087803b15801561203157600080fd5b505af1158015612045573d6000803e3d6000fd5b505050506040513d602081101561205b57600080fd5b8101908080519060200190929190505050146120df576040517f08c379a000000000000000000000000000000000000000000000000000000000815260040180806020018281038252600c8152602001807f72656465656d206572726f72000000000000000000000000000000000000000081525060200191505060405180910390fd5b600160009054906101000a900473ffffffffffffffffffffffffffffffffffffffff1673ffffffffffffffffffffffffffffffffffffffff166108fc479081150290604051600060405180830381858888f19350505050158015612147573d6000803e3d6000fd5b5050505050565b8373ffffffffffffffffffffffffffffffffffffffff16600560009054906101000a900473ffffffffffffffffffffffffffffffffffffffff1673ffffffffffffffffffffffffffffffffffffffff1614156121a957600080fd5b6000859050600085905060008390508273ffffffffffffffffffffffffffffffffffffffff166323b872dd3330896040518463ffffffff1660e01b8152600401808473ffffffffffffffffffffffffffffffffffffffff1673ffffffffffffffffffffffffffffffffffffffff1681526020018373ffffffffffffffffffffffffffffffffffffffff1673ffffffffffffffffffffffffffffffffffffffff1681526020018281526020019350505050602060405180830381600087803b15801561227357600080fd5b505af1158015612287573d6000803e3d6000fd5b505050506040513d602081101561229d57600080fd5b8101908080519060200190929190505050508273ffffffffffffffffffffffffffffffffffffffff1663095ea7b388886040518363ffffffff1660e01b8152600401808373ffffffffffffffffffffffffffffffffffffffff1673ffffffffffffffffffffffffffffffffffffffff16815260200182815260200192505050602060405180830381600087803b15801561233657600080fd5b505af115801561234a573d6000803e3d6000fd5b505050506040513d602081101561236057600080fd5b81019080805190602001909291905050506123e3576040517f08c379a000000000000000000000000000000000000000000000000000000000815260040180806020018281038252600e8152602001807f617070726f76616c206572726f7200000000000000000000000000000000000081525060200191505060405180910390fd5b60008273ffffffffffffffffffffffffffffffffffffffff1663a0712d68886040518263ffffffff1660e01b815260040180828152602001915050602060405180830381600087803b15801561243857600080fd5b505af115801561244c573d6000803e3d6000fd5b505050506040513d602081101561246257600080fd5b8101908080519060200190929190505050146124e6576040517f08c379a000000000000000000000000000000000000000000000000000000000815260040180806020018281038252600d8152602001807f6d696e74696e67206572726f720000000000000000000000000000000000000081525060200191505060405180910390fd5b6060600167ffffffffffffffff8111801561250057600080fd5b5060405190808252806020026020018201604052801561252f5781602001602082028036833780820191505090505b509050878160008151811061254057fe5b602002602001019073ffffffffffffffffffffffffffffffffffffffff16908173ffffffffffffffffffffffffffffffffffffffff168152505060608273ffffffffffffffffffffffffffffffffffffffff1663c2998238836040518263ffffffff1660e01b81526004018080602001828103825283818151815260200191508051906020019060200280838360005b838110156125eb5780820151818401526020810190506125d0565b5050505090500192505050600060405180830381600087803b15801561261057600080fd5b505af1158015612624573d6000803e3d6000fd5b505050506040513d6000823e3d601f19601f82011682018060405250602081101561264e57600080fd5b810190808051604051939291908464010000000082111561266e57600080fd5b8382019150602082018581111561268457600080fd5b82518660208202830111640100000000821117156126a157600080fd5b8083526020830192505050908051906020019060200280838360005b838110156126d85780820151818401526020810190506126bd565b5050505090500160405250505090506000816000815181106126f657fe5b602002602001015114612771576040517f08c379a00000000000000000000000000000000000000000000000000000000081526004018080602001828103825260208152602001807f436f6d7074726f6c6c65722e656e7465724d61726b657473206661696c65642e81525060200191505060405180910390fd5b600560009054906101000a900473ffffffffffffffffffffffffffffffffffffffff1673ffffffffffffffffffffffffffffffffffffffff1663c5ebeaec886040518263ffffffff1660e01b815260040180828152602001915050602060405180830381600087803b1580156127e657600080fd5b505af11580156127fa573d6000803e3d6000fd5b505050506040513d602081101561281057600080fd5b81019080805190602001909291905050505061283787600054613b7e90919063ffffffff16565b600081905550600460019054906101000a900473ffffffffffffffffffffffffffffffffffffffff1673ffffffffffffffffffffffffffffffffffffffff1663095ea7b3600560009054906101000a900473ffffffffffffffffffffffffffffffffffffffff16896040518363ffffffff1660e01b8152600401808373ffffffffffffffffffffffffffffffffffffffff1673ffffffffffffffffffffffffffffffffffffffff16815260200182815260200192505050602060405180830381600087803b15801561290857600080fd5b505af115801561291c573d6000803e3d6000fd5b505050506040513d602081101561293257600080fd5b8101908080519060200190929190505050506000600560009054906101000a900473ffffffffffffffffffffffffffffffffffffffff1673ffffffffffffffffffffffffffffffffffffffff1663a0712d68896040518263ffffffff1660e01b815260040180828152602001915050602060405180830381600087803b1580156129bb57600080fd5b505af11580156129cf573d6000803e3d6000fd5b505050506040513d60208110156129e557600080fd5b810190808051906020019092919050505014612a69576040517f08c379a000000000000000000000000000000000000000000000000000000000815260040180806020018281038252600d8152602001807f6d696e74696e67206572726f720000000000000000000000000000000000000081525060200191505060405180910390fd5b50505050505050505050565b600760009054906101000a900473ffffffffffffffffffffffffffffffffffffffff1681565b6000600460019054906101000a900473ffffffffffffffffffffffffffffffffffffffff1673ffffffffffffffffffffffffffffffffffffffff166323b872dd3330856040518463ffffffff1660e01b8152600401808473ffffffffffffffffffffffffffffffffffffffff1673ffffffffffffffffffffffffffffffffffffffff1681526020018373ffffffffffffffffffffffffffffffffffffffff1673ffffffffffffffffffffffffffffffffffffffff1681526020018281526020019350505050602060405180830381600087803b158015612b7a57600080fd5b505af1158015612b8e573d6000803e3d6000fd5b505050506040513d6020811015612ba457600080fd5b810190808051906020019092919050505050612bcb82600054613b7e90919063ffffffff16565b600081905550600460019054906101000a900473ffffffffffffffffffffffffffffffffffffffff1673ffffffffffffffffffffffffffffffffffffffff1663095ea7b3600560009054906101000a900473ffffffffffffffffffffffffffffffffffffffff16846040518363ffffffff1660e01b8152600401808373ffffffffffffffffffffffffffffffffffffffff1673ffffffffffffffffffffffffffffffffffffffff16815260200182815260200192505050602060405180830381600087803b158015612c9c57600080fd5b505af1158015612cb0573d6000803e3d6000fd5b505050506040513d6020811015612cc657600080fd5b8101908080519060200190929190505050612d49576040517f08c379a000000000000000000000000000000000000000000000000000000000815260040180806020018281038252600e8152602001807f617070726f76616c206572726f7200000000000000000000000000000000000081525060200191505060405180910390fd5b6000600560009054906101000a900473ffffffffffffffffffffffffffffffffffffffff1673ffffffffffffffffffffffffffffffffffffffff1663a0712d68846040518263ffffffff1660e01b815260040180828152602001915050602060405180830381600087803b158015612dc057600080fd5b505af1158015612dd4573d6000803e3d6000fd5b505050506040513d6020811015612dea57600080fd5b810190808051906020019092919050505014612e6e576040517f08c379a000000000000000000000000000000000000000000000000000000000815260040180806020018281038252600d8152602001807f6d696e74696e67206572726f720000000000000000000000000000000000000081525060200191505060405180910390fd5b7fdf4dcf17030d087ed1d90ed3c90719c7260706c1c4a88505dd2d0a982887cf433383600460019054906101000a900473ffffffffffffffffffffffffffffffffffffffff16604051808473ffffffffffffffffffffffffffffffffffffffff1673ffffffffffffffffffffffffffffffffffffffff1681526020018381526020018273ffffffffffffffffffffffffffffffffffffffff1673ffffffffffffffffffffffffffffffffffffffff168152602001935050505060405180910390a160019050919050565b600460019054906101000a900473ffffffffffffffffffffffffffffffffffffffff1673ffffffffffffffffffffffffffffffffffffffff168273ffffffffffffffffffffffffffffffffffffffff161415612f9357600080fd5b600560009054906101000a900473ffffffffffffffffffffffffffffffffffffffff1673ffffffffffffffffffffffffffffffffffffffff168173ffffffffffffffffffffffffffffffffffffffff161415612fee57600080fd5b6000600560009054906101000a900473ffffffffffffffffffffffffffffffffffffffff1673ffffffffffffffffffffffffffffffffffffffff166317bfdfbc306040518263ffffffff1660e01b8152600401808273ffffffffffffffffffffffffffffffffffffffff1673ffffffffffffffffffffffffffffffffffffffff168152602001915050602060405180830381600087803b15801561309157600080fd5b505af11580156130a5573d6000803e3d6000fd5b505050506040513d60208110156130bb57600080fd5b8101908080519060200190929190505050905060008114613144576040517f08c379a00000000000000000000000000000000000000000000000000000000081526004018080602001828103825260128152602001807f6e65656420746f2072657061792064656274000000000000000000000000000081525060200191505060405180910390fd5b6000829050600084905060008273ffffffffffffffffffffffffffffffffffffffff166370a08231306040518263ffffffff1660e01b8152600401808273ffffffffffffffffffffffffffffffffffffffff1673ffffffffffffffffffffffffffffffffffffffff16815260200191505060206040518083038186803b1580156131cd57600080fd5b505afa1580156131e1573d6000803e3d6000fd5b505050506040513d60208110156131f757600080fd5b8101908080519060200190929190505050905060008373ffffffffffffffffffffffffffffffffffffffff1663db006a75836040518263ffffffff1660e01b815260040180828152602001915050602060405180830381600087803b15801561325f57600080fd5b505af1158015613273573d6000803e3d6000fd5b505050506040513d602081101561328957600080fd5b81019080805190602001909291905050501461330d576040517f08c379a000000000000000000000000000000000000000000000000000000000815260040180806020018281038252600c8152602001807f72656465656d206572726f72000000000000000000000000000000000000000081525060200191505060405180910390fd5b60008273ffffffffffffffffffffffffffffffffffffffff166370a08231306040518263ffffffff1660e01b8152600401808273ffffffffffffffffffffffffffffffffffffffff1673ffffffffffffffffffffffffffffffffffffffff16815260200191505060206040518083038186803b15801561338c57600080fd5b505afa1580156133a0573d6000803e3d6000fd5b505050506040513d60208110156133b657600080fd5b810190808051906020019092919050505090508273ffffffffffffffffffffffffffffffffffffffff1663a9059cbb600160009054906101000a900473ffffffffffffffffffffffffffffffffffffffff16836040518363ffffffff1660e01b8152600401808373ffffffffffffffffffffffffffffffffffffffff1673ffffffffffffffffffffffffffffffffffffffff16815260200182815260200192505050602060405180830381600087803b15801561347257600080fd5b505af1158015613486573d6000803e3d6000fd5b505050506040513d602081101561349c57600080fd5b81019080805190602001909291905050505050505050505050565b8273ffffffffffffffffffffffffffffffffffffffff16600560009054906101000a900473ffffffffffffffffffffffffffffffffffffffff1673ffffffffffffffffffffffffffffffffffffffff16141561351257600080fd5b600083905060008290508173ffffffffffffffffffffffffffffffffffffffff16631249c58b6203d090346040518363ffffffff1660e01b81526004016000604051808303818589803b15801561356857600080fd5b5088f115801561357c573d6000803e3d6000fd5b5050505050506060600167ffffffffffffffff8111801561359c57600080fd5b506040519080825280602002602001820160405280156135cb5781602001602082028036833780820191505090505b50905085816000815181106135dc57fe5b602002602001019073ffffffffffffffffffffffffffffffffffffffff16908173ffffffffffffffffffffffffffffffffffffffff168152505060608273ffffffffffffffffffffffffffffffffffffffff1663c2998238836040518263ffffffff1660e01b81526004018080602001828103825283818151815260200191508051906020019060200280838360005b8381101561368757808201518184015260208101905061366c565b5050505090500192505050600060405180830381600087803b1580156136ac57600080fd5b505af11580156136c0573d6000803e3d6000fd5b505050506040513d6000823e3d601f19601f8201168201806040525060208110156136ea57600080fd5b810190808051604051939291908464010000000082111561370a57600080fd5b8382019150602082018581111561372057600080fd5b825186602082028301116401000000008211171561373d57600080fd5b8083526020830192505050908051906020019060200280838360005b83811015613774578082015181840152602081019050613759565b50505050905001604052505050905060008160008151811061379257fe5b60200260200101511461380d576040517f08c379a00000000000000000000000000000000000000000000000000000000081526004018080602001828103825260208152602001807f436f6d7074726f6c6c65722e656e7465724d61726b657473206661696c65642e81525060200191505060405180910390fd5b600560009054906101000a900473ffffffffffffffffffffffffffffffffffffffff1673ffffffffffffffffffffffffffffffffffffffff1663c5ebeaec876040518263ffffffff1660e01b815260040180828152602001915050602060405180830381600087803b15801561388257600080fd5b505af1158015613896573d6000803e3d6000fd5b505050506040513d60208110156138ac57600080fd5b8101908080519060200190929190505050506138d386600054613b7e90919063ffffffff16565b600081905550600460019054906101000a900473ffffffffffffffffffffffffffffffffffffffff1673ffffffffffffffffffffffffffffffffffffffff1663095ea7b3600560009054906101000a900473ffffffffffffffffffffffffffffffffffffffff16886040518363ffffffff1660e01b8152600401808373ffffffffffffffffffffffffffffffffffffffff1673ffffffffffffffffffffffffffffffffffffffff16815260200182815260200192505050602060405180830381600087803b1580156139a457600080fd5b505af11580156139b8573d6000803e3d6000fd5b505050506040513d60208110156139ce57600080fd5b8101908080519060200190929190505050506000600560009054906101000a900473ffffffffffffffffffffffffffffffffffffffff1673ffffffffffffffffffffffffffffffffffffffff1663a0712d68886040518263ffffffff1660e01b815260040180828152602001915050602060405180830381600087803b158015613a5757600080fd5b505af1158015613a6b573d6000803e3d6000fd5b505050506040513d6020811015613a8157600080fd5b810190808051906020019092919050505014613b05576040517f08c379a000000000000000000000000000000000000000000000000000000000815260040180806020018281038252600d8152602001807f6d696e74696e67206572726f720000000000000000000000000000000000000081525060200191505060405180910390fd5b50505050505050565b600460019054906101000a900473ffffffffffffffffffffffffffffffffffffffff1681565b6000613b7683836040518060400160405280601e81526020017f536166654d6174683a207375627472616374696f6e206f766572666c6f770000815250613c06565b905092915050565b600080828401905083811015613bfc576040517f08c379a000000000000000000000000000000000000000000000000000000000815260040180806020018281038252601b8152602001807f536166654d6174683a206164646974696f6e206f766572666c6f77000000000081525060200191505060405180910390fd5b8091505092915050565b6000838311158290613cb3576040517f08c379a00000000000000000000000000000000000000000000000000000000081526004018080602001828103825283818151815260200191508051906020019080838360005b83811015613c78578082015181840152602081019050613c5d565b50505050905090810190601f168015613ca55780820380516001836020036101000a031916815260200191505b509250505060405180910390fd5b506000838503905080915050939250505056fea2646970667358221220f8a8ff1054b82cc679f0df37d45387a4d36955498d0aa38bc59e693be78a665b64736f6c63430006060033",
  "immutableReferences": {},
  "source": "pragma solidity ^0.6.0;\n\nimport \"@openzeppelin/contracts/token/ERC20/IERC20.sol\";\nimport \"@openzeppelin/contracts/cryptography/ECDSA.sol\";\nimport \"@openzeppelin/contracts/math/SafeMath.sol\";\n\ninterface CompChannelFactory {\n  function checkSignature(address, address, uint8, uint256, bytes calldata) external returns (bool);\n}\n\ninterface CERC20 {\n  function mint(uint256) external returns (uint256);\n  function redeem(uint256) external returns (uint256);\n  function balanceOf(address) external view returns (uint256);\n  function borrow(uint256) external returns (uint256);\n  function borrowBalanceCurrent(address account) external returns (uint);\n  function repayBorrow(uint repayAmount) external returns (uint);\n}\n\ninterface CETH {\n  function mint() external payable;\n  function exchangeRateCurrent() external returns (uint256);\n  function supplyRatePerBlock() external returns (uint256);\n  function redeem(uint256) external returns (uint256);\n  function redeemUnderlying(uint256) external returns (uint256);\n  function balanceOf(address) external view returns (uint256);\n  function borrow(uint256) external returns (uint256);\n  function borrowBalanceCurrent(address account) external returns (uint);\n  function repayBorrow() external payable;\n}\n\ninterface Comptroller {\n  function markets(address) external returns (bool, uint256);\n  function enterMarkets(address[] calldata) external returns (uint256[] memory);\n  function getAccountLiquidity(address) external view returns (uint256, uint256, uint256);\n}\n\ncontract Erc20Channel {\n  using SafeMath for uint256;\n//  State Variables\n  uint256 public underlyingBalance; // underlying asset balance\n  address payable public sender;\n  address payable public recipient;\n  uint256 public endTime;\n  uint8 public channelNonce;\n  IERC20 public token;\n  CERC20 public cToken;\n  address public factoryAddress;\n  CompChannelFactory public compFactory;\n  bool initialized;\n\n//   Events\n    // Need to add events\n  event FundsDeposited(address depositor, uint256 amount, address TokenAddress);\n  // event ChannelForceClosed();\n  // event ChannelClose();\n  // event FundsBorrowed();\n  \n  constructor(\n     address _factoryAddress\n     ) public {\n        factoryAddress = _factoryAddress;\n        compFactory = CompChannelFactory(_factoryAddress);\n   }\n   \n  function init(\n    address payable _sender,\n    address payable _recipient,\n    uint256 _endTime,\n    address _tokenAddress,\n    address _cTokenAddress,\n    address _factoryAddress\n  ) public returns(bool) {\n    require(msg.sender == factoryAddress);\n    require(initialized == false);\n    initialized = true;\n\n    factoryAddress = _factoryAddress;\n    compFactory = CompChannelFactory(_factoryAddress);\n    sender = _sender;\n    recipient = _recipient;\n    endTime = _endTime;\n    token = IERC20(_tokenAddress); // zero address if underlying is Ether \n    cToken = CERC20(_cTokenAddress);\n\n    return true; \n  }\n\n  function depositERC20(uint256 _amount) public returns(bool) {\n    token.transferFrom(msg.sender, address(this), _amount);\n    underlyingBalance = underlyingBalance.add(_amount); // update underlying asset balance\n    require(token.approve(address(cToken), _amount), 'approval error');\n    require(cToken.mint(_amount) == 0, 'minting error');\n\n    emit FundsDeposited(msg.sender, _amount, address(token));\n    return true;\n  }\n\n  function forceClose() public {\n    require(now > endTime, 'too early to close');\n    require(msg.sender == sender, 'nonsender address');\n    underlyingBalance = 0;\n    \n    uint256 cTokenBalance = cToken.balanceOf(address(this));\n    require(cToken.redeem(cTokenBalance) == 0, \"redeem error\");\n    uint256 balance = token.balanceOf(address(this));\n    token.transfer(sender, balance);\n  }\n\n  function close(\n    uint256 _amount,\n    bytes memory _signature\n  ) public {\n    require(msg.sender == recipient, 'nonrecipient address');\n\n    require(compFactory.checkSignature(\n      sender,\n      address(this),\n      channelNonce,\n      _amount,\n      _signature\n    ), 'invalid signature');\n\n    channelNonce += 1;\n    underlyingBalance = 0;\n    // Redeem Tokens\n    uint256 cTokenBalance = cToken.balanceOf(address(this));\n    require(cToken.redeem(cTokenBalance) == 0, \"redeem error\");\n\n    uint256 balance = token.balanceOf(address(this));\n    uint256 toRecipient = balance < _amount ? balance : _amount;\n    require(token.transfer(recipient, toRecipient), \"transfer error\");\n    if (toRecipient < balance) token.transfer(sender, balance.sub(toRecipient));\n  }\n\n  function borrowERC20AgainstERC20(\n    address _tokenGive, \n    address _cTokenGive, \n    uint256 _giveAmount,\n    uint256 _getAmount,\n    address _compTrollAddress\n    ) public {\n    // Prevents from entering the market of the channel asset\n    require(address(cToken) != _cTokenGive);\n\n    // Contract Instances\n    IERC20 tokenGive = IERC20(_tokenGive);\n    CERC20 cTokenGive = CERC20(_cTokenGive);\n    Comptroller comptroller = Comptroller(_compTrollAddress);\n\n    // Move allowance to channel\n    tokenGive.transferFrom(msg.sender, address(this), _giveAmount);\n\n    // Supply Colateral for borrow\n    require(tokenGive.approve(_cTokenGive, _giveAmount), 'approval error');\n    require(cTokenGive.mint(_giveAmount) == 0, 'minting error');\n\n    // Enter the market\n    address[] memory cTokens = new address[](1);\n    cTokens[0] = _cTokenGive;\n    uint256[] memory errors = comptroller.enterMarkets(cTokens);\n    if (errors[0] != 0) {\n      revert(\"Comptroller.enterMarkets failed.\");\n    }\n    cToken.borrow(_getAmount);\n    underlyingBalance = underlyingBalance.add(_getAmount); // update underlying asset balance\n    // Takes borrow amount and converts back to cToken\n    token.approve(address(cToken), _getAmount);\n    require(cToken.mint(_getAmount) == 0, 'minting error');\n  }\n\n  function borrowERC20AgainstETH(\n    address _cEthGive, \n    uint256 _getAmount,\n    address _compTrollAddress\n    ) public payable {\n    require(address(cToken) != _cEthGive);\n\n    // Contract Instances\n    CETH cEthGive = CETH(_cEthGive);\n    Comptroller comptroller = Comptroller(_compTrollAddress);\n    \n    // Supply Colateral for borrow\n    cEthGive.mint{gas: 250000, value: msg.value}(); //0.6.0 syntax\n\n    // Enter the market\n    address[] memory cTokens = new address[](1);\n    cTokens[0] = _cEthGive;\n    uint256[] memory errors = comptroller.enterMarkets(cTokens);\n    if (errors[0] != 0) {\n      revert(\"Comptroller.enterMarkets failed.\");\n    }\n    cToken.borrow(_getAmount);\n    underlyingBalance = underlyingBalance.add(_getAmount); // update underlying asset balance\n    // Takes borrow amount and converts back to cToken\n    token.approve(address(address(cToken)), _getAmount);\n    require(cToken.mint(_getAmount) == 0, 'minting error');\n  }\n\n  function repayERC20Borrowed() public {\n    uint256 allowance = token.allowance(msg.sender, address(this));\n    uint256 repayAmount = cToken.borrowBalanceCurrent(address(this));\n\n    if(allowance > repayAmount) {\n      token.transfer(address(this), repayAmount);\n      cToken.repayBorrow(repayAmount);\n    }\n\n    else {\n      token.transfer(address(this), allowance);\n      cToken.repayBorrow(allowance);\n    }\n  }\n\n  function withdrawLoanedERC20(address _tokenGave, address _cTokenGave) public {\n    require(_tokenGave != address(token));\n    require(_cTokenGave != address(cToken));\n\n    uint256 repayAmount = cToken.borrowBalanceCurrent(address(this));\n    require(repayAmount == 0, 'need to repay debt');\n\n    CERC20 cTokenGave = CERC20(_cTokenGave);\n    IERC20 tokenGave = IERC20(_tokenGave);\n    \n    uint256 cTokenBalance = cTokenGave.balanceOf(address(this));\n    require(cTokenGave.redeem(cTokenBalance) == 0, 'redeem error');\n    uint256 tokenBalance = tokenGave.balanceOf(address(this));\n    tokenGave.transfer(sender, tokenBalance);\n  }\n\n  function withdrawLoanedEth(address _cEth) public {\n    uint256 repayAmount = cToken.borrowBalanceCurrent(address(this));\n    require(repayAmount == 0, 'need to repay debt');\n\n    CETH cEther = CETH(_cEth);\n    uint256 cEthBalance = cEther.balanceOf(address(this));\n    require(cEther.redeem(cEthBalance) == 0, 'redeem error');\n    sender.transfer(address(this).balance);\n  }\n  \n  fallback() external payable { } //Needed to recieve ether\n}\n",
  "sourcePath": "/Users/justsomeguy/Documents/hack-money/compound-channels/src/contracts/Erc20Channel.sol",
  "compiler": {
    "name": "solc",
    "version": "0.6.6+commit.6c089d02.Emscripten.clang"
  },
  "schemaVersion": "3.1.0",
  "updatedAt": "2020-05-12T23:08:23.671Z",
  "devdoc": {
    "methods": {}
  },
  "userdoc": {
    "methods": {}
  }
}