{
  "contractName": "Erc20Channel",
  "abi": [
    {
      "anonymous": false,
      "inputs": [
        {
          "indexed": false,
          "internalType": "uint256",
          "name": "repayAmount",
          "type": "uint256"
        },
        {
          "indexed": false,
          "internalType": "address",
          "name": "tokenAddress",
          "type": "address"
        }
      ],
      "name": "BorrowedFundsRepaid",
      "type": "event"
    },
    {
      "anonymous": false,
      "inputs": [
        {
          "indexed": false,
          "internalType": "uint256",
          "name": "senderAmount",
          "type": "uint256"
        },
        {
          "indexed": false,
          "internalType": "uint256",
          "name": "recipientAmount",
          "type": "uint256"
        },
        {
          "indexed": false,
          "internalType": "uint256",
          "name": "closedTime",
          "type": "uint256"
        }
      ],
      "name": "ChannelClosed",
      "type": "event"
    },
    {
      "anonymous": false,
      "inputs": [
        {
          "indexed": false,
          "internalType": "uint256",
          "name": "senderAmount",
          "type": "uint256"
        },
        {
          "indexed": false,
          "internalType": "uint256",
          "name": "closedTime",
          "type": "uint256"
        }
      ],
      "name": "ChannelForceClosed",
      "type": "event"
    },
    {
      "anonymous": false,
      "inputs": [
        {
          "indexed": false,
          "internalType": "uint256",
          "name": "newTime",
          "type": "uint256"
        }
      ],
      "name": "EndTimeExtended",
      "type": "event"
    },
    {
      "anonymous": false,
      "inputs": [
        {
          "indexed": false,
          "internalType": "address",
          "name": "tokenGive",
          "type": "address"
        },
        {
          "indexed": false,
          "internalType": "uint256",
          "name": "giveAmount",
          "type": "uint256"
        },
        {
          "indexed": false,
          "internalType": "address",
          "name": "tokenBorrowed",
          "type": "address"
        },
        {
          "indexed": false,
          "internalType": "uint256",
          "name": "borrowAmount",
          "type": "uint256"
        }
      ],
      "name": "FundsBorrowedAgainstERC20",
      "type": "event"
    },
    {
      "anonymous": false,
      "inputs": [
        {
          "indexed": false,
          "internalType": "uint256",
          "name": "giveAmount",
          "type": "uint256"
        },
        {
          "indexed": false,
          "internalType": "address",
          "name": "tokenBorrowed",
          "type": "address"
        },
        {
          "indexed": false,
          "internalType": "uint256",
          "name": "borrowAmount",
          "type": "uint256"
        }
      ],
      "name": "FundsBorrowedAgainstEth",
      "type": "event"
    },
    {
      "anonymous": false,
      "inputs": [
        {
          "indexed": false,
          "internalType": "address",
          "name": "depositor",
          "type": "address"
        },
        {
          "indexed": false,
          "internalType": "uint256",
          "name": "amount",
          "type": "uint256"
        },
        {
          "indexed": false,
          "internalType": "address",
          "name": "tokenAddress",
          "type": "address"
        }
      ],
      "name": "FundsDeposited",
      "type": "event"
    },
    {
      "anonymous": false,
      "inputs": [
        {
          "indexed": false,
          "internalType": "address",
          "name": "tokenAddress",
          "type": "address"
        },
        {
          "indexed": false,
          "internalType": "uint256",
          "name": "withdrawAmount",
          "type": "uint256"
        }
      ],
      "name": "LoanedERC20Withdrawn",
      "type": "event"
    },
    {
      "anonymous": false,
      "inputs": [
        {
          "indexed": false,
          "internalType": "uint256",
          "name": "withdrawAmount",
          "type": "uint256"
        }
      ],
      "name": "LoanedEthWithdrawn",
      "type": "event"
    },
    {
      "stateMutability": "payable",
      "type": "fallback"
    },
    {
      "inputs": [],
      "name": "cToken",
      "outputs": [
        {
          "internalType": "contract CERC20",
          "name": "",
          "type": "address"
        }
      ],
      "stateMutability": "view",
      "type": "function"
    },
    {
      "inputs": [],
      "name": "channelNonce",
      "outputs": [
        {
          "internalType": "uint8",
          "name": "",
          "type": "uint8"
        }
      ],
      "stateMutability": "view",
      "type": "function"
    },
    {
      "inputs": [],
      "name": "endTime",
      "outputs": [
        {
          "internalType": "uint256",
          "name": "",
          "type": "uint256"
        }
      ],
      "stateMutability": "view",
      "type": "function"
    },
    {
      "inputs": [],
      "name": "factoryAddress",
      "outputs": [
        {
          "internalType": "address",
          "name": "",
          "type": "address"
        }
      ],
      "stateMutability": "view",
      "type": "function"
    },
    {
      "inputs": [],
      "name": "recipient",
      "outputs": [
        {
          "internalType": "address payable",
          "name": "",
          "type": "address"
        }
      ],
      "stateMutability": "view",
      "type": "function"
    },
    {
      "inputs": [],
      "name": "sender",
      "outputs": [
        {
          "internalType": "address payable",
          "name": "",
          "type": "address"
        }
      ],
      "stateMutability": "view",
      "type": "function"
    },
    {
      "inputs": [],
      "name": "token",
      "outputs": [
        {
          "internalType": "contract IERC20",
          "name": "",
          "type": "address"
        }
      ],
      "stateMutability": "view",
      "type": "function"
    },
    {
      "inputs": [],
      "name": "underlyingBalance",
      "outputs": [
        {
          "internalType": "uint256",
          "name": "",
          "type": "uint256"
        }
      ],
      "stateMutability": "view",
      "type": "function"
    },
    {
      "inputs": [
        {
          "internalType": "address payable",
          "name": "_sender",
          "type": "address"
        },
        {
          "internalType": "address payable",
          "name": "_recipient",
          "type": "address"
        },
        {
          "internalType": "uint256",
          "name": "_endTime",
          "type": "uint256"
        },
        {
          "internalType": "address",
          "name": "_tokenAddress",
          "type": "address"
        },
        {
          "internalType": "address",
          "name": "_cTokenAddress",
          "type": "address"
        },
        {
          "internalType": "address",
          "name": "_factoryAddress",
          "type": "address"
        }
      ],
      "name": "init",
      "outputs": [
        {
          "internalType": "bool",
          "name": "",
          "type": "bool"
        }
      ],
      "stateMutability": "nonpayable",
      "type": "function"
    },
    {
      "inputs": [
        {
          "internalType": "uint256",
          "name": "_amount",
          "type": "uint256"
        }
      ],
      "name": "depositERC20",
      "outputs": [
        {
          "internalType": "bool",
          "name": "",
          "type": "bool"
        }
      ],
      "stateMutability": "nonpayable",
      "type": "function"
    },
    {
      "inputs": [],
      "name": "forceClose",
      "outputs": [],
      "stateMutability": "nonpayable",
      "type": "function"
    },
    {
      "inputs": [
        {
          "internalType": "uint256",
          "name": "_amount",
          "type": "uint256"
        },
        {
          "internalType": "bytes",
          "name": "_signature",
          "type": "bytes"
        }
      ],
      "name": "close",
      "outputs": [],
      "stateMutability": "nonpayable",
      "type": "function"
    },
    {
      "inputs": [
        {
          "internalType": "address",
          "name": "_tokenGive",
          "type": "address"
        },
        {
          "internalType": "address",
          "name": "_cTokenGive",
          "type": "address"
        },
        {
          "internalType": "uint256",
          "name": "_giveAmount",
          "type": "uint256"
        },
        {
          "internalType": "uint256",
          "name": "_getAmount",
          "type": "uint256"
        }
      ],
      "name": "borrowERC20AgainstERC20",
      "outputs": [],
      "stateMutability": "nonpayable",
      "type": "function"
    },
    {
      "inputs": [
        {
          "internalType": "address",
          "name": "_cEth",
          "type": "address"
        },
        {
          "internalType": "uint256",
          "name": "_getAmount",
          "type": "uint256"
        }
      ],
      "name": "borrowERC20AgainstETH",
      "outputs": [],
      "stateMutability": "payable",
      "type": "function"
    },
    {
      "inputs": [],
      "name": "repayERC20Borrowed",
      "outputs": [],
      "stateMutability": "nonpayable",
      "type": "function"
    },
    {
      "inputs": [
        {
          "internalType": "address",
          "name": "_tokenGave",
          "type": "address"
        },
        {
          "internalType": "address",
          "name": "_cTokenGave",
          "type": "address"
        }
      ],
      "name": "withdrawLoanedERC20",
      "outputs": [],
      "stateMutability": "nonpayable",
      "type": "function"
    },
    {
      "inputs": [
        {
          "internalType": "address",
          "name": "_cEth",
          "type": "address"
        }
      ],
      "name": "withdrawLoanedEth",
      "outputs": [],
      "stateMutability": "nonpayable",
      "type": "function"
    },
    {
      "inputs": [
        {
          "internalType": "uint256",
          "name": "_newTime",
          "type": "uint256"
        }
      ],
      "name": "extendEndTime",
      "outputs": [],
      "stateMutability": "nonpayable",
      "type": "function"
    }
  ],
  "bytecode": "0x608060405234801561001057600080fd5b5061467c806100206000396000f3fe60806040526004361061010d5760003560e01c806377678414116100955780639d1f66ac116100645780639d1f66ac146105a6578063b79092fd146105f7578063d69c49661461064a578063efbf0445146106bb578063fc0c546a146107095761010e565b806377678414146104e65780637fdb655c146104fd57806388770cb014610514578063966dae0e1461054f5761010e565b8063415ffba7116100dc578063415ffba7146102e457806359356c5c146103b657806366d003ac146103e157806367e404ce1461043857806369e527da1461048f5761010e565b806304e4c47514610110578063119f1e44146102035780631220ce42146102885780633197cbb6146102b95761010e565b5b005b34801561011c57600080fd5b506101e9600480360360c081101561013357600080fd5b81019080803573ffffffffffffffffffffffffffffffffffffffff169060200190929190803573ffffffffffffffffffffffffffffffffffffffff16906020019092919080359060200190929190803573ffffffffffffffffffffffffffffffffffffffff169060200190929190803573ffffffffffffffffffffffffffffffffffffffff169060200190929190803573ffffffffffffffffffffffffffffffffffffffff169060200190929190505050610760565b604051808215151515815260200191505060405180910390f35b34801561020f57600080fd5b506102866004803603608081101561022657600080fd5b81019080803573ffffffffffffffffffffffffffffffffffffffff169060200190929190803573ffffffffffffffffffffffffffffffffffffffff169060200190929190803590602001909291908035906020019092919050505061095f565b005b34801561029457600080fd5b5061029d611362565b604051808260ff1660ff16815260200191505060405180910390f35b3480156102c557600080fd5b506102ce611375565b6040518082815260200191505060405180910390f35b3480156102f057600080fd5b506103b46004803603604081101561030757600080fd5b81019080803590602001909291908035906020019064010000000081111561032e57600080fd5b82018360208201111561034057600080fd5b8035906020019184600183028401116401000000008311171561036257600080fd5b91908080601f016020809104026020016040519081016040528093929190818152602001838380828437600081840152601f19601f82011690508083019250505050505050919291929050505061137b565b005b3480156103c257600080fd5b506103cb611cde565b6040518082815260200191505060405180910390f35b3480156103ed57600080fd5b506103f6611ce4565b604051808273ffffffffffffffffffffffffffffffffffffffff1673ffffffffffffffffffffffffffffffffffffffff16815260200191505060405180910390f35b34801561044457600080fd5b5061044d611d0a565b604051808273ffffffffffffffffffffffffffffffffffffffff1673ffffffffffffffffffffffffffffffffffffffff16815260200191505060405180910390f35b34801561049b57600080fd5b506104a4611d30565b604051808273ffffffffffffffffffffffffffffffffffffffff1673ffffffffffffffffffffffffffffffffffffffff16815260200191505060405180910390f35b3480156104f257600080fd5b506104fb611d56565b005b34801561050957600080fd5b506105126122f0565b005b34801561052057600080fd5b5061054d6004803603602081101561053757600080fd5b8101908080359060200190929190505050612c98565b005b34801561055b57600080fd5b50610564612e13565b604051808273ffffffffffffffffffffffffffffffffffffffff1673ffffffffffffffffffffffffffffffffffffffff16815260200191505060405180910390f35b3480156105b257600080fd5b506105f5600480360360208110156105c957600080fd5b81019080803573ffffffffffffffffffffffffffffffffffffffff169060200190929190505050612e39565b005b34801561060357600080fd5b506106306004803603602081101561061a57600080fd5b81019080803590602001909291905050506132ae565b604051808215151515815260200191505060405180910390f35b34801561065657600080fd5b506106b96004803603604081101561066d57600080fd5b81019080803573ffffffffffffffffffffffffffffffffffffffff169060200190929190803573ffffffffffffffffffffffffffffffffffffffff16906020019092919050505061374b565b005b610707600480360360408110156106d157600080fd5b81019080803573ffffffffffffffffffffffffffffffffffffffff16906020019092919080359060200190929190505050613d8f565b005b34801561071557600080fd5b5061071e61448e565b604051808273ffffffffffffffffffffffffffffffffffffffff1673ffffffffffffffffffffffffffffffffffffffff16815260200191505060405180910390f35b6000801515600660149054906101000a900460ff161515146107ea576040517f08c379a00000000000000000000000000000000000000000000000000000000081526004018080602001828103825260138152602001807f616c726561647920696e697469616c697a65640000000000000000000000000081525060200191505060405180910390fd5b6001600660146101000a81548160ff02191690831515021790555081600660006101000a81548173ffffffffffffffffffffffffffffffffffffffff021916908373ffffffffffffffffffffffffffffffffffffffff16021790555086600160006101000a81548173ffffffffffffffffffffffffffffffffffffffff021916908373ffffffffffffffffffffffffffffffffffffffff16021790555085600260006101000a81548173ffffffffffffffffffffffffffffffffffffffff021916908373ffffffffffffffffffffffffffffffffffffffff1602179055508460038190555083600460016101000a81548173ffffffffffffffffffffffffffffffffffffffff021916908373ffffffffffffffffffffffffffffffffffffffff16021790555082600560006101000a81548173ffffffffffffffffffffffffffffffffffffffff021916908373ffffffffffffffffffffffffffffffffffffffff160217905550600190509695505050505050565b8273ffffffffffffffffffffffffffffffffffffffff16600560009054906101000a900473ffffffffffffffffffffffffffffffffffffffff1673ffffffffffffffffffffffffffffffffffffffff1614156109ba57600080fd5b60008490506000849050600073e03718b458a2e912141cf3fc8dab648362ee746390508273ffffffffffffffffffffffffffffffffffffffff166323b872dd3330886040518463ffffffff1660e01b8152600401808473ffffffffffffffffffffffffffffffffffffffff1673ffffffffffffffffffffffffffffffffffffffff1681526020018373ffffffffffffffffffffffffffffffffffffffff1673ffffffffffffffffffffffffffffffffffffffff1681526020018281526020019350505050602060405180830381600087803b158015610a9857600080fd5b505af1158015610aac573d6000803e3d6000fd5b505050506040513d6020811015610ac257600080fd5b8101908080519060200190929190505050508273ffffffffffffffffffffffffffffffffffffffff1663095ea7b387876040518363ffffffff1660e01b8152600401808373ffffffffffffffffffffffffffffffffffffffff1673ffffffffffffffffffffffffffffffffffffffff16815260200182815260200192505050602060405180830381600087803b158015610b5b57600080fd5b505af1158015610b6f573d6000803e3d6000fd5b505050506040513d6020811015610b8557600080fd5b8101908080519060200190929190505050610c08576040517f08c379a000000000000000000000000000000000000000000000000000000000815260040180806020018281038252600e8152602001807f617070726f76616c206572726f7200000000000000000000000000000000000081525060200191505060405180910390fd5b60008273ffffffffffffffffffffffffffffffffffffffff1663a0712d68876040518263ffffffff1660e01b815260040180828152602001915050602060405180830381600087803b158015610c5d57600080fd5b505af1158015610c71573d6000803e3d6000fd5b505050506040513d6020811015610c8757600080fd5b810190808051906020019092919050505014610d0b576040517f08c379a000000000000000000000000000000000000000000000000000000000815260040180806020018281038252600d8152602001807f6d696e74696e67206572726f720000000000000000000000000000000000000081525060200191505060405180910390fd5b6060600167ffffffffffffffff81118015610d2557600080fd5b50604051908082528060200260200182016040528015610d545781602001602082028036833780820191505090505b5090508681600081518110610d6557fe5b602002602001019073ffffffffffffffffffffffffffffffffffffffff16908173ffffffffffffffffffffffffffffffffffffffff168152505060608273ffffffffffffffffffffffffffffffffffffffff1663c2998238836040518263ffffffff1660e01b81526004018080602001828103825283818151815260200191508051906020019060200280838360005b83811015610e10578082015181840152602081019050610df5565b5050505090500192505050600060405180830381600087803b158015610e3557600080fd5b505af1158015610e49573d6000803e3d6000fd5b505050506040513d6000823e3d601f19601f820116820180604052506020811015610e7357600080fd5b8101908080516040519392919084640100000000821115610e9357600080fd5b83820191506020820185811115610ea957600080fd5b8251866020820283011164010000000082111715610ec657600080fd5b8083526020830192505050908051906020019060200280838360005b83811015610efd578082015181840152602081019050610ee2565b505050509050016040525050509050600081600081518110610f1b57fe5b602002602001015114610f96576040517f08c379a00000000000000000000000000000000000000000000000000000000081526004018080602001828103825260208152602001807f436f6d7074726f6c6c65722e656e7465724d61726b657473206661696c65642e81525060200191505060405180910390fd5b600560009054906101000a900473ffffffffffffffffffffffffffffffffffffffff1673ffffffffffffffffffffffffffffffffffffffff1663c5ebeaec876040518263ffffffff1660e01b815260040180828152602001915050602060405180830381600087803b15801561100b57600080fd5b505af115801561101f573d6000803e3d6000fd5b505050506040513d602081101561103557600080fd5b81019080805190602001909291905050505061105c866000546144b490919063ffffffff16565b600081905550600460019054906101000a900473ffffffffffffffffffffffffffffffffffffffff1673ffffffffffffffffffffffffffffffffffffffff1663095ea7b3600560009054906101000a900473ffffffffffffffffffffffffffffffffffffffff16886040518363ffffffff1660e01b8152600401808373ffffffffffffffffffffffffffffffffffffffff1673ffffffffffffffffffffffffffffffffffffffff16815260200182815260200192505050602060405180830381600087803b15801561112d57600080fd5b505af1158015611141573d6000803e3d6000fd5b505050506040513d602081101561115757600080fd5b8101908080519060200190929190505050506000600560009054906101000a900473ffffffffffffffffffffffffffffffffffffffff1673ffffffffffffffffffffffffffffffffffffffff1663a0712d68886040518263ffffffff1660e01b815260040180828152602001915050602060405180830381600087803b1580156111e057600080fd5b505af11580156111f4573d6000803e3d6000fd5b505050506040513d602081101561120a57600080fd5b81019080805190602001909291905050501461128e576040517f08c379a000000000000000000000000000000000000000000000000000000000815260040180806020018281038252600d8152602001807f6d696e74696e67206572726f720000000000000000000000000000000000000081525060200191505060405180910390fd5b7f81743433b602f88093c1451a96874b51a41cc00568e99186c24da797db091c708988600460019054906101000a900473ffffffffffffffffffffffffffffffffffffffff1689604051808573ffffffffffffffffffffffffffffffffffffffff1673ffffffffffffffffffffffffffffffffffffffff1681526020018481526020018373ffffffffffffffffffffffffffffffffffffffff1673ffffffffffffffffffffffffffffffffffffffff16815260200182815260200194505050505060405180910390a1505050505050505050565b600460009054906101000a900460ff1681565b60035481565b600260009054906101000a900473ffffffffffffffffffffffffffffffffffffffff1673ffffffffffffffffffffffffffffffffffffffff163373ffffffffffffffffffffffffffffffffffffffff161461143e576040517f08c379a00000000000000000000000000000000000000000000000000000000081526004018080602001828103825260148152602001807f6e6f6e726563697069656e74206164647265737300000000000000000000000081525060200191505060405180910390fd5b6000600660009054906101000a900473ffffffffffffffffffffffffffffffffffffffff1690508073ffffffffffffffffffffffffffffffffffffffff1663dd569f8b600160009054906101000a900473ffffffffffffffffffffffffffffffffffffffff1630600460009054906101000a900460ff1687876040518663ffffffff1660e01b8152600401808673ffffffffffffffffffffffffffffffffffffffff1673ffffffffffffffffffffffffffffffffffffffff1681526020018573ffffffffffffffffffffffffffffffffffffffff1673ffffffffffffffffffffffffffffffffffffffff1681526020018460ff1660ff16815260200183815260200180602001828103825283818151815260200191508051906020019080838360005b8381101561157c578082015181840152602081019050611561565b50505050905090810190601f1680156115a95780820380516001836020036101000a031916815260200191505b509650505050505050602060405180830381600087803b1580156115cc57600080fd5b505af11580156115e0573d6000803e3d6000fd5b505050506040513d60208110156115f657600080fd5b8101908080519060200190929190505050611679576040517f08c379a00000000000000000000000000000000000000000000000000000000081526004018080602001828103825260118152602001807f696e76616c6964207369676e617475726500000000000000000000000000000081525060200191505060405180910390fd5b6001600460008282829054906101000a900460ff160192506101000a81548160ff021916908360ff160217905550600080819055506000600560009054906101000a900473ffffffffffffffffffffffffffffffffffffffff1673ffffffffffffffffffffffffffffffffffffffff166370a08231306040518263ffffffff1660e01b8152600401808273ffffffffffffffffffffffffffffffffffffffff1673ffffffffffffffffffffffffffffffffffffffff16815260200191505060206040518083038186803b15801561174f57600080fd5b505afa158015611763573d6000803e3d6000fd5b505050506040513d602081101561177957600080fd5b810190808051906020019092919050505090506000600560009054906101000a900473ffffffffffffffffffffffffffffffffffffffff1673ffffffffffffffffffffffffffffffffffffffff1663db006a75836040518263ffffffff1660e01b815260040180828152602001915050602060405180830381600087803b15801561180357600080fd5b505af1158015611817573d6000803e3d6000fd5b505050506040513d602081101561182d57600080fd5b8101908080519060200190929190505050146118b1576040517f08c379a000000000000000000000000000000000000000000000000000000000815260040180806020018281038252600c8152602001807f72656465656d206572726f72000000000000000000000000000000000000000081525060200191505060405180910390fd5b6000600460019054906101000a900473ffffffffffffffffffffffffffffffffffffffff1673ffffffffffffffffffffffffffffffffffffffff166370a08231306040518263ffffffff1660e01b8152600401808273ffffffffffffffffffffffffffffffffffffffff1673ffffffffffffffffffffffffffffffffffffffff16815260200191505060206040518083038186803b15801561195257600080fd5b505afa158015611966573d6000803e3d6000fd5b505050506040513d602081101561197c57600080fd5b81019080805190602001909291905050509050600085821061199e57856119a0565b815b9050600460019054906101000a900473ffffffffffffffffffffffffffffffffffffffff1673ffffffffffffffffffffffffffffffffffffffff1663a9059cbb600260009054906101000a900473ffffffffffffffffffffffffffffffffffffffff16836040518363ffffffff1660e01b8152600401808373ffffffffffffffffffffffffffffffffffffffff1673ffffffffffffffffffffffffffffffffffffffff16815260200182815260200192505050602060405180830381600087803b158015611a6d57600080fd5b505af1158015611a81573d6000803e3d6000fd5b505050506040513d6020811015611a9757600080fd5b8101908080519060200190929190505050611b1a576040517f08c379a000000000000000000000000000000000000000000000000000000000815260040180806020018281038252600e8152602001807f7472616e73666572206572726f7200000000000000000000000000000000000081525060200191505060405180910390fd5b81811015611c8d576000611b37828461453c90919063ffffffff16565b9050600460019054906101000a900473ffffffffffffffffffffffffffffffffffffffff1673ffffffffffffffffffffffffffffffffffffffff1663a9059cbb600160009054906101000a900473ffffffffffffffffffffffffffffffffffffffff16836040518363ffffffff1660e01b8152600401808373ffffffffffffffffffffffffffffffffffffffff1673ffffffffffffffffffffffffffffffffffffffff16815260200182815260200192505050602060405180830381600087803b158015611c0457600080fd5b505af1158015611c18573d6000803e3d6000fd5b505050506040513d6020811015611c2e57600080fd5b8101908080519060200190929190505050507f26f6d077fd1d0e02462503b64a3e68d59be0440af92c91d7b881fab5bdf7811081834260405180848152602001838152602001828152602001935050505060405180910390a150611cd6565b7f26f6d077fd1d0e02462503b64a3e68d59be0440af92c91d7b881fab5bdf781106000824260405180848152602001838152602001828152602001935050505060405180910390a15b505050505050565b60005481565b600260009054906101000a900473ffffffffffffffffffffffffffffffffffffffff1681565b600160009054906101000a900473ffffffffffffffffffffffffffffffffffffffff1681565b600560009054906101000a900473ffffffffffffffffffffffffffffffffffffffff1681565b6003544211611dcd576040517f08c379a00000000000000000000000000000000000000000000000000000000081526004018080602001828103825260128152602001807f746f6f206561726c7920746f20636c6f7365000000000000000000000000000081525060200191505060405180910390fd5b600160009054906101000a900473ffffffffffffffffffffffffffffffffffffffff1673ffffffffffffffffffffffffffffffffffffffff163373ffffffffffffffffffffffffffffffffffffffff1614611e90576040517f08c379a00000000000000000000000000000000000000000000000000000000081526004018080602001828103825260118152602001807f6e6f6e73656e646572206164647265737300000000000000000000000000000081525060200191505060405180910390fd5b600080819055506001600460008282829054906101000a900460ff160192506101000a81548160ff021916908360ff1602179055506000600560009054906101000a900473ffffffffffffffffffffffffffffffffffffffff1673ffffffffffffffffffffffffffffffffffffffff166370a08231306040518263ffffffff1660e01b8152600401808273ffffffffffffffffffffffffffffffffffffffff1673ffffffffffffffffffffffffffffffffffffffff16815260200191505060206040518083038186803b158015611f6657600080fd5b505afa158015611f7a573d6000803e3d6000fd5b505050506040513d6020811015611f9057600080fd5b810190808051906020019092919050505090506000600560009054906101000a900473ffffffffffffffffffffffffffffffffffffffff1673ffffffffffffffffffffffffffffffffffffffff1663db006a75836040518263ffffffff1660e01b815260040180828152602001915050602060405180830381600087803b15801561201a57600080fd5b505af115801561202e573d6000803e3d6000fd5b505050506040513d602081101561204457600080fd5b8101908080519060200190929190505050146120c8576040517f08c379a000000000000000000000000000000000000000000000000000000000815260040180806020018281038252600c8152602001807f72656465656d206572726f72000000000000000000000000000000000000000081525060200191505060405180910390fd5b6000600460019054906101000a900473ffffffffffffffffffffffffffffffffffffffff1673ffffffffffffffffffffffffffffffffffffffff166370a08231306040518263ffffffff1660e01b8152600401808273ffffffffffffffffffffffffffffffffffffffff1673ffffffffffffffffffffffffffffffffffffffff16815260200191505060206040518083038186803b15801561216957600080fd5b505afa15801561217d573d6000803e3d6000fd5b505050506040513d602081101561219357600080fd5b81019080805190602001909291905050509050600460019054906101000a900473ffffffffffffffffffffffffffffffffffffffff1673ffffffffffffffffffffffffffffffffffffffff1663a9059cbb600160009054906101000a900473ffffffffffffffffffffffffffffffffffffffff16836040518363ffffffff1660e01b8152600401808373ffffffffffffffffffffffffffffffffffffffff1673ffffffffffffffffffffffffffffffffffffffff16815260200182815260200192505050602060405180830381600087803b15801561227157600080fd5b505af1158015612285573d6000803e3d6000fd5b505050506040513d602081101561229b57600080fd5b8101908080519060200190929190505050507f485ab7fed10680c9edd6e84fbdfc791fd018adf3d961f274b8c34486110bf93a8142604051808381526020018281526020019250505060405180910390a15050565b6000600460019054906101000a900473ffffffffffffffffffffffffffffffffffffffff1673ffffffffffffffffffffffffffffffffffffffff1663dd62ed3e33306040518363ffffffff1660e01b8152600401808373ffffffffffffffffffffffffffffffffffffffff1673ffffffffffffffffffffffffffffffffffffffff1681526020018273ffffffffffffffffffffffffffffffffffffffff1673ffffffffffffffffffffffffffffffffffffffff1681526020019250505060206040518083038186803b1580156123c557600080fd5b505afa1580156123d9573d6000803e3d6000fd5b505050506040513d60208110156123ef57600080fd5b810190808051906020019092919050505090506000600560009054906101000a900473ffffffffffffffffffffffffffffffffffffffff1673ffffffffffffffffffffffffffffffffffffffff166317bfdfbc306040518263ffffffff1660e01b8152600401808273ffffffffffffffffffffffffffffffffffffffff1673ffffffffffffffffffffffffffffffffffffffff168152602001915050602060405180830381600087803b1580156124a557600080fd5b505af11580156124b9573d6000803e3d6000fd5b505050506040513d60208110156124cf57600080fd5b81019080805190602001909291905050509050808211156128c157600460019054906101000a900473ffffffffffffffffffffffffffffffffffffffff1673ffffffffffffffffffffffffffffffffffffffff166323b872dd3330846040518463ffffffff1660e01b8152600401808473ffffffffffffffffffffffffffffffffffffffff1673ffffffffffffffffffffffffffffffffffffffff1681526020018373ffffffffffffffffffffffffffffffffffffffff1673ffffffffffffffffffffffffffffffffffffffff1681526020018281526020019350505050602060405180830381600087803b1580156125c757600080fd5b505af11580156125db573d6000803e3d6000fd5b505050506040513d60208110156125f157600080fd5b810190808051906020019092919050505050600460019054906101000a900473ffffffffffffffffffffffffffffffffffffffff1673ffffffffffffffffffffffffffffffffffffffff1663095ea7b3600560009054906101000a900473ffffffffffffffffffffffffffffffffffffffff16836040518363ffffffff1660e01b8152600401808373ffffffffffffffffffffffffffffffffffffffff1673ffffffffffffffffffffffffffffffffffffffff16815260200182815260200192505050602060405180830381600087803b1580156126ce57600080fd5b505af11580156126e2573d6000803e3d6000fd5b505050506040513d60208110156126f857600080fd5b8101908080519060200190929190505050506000600560009054906101000a900473ffffffffffffffffffffffffffffffffffffffff1673ffffffffffffffffffffffffffffffffffffffff16630e752702836040518263ffffffff1660e01b815260040180828152602001915050602060405180830381600087803b15801561278157600080fd5b505af1158015612795573d6000803e3d6000fd5b505050506040513d60208110156127ab57600080fd5b81019080805190602001909291905050501461282f576040517f08c379a000000000000000000000000000000000000000000000000000000000815260040180806020018281038252600b8152602001807f7265706179206572726f7200000000000000000000000000000000000000000081525060200191505060405180910390fd5b7f62b6dc35e039ab7257195309d5c57f93d2d60963dd2ba37599e3271cb3c17f2781600460019054906101000a900473ffffffffffffffffffffffffffffffffffffffff16604051808381526020018273ffffffffffffffffffffffffffffffffffffffff1673ffffffffffffffffffffffffffffffffffffffff1681526020019250505060405180910390a1612c94565b600460019054906101000a900473ffffffffffffffffffffffffffffffffffffffff1673ffffffffffffffffffffffffffffffffffffffff166323b872dd3330856040518463ffffffff1660e01b8152600401808473ffffffffffffffffffffffffffffffffffffffff1673ffffffffffffffffffffffffffffffffffffffff1681526020018373ffffffffffffffffffffffffffffffffffffffff1673ffffffffffffffffffffffffffffffffffffffff1681526020018281526020019350505050602060405180830381600087803b15801561299e57600080fd5b505af11580156129b2573d6000803e3d6000fd5b505050506040513d60208110156129c857600080fd5b810190808051906020019092919050505050600460019054906101000a900473ffffffffffffffffffffffffffffffffffffffff1673ffffffffffffffffffffffffffffffffffffffff1663095ea7b3600560009054906101000a900473ffffffffffffffffffffffffffffffffffffffff16846040518363ffffffff1660e01b8152600401808373ffffffffffffffffffffffffffffffffffffffff1673ffffffffffffffffffffffffffffffffffffffff16815260200182815260200192505050602060405180830381600087803b158015612aa557600080fd5b505af1158015612ab9573d6000803e3d6000fd5b505050506040513d6020811015612acf57600080fd5b8101908080519060200190929190505050506000600560009054906101000a900473ffffffffffffffffffffffffffffffffffffffff1673ffffffffffffffffffffffffffffffffffffffff16630e752702846040518263ffffffff1660e01b815260040180828152602001915050602060405180830381600087803b158015612b5857600080fd5b505af1158015612b6c573d6000803e3d6000fd5b505050506040513d6020811015612b8257600080fd5b810190808051906020019092919050505014612c06576040517f08c379a000000000000000000000000000000000000000000000000000000000815260040180806020018281038252600b8152602001807f7265706179206572726f7200000000000000000000000000000000000000000081525060200191505060405180910390fd5b7f62b6dc35e039ab7257195309d5c57f93d2d60963dd2ba37599e3271cb3c17f2782600460019054906101000a900473ffffffffffffffffffffffffffffffffffffffff16604051808381526020018273ffffffffffffffffffffffffffffffffffffffff1673ffffffffffffffffffffffffffffffffffffffff1681526020019250505060405180910390a15b5050565b600160009054906101000a900473ffffffffffffffffffffffffffffffffffffffff1673ffffffffffffffffffffffffffffffffffffffff163373ffffffffffffffffffffffffffffffffffffffff1614612d5b576040517f08c379a00000000000000000000000000000000000000000000000000000000081526004018080602001828103825260118152602001807f6e6f6e73656e646572206164647265737300000000000000000000000000000081525060200191505060405180910390fd5b6003548111612dd2576040517f08c379a000000000000000000000000000000000000000000000000000000000815260040180806020018281038252601d8152602001807f6e657754696d65206e6565647320746f206265203e20656e6454696d6500000081525060200191505060405180910390fd5b806003819055507f596c38936cc80c9f5cd39387dc2b9553f5667864208428ea95416c334f239c92816040518082815260200191505060405180910390a150565b600660009054906101000a900473ffffffffffffffffffffffffffffffffffffffff1681565b600560009054906101000a900473ffffffffffffffffffffffffffffffffffffffff1673ffffffffffffffffffffffffffffffffffffffff168173ffffffffffffffffffffffffffffffffffffffff161415612e9457600080fd5b3373ffffffffffffffffffffffffffffffffffffffff16600160009054906101000a900473ffffffffffffffffffffffffffffffffffffffff1673ffffffffffffffffffffffffffffffffffffffff1614612eee57600080fd5b6000600560009054906101000a900473ffffffffffffffffffffffffffffffffffffffff1673ffffffffffffffffffffffffffffffffffffffff166317bfdfbc306040518263ffffffff1660e01b8152600401808273ffffffffffffffffffffffffffffffffffffffff1673ffffffffffffffffffffffffffffffffffffffff168152602001915050602060405180830381600087803b158015612f9157600080fd5b505af1158015612fa5573d6000803e3d6000fd5b505050506040513d6020811015612fbb57600080fd5b8101908080519060200190929190505050905060008114613044576040517f08c379a00000000000000000000000000000000000000000000000000000000081526004018080602001828103825260128152602001807f6e65656420746f2072657061792064656274000000000000000000000000000081525060200191505060405180910390fd5b600082905060008173ffffffffffffffffffffffffffffffffffffffff166370a08231306040518263ffffffff1660e01b8152600401808273ffffffffffffffffffffffffffffffffffffffff1673ffffffffffffffffffffffffffffffffffffffff16815260200191505060206040518083038186803b1580156130c857600080fd5b505afa1580156130dc573d6000803e3d6000fd5b505050506040513d60208110156130f257600080fd5b8101908080519060200190929190505050905060008273ffffffffffffffffffffffffffffffffffffffff1663db006a75836040518263ffffffff1660e01b815260040180828152602001915050602060405180830381600087803b15801561315a57600080fd5b505af115801561316e573d6000803e3d6000fd5b505050506040513d602081101561318457600080fd5b810190808051906020019092919050505014613208576040517f08c379a000000000000000000000000000000000000000000000000000000000815260040180806020018281038252600c8152602001807f72656465656d206572726f72000000000000000000000000000000000000000081525060200191505060405180910390fd5b600160009054906101000a900473ffffffffffffffffffffffffffffffffffffffff1673ffffffffffffffffffffffffffffffffffffffff166108fc479081150290604051600060405180830381858888f19350505050158015613270573d6000803e3d6000fd5b507f5a43c9110c25177b0f16abc4d9326b0676099d2b6c1859c0c44a899c52b629c9476040518082815260200191505060405180910390a150505050565b6000600460019054906101000a900473ffffffffffffffffffffffffffffffffffffffff1673ffffffffffffffffffffffffffffffffffffffff166323b872dd3330856040518463ffffffff1660e01b8152600401808473ffffffffffffffffffffffffffffffffffffffff1673ffffffffffffffffffffffffffffffffffffffff1681526020018373ffffffffffffffffffffffffffffffffffffffff1673ffffffffffffffffffffffffffffffffffffffff1681526020018281526020019350505050602060405180830381600087803b15801561338d57600080fd5b505af11580156133a1573d6000803e3d6000fd5b505050506040513d60208110156133b757600080fd5b8101908080519060200190929190505050506133de826000546144b490919063ffffffff16565b600081905550600460019054906101000a900473ffffffffffffffffffffffffffffffffffffffff1673ffffffffffffffffffffffffffffffffffffffff1663095ea7b3600560009054906101000a900473ffffffffffffffffffffffffffffffffffffffff16846040518363ffffffff1660e01b8152600401808373ffffffffffffffffffffffffffffffffffffffff1673ffffffffffffffffffffffffffffffffffffffff16815260200182815260200192505050602060405180830381600087803b1580156134af57600080fd5b505af11580156134c3573d6000803e3d6000fd5b505050506040513d60208110156134d957600080fd5b810190808051906020019092919050505061355c576040517f08c379a000000000000000000000000000000000000000000000000000000000815260040180806020018281038252600e8152602001807f617070726f76616c206572726f7200000000000000000000000000000000000081525060200191505060405180910390fd5b6000600560009054906101000a900473ffffffffffffffffffffffffffffffffffffffff1673ffffffffffffffffffffffffffffffffffffffff1663a0712d68846040518263ffffffff1660e01b815260040180828152602001915050602060405180830381600087803b1580156135d357600080fd5b505af11580156135e7573d6000803e3d6000fd5b505050506040513d60208110156135fd57600080fd5b810190808051906020019092919050505014613681576040517f08c379a000000000000000000000000000000000000000000000000000000000815260040180806020018281038252600d8152602001807f6d696e74696e67206572726f720000000000000000000000000000000000000081525060200191505060405180910390fd5b7fdf4dcf17030d087ed1d90ed3c90719c7260706c1c4a88505dd2d0a982887cf433383600460019054906101000a900473ffffffffffffffffffffffffffffffffffffffff16604051808473ffffffffffffffffffffffffffffffffffffffff1673ffffffffffffffffffffffffffffffffffffffff1681526020018381526020018273ffffffffffffffffffffffffffffffffffffffff1673ffffffffffffffffffffffffffffffffffffffff168152602001935050505060405180910390a160019050919050565b600460019054906101000a900473ffffffffffffffffffffffffffffffffffffffff1673ffffffffffffffffffffffffffffffffffffffff168273ffffffffffffffffffffffffffffffffffffffff1614156137a657600080fd5b600560009054906101000a900473ffffffffffffffffffffffffffffffffffffffff1673ffffffffffffffffffffffffffffffffffffffff168173ffffffffffffffffffffffffffffffffffffffff16141561380157600080fd5b3373ffffffffffffffffffffffffffffffffffffffff16600160009054906101000a900473ffffffffffffffffffffffffffffffffffffffff1673ffffffffffffffffffffffffffffffffffffffff161461385b57600080fd5b6000600560009054906101000a900473ffffffffffffffffffffffffffffffffffffffff1673ffffffffffffffffffffffffffffffffffffffff166317bfdfbc306040518263ffffffff1660e01b8152600401808273ffffffffffffffffffffffffffffffffffffffff1673ffffffffffffffffffffffffffffffffffffffff168152602001915050602060405180830381600087803b1580156138fe57600080fd5b505af1158015613912573d6000803e3d6000fd5b505050506040513d602081101561392857600080fd5b81019080805190602001909291905050509050600081146139b1576040517f08c379a00000000000000000000000000000000000000000000000000000000081526004018080602001828103825260128152602001807f6e65656420746f2072657061792064656274000000000000000000000000000081525060200191505060405180910390fd5b6000829050600084905060008273ffffffffffffffffffffffffffffffffffffffff166370a08231306040518263ffffffff1660e01b8152600401808273ffffffffffffffffffffffffffffffffffffffff1673ffffffffffffffffffffffffffffffffffffffff16815260200191505060206040518083038186803b158015613a3a57600080fd5b505afa158015613a4e573d6000803e3d6000fd5b505050506040513d6020811015613a6457600080fd5b8101908080519060200190929190505050905060008373ffffffffffffffffffffffffffffffffffffffff1663db006a75836040518263ffffffff1660e01b815260040180828152602001915050602060405180830381600087803b158015613acc57600080fd5b505af1158015613ae0573d6000803e3d6000fd5b505050506040513d6020811015613af657600080fd5b810190808051906020019092919050505014613b7a576040517f08c379a000000000000000000000000000000000000000000000000000000000815260040180806020018281038252600c8152602001807f72656465656d206572726f72000000000000000000000000000000000000000081525060200191505060405180910390fd5b60008273ffffffffffffffffffffffffffffffffffffffff166370a08231306040518263ffffffff1660e01b8152600401808273ffffffffffffffffffffffffffffffffffffffff1673ffffffffffffffffffffffffffffffffffffffff16815260200191505060206040518083038186803b158015613bf957600080fd5b505afa158015613c0d573d6000803e3d6000fd5b505050506040513d6020811015613c2357600080fd5b810190808051906020019092919050505090508273ffffffffffffffffffffffffffffffffffffffff1663a9059cbb600160009054906101000a900473ffffffffffffffffffffffffffffffffffffffff16836040518363ffffffff1660e01b8152600401808373ffffffffffffffffffffffffffffffffffffffff1673ffffffffffffffffffffffffffffffffffffffff16815260200182815260200192505050602060405180830381600087803b158015613cdf57600080fd5b505af1158015613cf3573d6000803e3d6000fd5b505050506040513d6020811015613d0957600080fd5b8101908080519060200190929190505050507fb351bfea8918821257d5f21ea5fa60898bf5ab6d9de5be133460652887c6ca048782604051808373ffffffffffffffffffffffffffffffffffffffff1673ffffffffffffffffffffffffffffffffffffffff1681526020018281526020019250505060405180910390a150505050505050565b8173ffffffffffffffffffffffffffffffffffffffff16600560009054906101000a900473ffffffffffffffffffffffffffffffffffffffff1673ffffffffffffffffffffffffffffffffffffffff161415613dea57600080fd5b6000829050600073e03718b458a2e912141cf3fc8dab648362ee746390508173ffffffffffffffffffffffffffffffffffffffff16631249c58b6203d090346040518363ffffffff1660e01b81526004016000604051808303818589803b158015613e5457600080fd5b5088f1158015613e68573d6000803e3d6000fd5b5050505050506060600167ffffffffffffffff81118015613e8857600080fd5b50604051908082528060200260200182016040528015613eb75781602001602082028036833780820191505090505b5090508481600081518110613ec857fe5b602002602001019073ffffffffffffffffffffffffffffffffffffffff16908173ffffffffffffffffffffffffffffffffffffffff168152505060608273ffffffffffffffffffffffffffffffffffffffff1663c2998238836040518263ffffffff1660e01b81526004018080602001828103825283818151815260200191508051906020019060200280838360005b83811015613f73578082015181840152602081019050613f58565b5050505090500192505050600060405180830381600087803b158015613f9857600080fd5b505af1158015613fac573d6000803e3d6000fd5b505050506040513d6000823e3d601f19601f820116820180604052506020811015613fd657600080fd5b8101908080516040519392919084640100000000821115613ff657600080fd5b8382019150602082018581111561400c57600080fd5b825186602082028301116401000000008211171561402957600080fd5b8083526020830192505050908051906020019060200280838360005b83811015614060578082015181840152602081019050614045565b50505050905001604052505050905060008160008151811061407e57fe5b6020026020010151146140f9576040517f08c379a00000000000000000000000000000000000000000000000000000000081526004018080602001828103825260208152602001807f436f6d7074726f6c6c65722e656e7465724d61726b657473206661696c65642e81525060200191505060405180910390fd5b600560009054906101000a900473ffffffffffffffffffffffffffffffffffffffff1673ffffffffffffffffffffffffffffffffffffffff1663c5ebeaec866040518263ffffffff1660e01b815260040180828152602001915050602060405180830381600087803b15801561416e57600080fd5b505af1158015614182573d6000803e3d6000fd5b505050506040513d602081101561419857600080fd5b8101908080519060200190929190505050506141bf856000546144b490919063ffffffff16565b600081905550600460019054906101000a900473ffffffffffffffffffffffffffffffffffffffff1673ffffffffffffffffffffffffffffffffffffffff1663095ea7b3600560009054906101000a900473ffffffffffffffffffffffffffffffffffffffff16876040518363ffffffff1660e01b8152600401808373ffffffffffffffffffffffffffffffffffffffff1673ffffffffffffffffffffffffffffffffffffffff16815260200182815260200192505050602060405180830381600087803b15801561429057600080fd5b505af11580156142a4573d6000803e3d6000fd5b505050506040513d60208110156142ba57600080fd5b8101908080519060200190929190505050506000600560009054906101000a900473ffffffffffffffffffffffffffffffffffffffff1673ffffffffffffffffffffffffffffffffffffffff1663a0712d68876040518263ffffffff1660e01b815260040180828152602001915050602060405180830381600087803b15801561434357600080fd5b505af1158015614357573d6000803e3d6000fd5b505050506040513d602081101561436d57600080fd5b8101908080519060200190929190505050146143f1576040517f08c379a000000000000000000000000000000000000000000000000000000000815260040180806020018281038252600d8152602001807f6d696e74696e67206572726f720000000000000000000000000000000000000081525060200191505060405180910390fd5b7fca8fdcef63abf7bf268376b5ef99a94180913f303621a2137549bb61aa6414c334600460019054906101000a900473ffffffffffffffffffffffffffffffffffffffff1687604051808481526020018373ffffffffffffffffffffffffffffffffffffffff1673ffffffffffffffffffffffffffffffffffffffff168152602001828152602001935050505060405180910390a1505050505050565b600460019054906101000a900473ffffffffffffffffffffffffffffffffffffffff1681565b600080828401905083811015614532576040517f08c379a000000000000000000000000000000000000000000000000000000000815260040180806020018281038252601b8152602001807f536166654d6174683a206164646974696f6e206f766572666c6f77000000000081525060200191505060405180910390fd5b8091505092915050565b600061457e83836040518060400160405280601e81526020017f536166654d6174683a207375627472616374696f6e206f766572666c6f770000815250614586565b905092915050565b6000838311158290614633576040517f08c379a00000000000000000000000000000000000000000000000000000000081526004018080602001828103825283818151815260200191508051906020019080838360005b838110156145f85780820151818401526020810190506145dd565b50505050905090810190601f1680156146255780820380516001836020036101000a031916815260200191505b509250505060405180910390fd5b506000838503905080915050939250505056fea26469706673582212206030e408b6513d463e3a79d22194e70ce3f1e8b7c537c5c7b27e14807767dfc664736f6c63430006060033",
  "immutableReferences": {},
  "source": "pragma solidity 0.6.6;\n\nimport \"@openzeppelin/contracts/token/ERC20/IERC20.sol\";\nimport \"@openzeppelin/contracts/cryptography/ECDSA.sol\";\nimport \"@openzeppelin/contracts/math/SafeMath.sol\";\n\ninterface CompChannelFactory {\n  function checkSignature(address, address, uint8, uint256, bytes calldata) external returns (bool);\n}\n\ninterface CERC20 {\n  function mint(uint256) external returns (uint256);\n  function redeem(uint256) external returns (uint256);\n  function balanceOf(address) external view returns (uint256);\n  function borrow(uint256) external returns (uint256);\n  function borrowBalanceCurrent(address) external returns (uint256);\n  function repayBorrow(uint256) external returns (uint256);\n}\n\ninterface CETH {\n  function mint() external payable;\n  function exchangeRateCurrent() external returns (uint256);\n  function supplyRatePerBlock() external returns (uint256);\n  function redeem(uint256) external returns (uint256);\n  function redeemUnderlying(uint256) external returns (uint256);\n  function balanceOf(address) external view returns (uint256);\n  function borrow(uint256) external returns (uint256);\n  function borrowBalanceCurrent(address) external returns (uint256);\n  function repayBorrow() external payable;\n}\n\ninterface Comptroller {\n  function markets(address) external returns (bool, uint256);\n  function enterMarkets(address[] calldata) external returns (uint256[] memory);\n  function getAccountLiquidity(address) external view returns (uint256, uint256, uint256);\n}\n\ncontract Erc20Channel {\n  using SafeMath for uint256;\n\n/* ============ State variables ============ */\n  uint256 public underlyingBalance; // underlying asset balance\n  address payable public sender;\n  address payable public recipient;\n  uint256 public endTime;\n  uint8 public channelNonce;\n  IERC20 public token;\n  CERC20 public cToken;\n  address public factoryAddress;\n  bool initialized;\n\n/* ============ Events ============ */\n  event FundsDeposited(address depositor, uint256 amount, address tokenAddress);\n  event ChannelForceClosed(uint256 senderAmount, uint256 closedTime);\n  event ChannelClosed(uint256 senderAmount, uint256 recipientAmount, uint256 closedTime);\n  event FundsBorrowedAgainstERC20(\n    address tokenGive, \n    uint256 giveAmount, \n    address tokenBorrowed, \n    uint256 borrowAmount\n  );\n  event FundsBorrowedAgainstEth(\n    uint256 giveAmount, \n    address tokenBorrowed, \n    uint256 borrowAmount\n  );\n  event BorrowedFundsRepaid(uint256 repayAmount, address tokenAddress);\n  event LoanedERC20Withdrawn(address tokenAddress, uint256 withdrawAmount);\n  event LoanedEthWithdrawn(uint256 withdrawAmount);\n  event EndTimeExtended(uint256 newTime);\n\n  /* ============ Public Functions ============ */\n  /**\n   * Initializes state variable and can only run once when the channel is created/cloned in place of constructor\n   *\n   * @param _sender               Address that will be depositing funds into the channel\n   * @param _recipient            Address that will recieve some of the funds when channel is closed\n   * @param _endTime              Time in unix when the channel can be forced closed\n   * @param _tokenAddress         Address of the underlying token for the channel (ex: DAI Address)\n   * @param _cTokenAddress        Address of the cToken for the channel (ex: cDAI Address)\n   * @param _factoryAddress       The address of the factory that created the channel\n   */\n  function init(\n    address payable _sender,\n    address payable _recipient,\n    uint256 _endTime,\n    address _tokenAddress,\n    address _cTokenAddress,\n    address _factoryAddress\n  ) public returns(bool) {\n     // Makes sure the function can only be called once \n    require(initialized == false, 'already initialized');\n    initialized = true;\n\n    factoryAddress = _factoryAddress;\n    sender = _sender;\n    recipient = _recipient;\n    endTime = _endTime;\n    token = IERC20(_tokenAddress); // zero address if underlying is Ether \n    cToken = CERC20(_cTokenAddress);\n\n    return true; \n  }\n\n  /**\n   * Used to deposit the underlying asset into the channel and converts it into cToken (ex: deposit DAI for a cDAI channel)\n   *\n   * @param _amount             The amount of underlying token to be added to the channel\n   */\n  function depositERC20(uint256 _amount) public returns(bool) {\n    token.transferFrom(msg.sender, address(this), _amount);\n    underlyingBalance = underlyingBalance.add(_amount); // update underlying asset balance\n    require(token.approve(address(cToken), _amount), 'approval error');\n    require(cToken.mint(_amount) == 0, 'minting error');\n\n    emit FundsDeposited(msg.sender, _amount, address(token));\n    return true;\n  }\n\n  /**\n   * Emergency function that is to be called if the recipient doesn't call the close function before the specified endTime\n   *\n   */ \n  function forceClose() public {\n    require(now > endTime, 'too early to close');\n    require(msg.sender == sender, 'nonsender address');\n    underlyingBalance = 0;\n    channelNonce += 1;\n    \n    uint256 cTokenBalance = cToken.balanceOf(address(this));\n    require(cToken.redeem(cTokenBalance) == 0, \"redeem error\");\n    uint256 balance = token.balanceOf(address(this));\n    token.transfer(sender, balance);\n    emit ChannelForceClosed(balance, block.timestamp);\n  }\n\n  /**\n   * Called by the recipient when they would like to recieve their payment\n   *\n   * @param _amount             The amount of underlying token that was signed to the recipient\n   * @param _signature          Sig that was created to the recipient for a specific amount\n   */\n  function close(\n    uint256 _amount,\n    bytes memory _signature\n  ) public {\n    require(msg.sender == recipient, 'nonrecipient address');\n   CompChannelFactory compFactory = CompChannelFactory(factoryAddress);\n\n    require(compFactory.checkSignature(\n      sender,\n      address(this),\n      channelNonce,\n      _amount,\n      _signature\n    ), 'invalid signature');\n\n    channelNonce += 1;\n    underlyingBalance = 0;\n    // Redeem Tokens\n    uint256 cTokenBalance = cToken.balanceOf(address(this));\n    require(cToken.redeem(cTokenBalance) == 0, \"redeem error\");\n\n    uint256 balance = token.balanceOf(address(this));\n    uint256 toRecipient = balance < _amount ? balance : _amount;\n    require(token.transfer(recipient, toRecipient), \"transfer error\");\n    if (toRecipient < balance) {\n      uint256 toSender = balance.sub(toRecipient);\n      token.transfer(sender, toSender);\n      emit ChannelClosed(toSender, toRecipient, block.timestamp);\n    }\n    else {\n      emit ChannelClosed(0, toRecipient, block.timestamp);\n    }\n  }\n\n  /**\n   * Allows someone to borrow the underlying ERC20 token of the channel from Compound against a different Compound ERC20 asset\n   *\n   * @param _tokenGive            ERC20 address that is provided to borrow against\n   * @param _cTokenGive           cToken address of the token that is provided to borrow against\n   * @param _giveAmount           The amount of the provided to token that they are willing to supply\n   * @param _getAmount            How much of the underlying token they would like to receive\n   */\n\n  function borrowERC20AgainstERC20(\n    address _tokenGive, \n    address _cTokenGive, \n    uint256 _giveAmount,\n    uint256 _getAmount\n    ) public {\n    // Prevents from entering the market of the channel asset\n    require(address(cToken) != _cTokenGive);\n\n    // Contract Instances\n    IERC20 tokenGive = IERC20(_tokenGive);\n    CERC20 cTokenGive = CERC20(_cTokenGive);\n    Comptroller comptroller = Comptroller(0xe03718b458a2E912141CF3fC8daB648362ee7463); //Ropsten comptroller address\n\n    // Move allowance to channel\n    tokenGive.transferFrom(msg.sender, address(this), _giveAmount);\n\n    // Supply Colateral for borrow\n    require(tokenGive.approve(_cTokenGive, _giveAmount), 'approval error');\n    require(cTokenGive.mint(_giveAmount) == 0, 'minting error');\n\n    // Enter the market\n    address[] memory cTokens = new address[](1);\n    cTokens[0] = _cTokenGive;\n    uint256[] memory errors = comptroller.enterMarkets(cTokens);\n    if (errors[0] != 0) {\n      revert(\"Comptroller.enterMarkets failed.\");\n    }\n    cToken.borrow(_getAmount);\n    underlyingBalance = underlyingBalance.add(_getAmount); // update underlying asset balance\n    // Takes borrow amount and converts back to cToken\n    token.approve(address(cToken), _getAmount);\n    require(cToken.mint(_getAmount) == 0, 'minting error');\n\n    emit FundsBorrowedAgainstERC20(_tokenGive, _giveAmount, address(token), _getAmount);\n  }\n\n  /**\n   * Allows someone to borrow the underlying ERC20 token of the channel from Compound against Ether\n   *\n   * @param _cEth                 cEther address\n   * @param _getAmount            How much of the underlying token they would like to receive\n   */\n  function borrowERC20AgainstETH(\n    address _cEth, \n    uint256 _getAmount\n    ) public payable {\n    require(address(cToken) != _cEth);\n\n    // Contract Instances\n    CETH cEthGive = CETH(_cEth);\n    Comptroller comptroller = Comptroller(0xe03718b458a2E912141CF3fC8daB648362ee7463); //Ropsten comptroller address \n    \n    // Supply Colateral for borrow\n    cEthGive.mint{gas: 250000, value: msg.value}(); //0.6.0 syntax\n\n    // Enter the market\n    address[] memory cTokens = new address[](1);\n    cTokens[0] = _cEth;\n    uint256[] memory errors = comptroller.enterMarkets(cTokens);\n    if (errors[0] != 0) {\n      revert(\"Comptroller.enterMarkets failed.\");\n    }\n    cToken.borrow(_getAmount);\n    underlyingBalance = underlyingBalance.add(_getAmount); // update underlying asset balance\n    // Takes borrow amount and converts back to cToken\n    token.approve(address(cToken), _getAmount);\n    require(cToken.mint(_getAmount) == 0, 'minting error');\n\n    emit FundsBorrowedAgainstEth(msg.value, address(token), _getAmount);\n  }\n\n  /**\n   * Repays the borrowed underlying asset of the channel if an allowance has been set for the channel contract\n   *\n   */ \n  function repayERC20Borrowed() public {\n    uint256 allowance = token.allowance(msg.sender, address(this));\n    uint256 repayAmount = cToken.borrowBalanceCurrent(address(this));\n\n    if (allowance > repayAmount) {\n      token.transferFrom(msg.sender, address(this), repayAmount);\n      token.approve(address(cToken), repayAmount);\n      require(cToken.repayBorrow(repayAmount) == 0, 'repay error');\n      emit BorrowedFundsRepaid(repayAmount, address(token));\n    }\n\n    else {\n      token.transferFrom(msg.sender, address(this), allowance);\n      token.approve(address(cToken), allowance);\n      require(cToken.repayBorrow(allowance) == 0, 'repay error');\n      emit BorrowedFundsRepaid(allowance, address(token));\n    }\n  }\n\n  /**\n   * Withdraws the ERC20 that was used to borrow against once the debt has been repaid\n   *\n   * @param _tokenGave            ERC20 token address of the token that was supplied\n   * @param _cTokenGave           cToken address of the token that was supplied\n   */\n  function withdrawLoanedERC20(address _tokenGave, address _cTokenGave) public {\n    require(_tokenGave != address(token));\n    require(_cTokenGave != address(cToken));\n    require(sender == msg.sender);\n\n    uint256 repayAmount = cToken.borrowBalanceCurrent(address(this));\n    require(repayAmount == 0, 'need to repay debt');\n\n    CERC20 cTokenGave = CERC20(_cTokenGave);\n    IERC20 tokenGave = IERC20(_tokenGave);\n    \n    uint256 cTokenBalance = cTokenGave.balanceOf(address(this));\n    require(cTokenGave.redeem(cTokenBalance) == 0, 'redeem error');\n    uint256 tokenBalance = tokenGave.balanceOf(address(this));\n    tokenGave.transfer(sender, tokenBalance);\n    emit LoanedERC20Withdrawn(_tokenGave, tokenBalance);\n  }\n\n  /**\n   * Withdraws the Ether that was used to borrow against once the debt has been repaid\n   *\n   * @param _cEth           cToken address of the token that was supplied\n   */\n  function withdrawLoanedEth(address _cEth) public {\n    require(_cEth != address(cToken));\n    require(sender == msg.sender);\n    \n    uint256 repayAmount = cToken.borrowBalanceCurrent(address(this));\n    require(repayAmount == 0, 'need to repay debt');\n\n    CETH cEther = CETH(_cEth);\n    uint256 cEthBalance = cEther.balanceOf(address(this));\n    require(cEther.redeem(cEthBalance) == 0, 'redeem error');\n    sender.transfer(address(this).balance);\n    emit LoanedEthWithdrawn(address(this).balance);\n  }\n\n  /**\n   * Extends the end time of the channel to a further date if proposed by the sender and the new time is greater than the currenct end time\n   *\n   * @param _newTime         Proposed new end time\n   */\n  function extendEndTime(uint256 _newTime) public {\n    require(msg.sender == sender, 'nonsender address');\n    require(_newTime > endTime, 'newTime needs to be > endTime');\n    \n    endTime = _newTime;\n    emit EndTimeExtended(_newTime);\n  }\n  \n  fallback() external payable { }\n//   fallback() external { revert(\"Function not found\"); } \n//   receive() external payable { }\n}",
  "sourcePath": "/Users/justsomeguy/Documents/hack-money/compound-channels/contracts/Erc20Channel.sol",
  "compiler": {
    "name": "solc",
    "version": "0.6.6+commit.6c089d02.Emscripten.clang"
  },
  "schemaVersion": "3.1.0",
  "updatedAt": "2020-05-21T03:25:39.054Z",
  "devdoc": {
    "methods": {
      "borrowERC20AgainstERC20(address,address,uint256,uint256)": {
        "params": {
          "_cTokenGive": "cToken address of the token that is provided to borrow against",
          "_getAmount": "How much of the underlying token they would like to receive",
          "_giveAmount": "The amount of the provided to token that they are willing to supply",
          "_tokenGive": "ERC20 address that is provided to borrow against"
        }
      },
      "borrowERC20AgainstETH(address,uint256)": {
        "params": {
          "_cEth": "cEther address",
          "_getAmount": "How much of the underlying token they would like to receive"
        }
      },
      "close(uint256,bytes)": {
        "params": {
          "_amount": "The amount of underlying token that was signed to the recipient",
          "_signature": "Sig that was created to the recipient for a specific amount"
        }
      },
      "depositERC20(uint256)": {
        "params": {
          "_amount": "The amount of underlying token to be added to the channel"
        }
      },
      "extendEndTime(uint256)": {
        "params": {
          "_newTime": "Proposed new end time"
        }
      },
      "init(address,address,uint256,address,address,address)": {
        "params": {
          "_cTokenAddress": "Address of the cToken for the channel (ex: cDAI Address)",
          "_endTime": "Time in unix when the channel can be forced closed",
          "_factoryAddress": "The address of the factory that created the channel",
          "_recipient": "Address that will recieve some of the funds when channel is closed",
          "_sender": "Address that will be depositing funds into the channel",
          "_tokenAddress": "Address of the underlying token for the channel (ex: DAI Address)"
        }
      },
      "withdrawLoanedERC20(address,address)": {
        "params": {
          "_cTokenGave": "cToken address of the token that was supplied",
          "_tokenGave": "ERC20 token address of the token that was supplied"
        }
      },
      "withdrawLoanedEth(address)": {
        "params": {
          "_cEth": "cToken address of the token that was supplied"
        }
      }
    }
  },
  "userdoc": {
    "methods": {
      "borrowERC20AgainstERC20(address,address,uint256,uint256)": {
        "notice": "Allows someone to borrow the underlying ERC20 token of the channel from Compound against a different Compound ERC20 asset"
      },
      "borrowERC20AgainstETH(address,uint256)": {
        "notice": "Allows someone to borrow the underlying ERC20 token of the channel from Compound against Ether"
      },
      "close(uint256,bytes)": {
        "notice": "Called by the recipient when they would like to recieve their payment"
      },
      "depositERC20(uint256)": {
        "notice": "Used to deposit the underlying asset into the channel and converts it into cToken (ex: deposit DAI for a cDAI channel)"
      },
      "extendEndTime(uint256)": {
        "notice": "Extends the end time of the channel to a further date if proposed by the sender and the new time is greater than the currenct end time"
      },
      "forceClose()": {
        "notice": "Emergency function that is to be called if the recipient doesn't call the close function before the specified endTime   "
      },
      "init(address,address,uint256,address,address,address)": {
        "notice": "Initializes state variable and can only run once when the channel is created/cloned in place of constructor"
      },
      "repayERC20Borrowed()": {
        "notice": "Repays the borrowed underlying asset of the channel if an allowance has been set for the channel contract   "
      },
      "withdrawLoanedERC20(address,address)": {
        "notice": "Withdraws the ERC20 that was used to borrow against once the debt has been repaid"
      },
      "withdrawLoanedEth(address)": {
        "notice": "Withdraws the Ether that was used to borrow against once the debt has been repaid"
      }
    }
  }
}