{
  "contractName": "Erc20Channel",
  "abi": [
    {
      "anonymous": false,
      "inputs": [
        {
          "indexed": false,
          "internalType": "uint256",
          "name": "repayAmount",
          "type": "uint256"
        },
        {
          "indexed": false,
          "internalType": "address",
          "name": "tokenAddress",
          "type": "address"
        }
      ],
      "name": "BorrowedFundsRepaid",
      "type": "event"
    },
    {
      "anonymous": false,
      "inputs": [
        {
          "indexed": false,
          "internalType": "uint256",
          "name": "senderAmount",
          "type": "uint256"
        },
        {
          "indexed": false,
          "internalType": "uint256",
          "name": "recipientAmount",
          "type": "uint256"
        },
        {
          "indexed": false,
          "internalType": "uint256",
          "name": "closedTime",
          "type": "uint256"
        }
      ],
      "name": "ChannelClosed",
      "type": "event"
    },
    {
      "anonymous": false,
      "inputs": [
        {
          "indexed": false,
          "internalType": "uint256",
          "name": "senderAmount",
          "type": "uint256"
        },
        {
          "indexed": false,
          "internalType": "uint256",
          "name": "closedTime",
          "type": "uint256"
        }
      ],
      "name": "ChannelForceClosed",
      "type": "event"
    },
    {
      "anonymous": false,
      "inputs": [
        {
          "indexed": false,
          "internalType": "uint256",
          "name": "newTime",
          "type": "uint256"
        }
      ],
      "name": "EndTimeExtended",
      "type": "event"
    },
    {
      "anonymous": false,
      "inputs": [
        {
          "indexed": false,
          "internalType": "address",
          "name": "tokenGive",
          "type": "address"
        },
        {
          "indexed": false,
          "internalType": "uint256",
          "name": "giveAmount",
          "type": "uint256"
        },
        {
          "indexed": false,
          "internalType": "address",
          "name": "tokenBorrowed",
          "type": "address"
        },
        {
          "indexed": false,
          "internalType": "uint256",
          "name": "borrowAmount",
          "type": "uint256"
        }
      ],
      "name": "FundsBorrowedAgainstERC20",
      "type": "event"
    },
    {
      "anonymous": false,
      "inputs": [
        {
          "indexed": false,
          "internalType": "uint256",
          "name": "giveAmount",
          "type": "uint256"
        },
        {
          "indexed": false,
          "internalType": "address",
          "name": "tokenBorrowed",
          "type": "address"
        },
        {
          "indexed": false,
          "internalType": "uint256",
          "name": "borrowAmount",
          "type": "uint256"
        }
      ],
      "name": "FundsBorrowedAgainstEth",
      "type": "event"
    },
    {
      "anonymous": false,
      "inputs": [
        {
          "indexed": false,
          "internalType": "address",
          "name": "depositor",
          "type": "address"
        },
        {
          "indexed": false,
          "internalType": "uint256",
          "name": "amount",
          "type": "uint256"
        },
        {
          "indexed": false,
          "internalType": "address",
          "name": "tokenAddress",
          "type": "address"
        }
      ],
      "name": "FundsDeposited",
      "type": "event"
    },
    {
      "anonymous": false,
      "inputs": [
        {
          "indexed": false,
          "internalType": "address",
          "name": "tokenAddress",
          "type": "address"
        },
        {
          "indexed": false,
          "internalType": "uint256",
          "name": "withdrawAmount",
          "type": "uint256"
        }
      ],
      "name": "LoanedERC20Withdrawn",
      "type": "event"
    },
    {
      "anonymous": false,
      "inputs": [
        {
          "indexed": false,
          "internalType": "uint256",
          "name": "withdrawAmount",
          "type": "uint256"
        }
      ],
      "name": "LoanedEthWithdrawn",
      "type": "event"
    },
    {
      "stateMutability": "payable",
      "type": "fallback"
    },
    {
      "inputs": [],
      "name": "cToken",
      "outputs": [
        {
          "internalType": "contract CERC20",
          "name": "",
          "type": "address"
        }
      ],
      "stateMutability": "view",
      "type": "function"
    },
    {
      "inputs": [],
      "name": "channelNonce",
      "outputs": [
        {
          "internalType": "uint8",
          "name": "",
          "type": "uint8"
        }
      ],
      "stateMutability": "view",
      "type": "function"
    },
    {
      "inputs": [],
      "name": "endTime",
      "outputs": [
        {
          "internalType": "uint256",
          "name": "",
          "type": "uint256"
        }
      ],
      "stateMutability": "view",
      "type": "function"
    },
    {
      "inputs": [],
      "name": "factoryAddress",
      "outputs": [
        {
          "internalType": "address",
          "name": "",
          "type": "address"
        }
      ],
      "stateMutability": "view",
      "type": "function"
    },
    {
      "inputs": [],
      "name": "recipient",
      "outputs": [
        {
          "internalType": "address payable",
          "name": "",
          "type": "address"
        }
      ],
      "stateMutability": "view",
      "type": "function"
    },
    {
      "inputs": [],
      "name": "sender",
      "outputs": [
        {
          "internalType": "address payable",
          "name": "",
          "type": "address"
        }
      ],
      "stateMutability": "view",
      "type": "function"
    },
    {
      "inputs": [],
      "name": "token",
      "outputs": [
        {
          "internalType": "contract IERC20",
          "name": "",
          "type": "address"
        }
      ],
      "stateMutability": "view",
      "type": "function"
    },
    {
      "inputs": [],
      "name": "underlyingBalance",
      "outputs": [
        {
          "internalType": "uint256",
          "name": "",
          "type": "uint256"
        }
      ],
      "stateMutability": "view",
      "type": "function"
    },
    {
      "inputs": [
        {
          "internalType": "address payable",
          "name": "_sender",
          "type": "address"
        },
        {
          "internalType": "address payable",
          "name": "_recipient",
          "type": "address"
        },
        {
          "internalType": "uint256",
          "name": "_endTime",
          "type": "uint256"
        },
        {
          "internalType": "address",
          "name": "_tokenAddress",
          "type": "address"
        },
        {
          "internalType": "address",
          "name": "_cTokenAddress",
          "type": "address"
        },
        {
          "internalType": "address",
          "name": "_factoryAddress",
          "type": "address"
        }
      ],
      "name": "init",
      "outputs": [
        {
          "internalType": "bool",
          "name": "",
          "type": "bool"
        }
      ],
      "stateMutability": "nonpayable",
      "type": "function"
    },
    {
      "inputs": [
        {
          "internalType": "uint256",
          "name": "_amount",
          "type": "uint256"
        }
      ],
      "name": "depositERC20",
      "outputs": [
        {
          "internalType": "bool",
          "name": "",
          "type": "bool"
        }
      ],
      "stateMutability": "nonpayable",
      "type": "function"
    },
    {
      "inputs": [],
      "name": "forceClose",
      "outputs": [],
      "stateMutability": "nonpayable",
      "type": "function"
    },
    {
      "inputs": [
        {
          "internalType": "uint256",
          "name": "_amount",
          "type": "uint256"
        },
        {
          "internalType": "bytes",
          "name": "_signature",
          "type": "bytes"
        }
      ],
      "name": "close",
      "outputs": [],
      "stateMutability": "nonpayable",
      "type": "function"
    },
    {
      "inputs": [
        {
          "internalType": "address",
          "name": "_tokenGive",
          "type": "address"
        },
        {
          "internalType": "address",
          "name": "_cTokenGive",
          "type": "address"
        },
        {
          "internalType": "uint256",
          "name": "_giveAmount",
          "type": "uint256"
        },
        {
          "internalType": "uint256",
          "name": "_getAmount",
          "type": "uint256"
        },
        {
          "internalType": "address",
          "name": "_compTrollAddress",
          "type": "address"
        }
      ],
      "name": "borrowERC20AgainstERC20",
      "outputs": [],
      "stateMutability": "nonpayable",
      "type": "function"
    },
    {
      "inputs": [
        {
          "internalType": "address",
          "name": "_cEth",
          "type": "address"
        },
        {
          "internalType": "uint256",
          "name": "_getAmount",
          "type": "uint256"
        },
        {
          "internalType": "address",
          "name": "_compTrollAddress",
          "type": "address"
        }
      ],
      "name": "borrowERC20AgainstETH",
      "outputs": [],
      "stateMutability": "payable",
      "type": "function"
    },
    {
      "inputs": [],
      "name": "repayERC20Borrowed",
      "outputs": [],
      "stateMutability": "nonpayable",
      "type": "function"
    },
    {
      "inputs": [
        {
          "internalType": "address",
          "name": "_tokenGave",
          "type": "address"
        },
        {
          "internalType": "address",
          "name": "_cTokenGave",
          "type": "address"
        }
      ],
      "name": "withdrawLoanedERC20",
      "outputs": [],
      "stateMutability": "nonpayable",
      "type": "function"
    },
    {
      "inputs": [
        {
          "internalType": "address",
          "name": "_cEth",
          "type": "address"
        }
      ],
      "name": "withdrawLoanedEth",
      "outputs": [],
      "stateMutability": "nonpayable",
      "type": "function"
    },
    {
      "inputs": [
        {
          "internalType": "uint256",
          "name": "_newTime",
          "type": "uint256"
        }
      ],
      "name": "extendEndTime",
      "outputs": [],
      "stateMutability": "nonpayable",
      "type": "function"
    }
  ],
  "bytecode": "0x608060405234801561001057600080fd5b50614696806100206000396000f3fe60806040526004361061010d5760003560e01c80637fdb655c11610095578063a90689f511610064578063a90689f514610572578063b79092fd14610617578063d69c49661461066a578063f8f222fd146106db578063fc0c546a146107495761010e565b80637fdb655c1461047857806388770cb01461048f578063966dae0e146104ca5780639d1f66ac146105215761010e565b806359356c5c116100dc57806359356c5c1461033157806366d003ac1461035c57806367e404ce146103b357806369e527da1461040a57806377678414146104615761010e565b806304e4c475146101105780631220ce42146102035780633197cbb614610234578063415ffba71461025f5761010e565b5b005b34801561011c57600080fd5b506101e9600480360360c081101561013357600080fd5b81019080803573ffffffffffffffffffffffffffffffffffffffff169060200190929190803573ffffffffffffffffffffffffffffffffffffffff16906020019092919080359060200190929190803573ffffffffffffffffffffffffffffffffffffffff169060200190929190803573ffffffffffffffffffffffffffffffffffffffff169060200190929190803573ffffffffffffffffffffffffffffffffffffffff1690602001909291905050506107a0565b604051808215151515815260200191505060405180910390f35b34801561020f57600080fd5b5061021861099f565b604051808260ff1660ff16815260200191505060405180910390f35b34801561024057600080fd5b506102496109b2565b6040518082815260200191505060405180910390f35b34801561026b57600080fd5b5061032f6004803603604081101561028257600080fd5b8101908080359060200190929190803590602001906401000000008111156102a957600080fd5b8201836020820111156102bb57600080fd5b803590602001918460018302840111640100000000831117156102dd57600080fd5b91908080601f016020809104026020016040519081016040528093929190818152602001838380828437600081840152601f19601f8201169050808301925050505050505091929192905050506109b8565b005b34801561033d57600080fd5b5061034661131b565b6040518082815260200191505060405180910390f35b34801561036857600080fd5b50610371611321565b604051808273ffffffffffffffffffffffffffffffffffffffff1673ffffffffffffffffffffffffffffffffffffffff16815260200191505060405180910390f35b3480156103bf57600080fd5b506103c8611347565b604051808273ffffffffffffffffffffffffffffffffffffffff1673ffffffffffffffffffffffffffffffffffffffff16815260200191505060405180910390f35b34801561041657600080fd5b5061041f61136d565b604051808273ffffffffffffffffffffffffffffffffffffffff1673ffffffffffffffffffffffffffffffffffffffff16815260200191505060405180910390f35b34801561046d57600080fd5b50610476611393565b005b34801561048457600080fd5b5061048d61192d565b005b34801561049b57600080fd5b506104c8600480360360208110156104b257600080fd5b81019080803590602001909291905050506122d5565b005b3480156104d657600080fd5b506104df612450565b604051808273ffffffffffffffffffffffffffffffffffffffff1673ffffffffffffffffffffffffffffffffffffffff16815260200191505060405180910390f35b34801561052d57600080fd5b506105706004803603602081101561054457600080fd5b81019080803573ffffffffffffffffffffffffffffffffffffffff169060200190929190505050612476565b005b34801561057e57600080fd5b50610615600480360360a081101561059557600080fd5b81019080803573ffffffffffffffffffffffffffffffffffffffff169060200190929190803573ffffffffffffffffffffffffffffffffffffffff1690602001909291908035906020019092919080359060200190929190803573ffffffffffffffffffffffffffffffffffffffff1690602001909291905050506128eb565b005b34801561062357600080fd5b506106506004803603602081101561063a57600080fd5b81019080803590602001909291905050506132db565b604051808215151515815260200191505060405180910390f35b34801561067657600080fd5b506106d96004803603604081101561068d57600080fd5b81019080803573ffffffffffffffffffffffffffffffffffffffff169060200190929190803573ffffffffffffffffffffffffffffffffffffffff169060200190929190505050613778565b005b610747600480360360608110156106f157600080fd5b81019080803573ffffffffffffffffffffffffffffffffffffffff16906020019092919080359060200190929190803573ffffffffffffffffffffffffffffffffffffffff169060200190929190505050613dbc565b005b34801561075557600080fd5b5061075e6144a8565b604051808273ffffffffffffffffffffffffffffffffffffffff1673ffffffffffffffffffffffffffffffffffffffff16815260200191505060405180910390f35b6000801515600660149054906101000a900460ff1615151461082a576040517f08c379a00000000000000000000000000000000000000000000000000000000081526004018080602001828103825260138152602001807f616c726561647920696e697469616c697a65640000000000000000000000000081525060200191505060405180910390fd5b6001600660146101000a81548160ff02191690831515021790555081600660006101000a81548173ffffffffffffffffffffffffffffffffffffffff021916908373ffffffffffffffffffffffffffffffffffffffff16021790555086600160006101000a81548173ffffffffffffffffffffffffffffffffffffffff021916908373ffffffffffffffffffffffffffffffffffffffff16021790555085600260006101000a81548173ffffffffffffffffffffffffffffffffffffffff021916908373ffffffffffffffffffffffffffffffffffffffff1602179055508460038190555083600460016101000a81548173ffffffffffffffffffffffffffffffffffffffff021916908373ffffffffffffffffffffffffffffffffffffffff16021790555082600560006101000a81548173ffffffffffffffffffffffffffffffffffffffff021916908373ffffffffffffffffffffffffffffffffffffffff160217905550600190509695505050505050565b600460009054906101000a900460ff1681565b60035481565b600260009054906101000a900473ffffffffffffffffffffffffffffffffffffffff1673ffffffffffffffffffffffffffffffffffffffff163373ffffffffffffffffffffffffffffffffffffffff1614610a7b576040517f08c379a00000000000000000000000000000000000000000000000000000000081526004018080602001828103825260148152602001807f6e6f6e726563697069656e74206164647265737300000000000000000000000081525060200191505060405180910390fd5b6000600660009054906101000a900473ffffffffffffffffffffffffffffffffffffffff1690508073ffffffffffffffffffffffffffffffffffffffff1663dd569f8b600160009054906101000a900473ffffffffffffffffffffffffffffffffffffffff1630600460009054906101000a900460ff1687876040518663ffffffff1660e01b8152600401808673ffffffffffffffffffffffffffffffffffffffff1673ffffffffffffffffffffffffffffffffffffffff1681526020018573ffffffffffffffffffffffffffffffffffffffff1673ffffffffffffffffffffffffffffffffffffffff1681526020018460ff1660ff16815260200183815260200180602001828103825283818151815260200191508051906020019080838360005b83811015610bb9578082015181840152602081019050610b9e565b50505050905090810190601f168015610be65780820380516001836020036101000a031916815260200191505b509650505050505050602060405180830381600087803b158015610c0957600080fd5b505af1158015610c1d573d6000803e3d6000fd5b505050506040513d6020811015610c3357600080fd5b8101908080519060200190929190505050610cb6576040517f08c379a00000000000000000000000000000000000000000000000000000000081526004018080602001828103825260118152602001807f696e76616c6964207369676e617475726500000000000000000000000000000081525060200191505060405180910390fd5b6001600460008282829054906101000a900460ff160192506101000a81548160ff021916908360ff160217905550600080819055506000600560009054906101000a900473ffffffffffffffffffffffffffffffffffffffff1673ffffffffffffffffffffffffffffffffffffffff166370a08231306040518263ffffffff1660e01b8152600401808273ffffffffffffffffffffffffffffffffffffffff1673ffffffffffffffffffffffffffffffffffffffff16815260200191505060206040518083038186803b158015610d8c57600080fd5b505afa158015610da0573d6000803e3d6000fd5b505050506040513d6020811015610db657600080fd5b810190808051906020019092919050505090506000600560009054906101000a900473ffffffffffffffffffffffffffffffffffffffff1673ffffffffffffffffffffffffffffffffffffffff1663db006a75836040518263ffffffff1660e01b815260040180828152602001915050602060405180830381600087803b158015610e4057600080fd5b505af1158015610e54573d6000803e3d6000fd5b505050506040513d6020811015610e6a57600080fd5b810190808051906020019092919050505014610eee576040517f08c379a000000000000000000000000000000000000000000000000000000000815260040180806020018281038252600c8152602001807f72656465656d206572726f72000000000000000000000000000000000000000081525060200191505060405180910390fd5b6000600460019054906101000a900473ffffffffffffffffffffffffffffffffffffffff1673ffffffffffffffffffffffffffffffffffffffff166370a08231306040518263ffffffff1660e01b8152600401808273ffffffffffffffffffffffffffffffffffffffff1673ffffffffffffffffffffffffffffffffffffffff16815260200191505060206040518083038186803b158015610f8f57600080fd5b505afa158015610fa3573d6000803e3d6000fd5b505050506040513d6020811015610fb957600080fd5b810190808051906020019092919050505090506000858210610fdb5785610fdd565b815b9050600460019054906101000a900473ffffffffffffffffffffffffffffffffffffffff1673ffffffffffffffffffffffffffffffffffffffff1663a9059cbb600260009054906101000a900473ffffffffffffffffffffffffffffffffffffffff16836040518363ffffffff1660e01b8152600401808373ffffffffffffffffffffffffffffffffffffffff1673ffffffffffffffffffffffffffffffffffffffff16815260200182815260200192505050602060405180830381600087803b1580156110aa57600080fd5b505af11580156110be573d6000803e3d6000fd5b505050506040513d60208110156110d457600080fd5b8101908080519060200190929190505050611157576040517f08c379a000000000000000000000000000000000000000000000000000000000815260040180806020018281038252600e8152602001807f7472616e73666572206572726f7200000000000000000000000000000000000081525060200191505060405180910390fd5b818110156112ca57600061117482846144ce90919063ffffffff16565b9050600460019054906101000a900473ffffffffffffffffffffffffffffffffffffffff1673ffffffffffffffffffffffffffffffffffffffff1663a9059cbb600160009054906101000a900473ffffffffffffffffffffffffffffffffffffffff16836040518363ffffffff1660e01b8152600401808373ffffffffffffffffffffffffffffffffffffffff1673ffffffffffffffffffffffffffffffffffffffff16815260200182815260200192505050602060405180830381600087803b15801561124157600080fd5b505af1158015611255573d6000803e3d6000fd5b505050506040513d602081101561126b57600080fd5b8101908080519060200190929190505050507f26f6d077fd1d0e02462503b64a3e68d59be0440af92c91d7b881fab5bdf7811081834260405180848152602001838152602001828152602001935050505060405180910390a150611313565b7f26f6d077fd1d0e02462503b64a3e68d59be0440af92c91d7b881fab5bdf781106000824260405180848152602001838152602001828152602001935050505060405180910390a15b505050505050565b60005481565b600260009054906101000a900473ffffffffffffffffffffffffffffffffffffffff1681565b600160009054906101000a900473ffffffffffffffffffffffffffffffffffffffff1681565b600560009054906101000a900473ffffffffffffffffffffffffffffffffffffffff1681565b600354421161140a576040517f08c379a00000000000000000000000000000000000000000000000000000000081526004018080602001828103825260128152602001807f746f6f206561726c7920746f20636c6f7365000000000000000000000000000081525060200191505060405180910390fd5b600160009054906101000a900473ffffffffffffffffffffffffffffffffffffffff1673ffffffffffffffffffffffffffffffffffffffff163373ffffffffffffffffffffffffffffffffffffffff16146114cd576040517f08c379a00000000000000000000000000000000000000000000000000000000081526004018080602001828103825260118152602001807f6e6f6e73656e646572206164647265737300000000000000000000000000000081525060200191505060405180910390fd5b600080819055506001600460008282829054906101000a900460ff160192506101000a81548160ff021916908360ff1602179055506000600560009054906101000a900473ffffffffffffffffffffffffffffffffffffffff1673ffffffffffffffffffffffffffffffffffffffff166370a08231306040518263ffffffff1660e01b8152600401808273ffffffffffffffffffffffffffffffffffffffff1673ffffffffffffffffffffffffffffffffffffffff16815260200191505060206040518083038186803b1580156115a357600080fd5b505afa1580156115b7573d6000803e3d6000fd5b505050506040513d60208110156115cd57600080fd5b810190808051906020019092919050505090506000600560009054906101000a900473ffffffffffffffffffffffffffffffffffffffff1673ffffffffffffffffffffffffffffffffffffffff1663db006a75836040518263ffffffff1660e01b815260040180828152602001915050602060405180830381600087803b15801561165757600080fd5b505af115801561166b573d6000803e3d6000fd5b505050506040513d602081101561168157600080fd5b810190808051906020019092919050505014611705576040517f08c379a000000000000000000000000000000000000000000000000000000000815260040180806020018281038252600c8152602001807f72656465656d206572726f72000000000000000000000000000000000000000081525060200191505060405180910390fd5b6000600460019054906101000a900473ffffffffffffffffffffffffffffffffffffffff1673ffffffffffffffffffffffffffffffffffffffff166370a08231306040518263ffffffff1660e01b8152600401808273ffffffffffffffffffffffffffffffffffffffff1673ffffffffffffffffffffffffffffffffffffffff16815260200191505060206040518083038186803b1580156117a657600080fd5b505afa1580156117ba573d6000803e3d6000fd5b505050506040513d60208110156117d057600080fd5b81019080805190602001909291905050509050600460019054906101000a900473ffffffffffffffffffffffffffffffffffffffff1673ffffffffffffffffffffffffffffffffffffffff1663a9059cbb600160009054906101000a900473ffffffffffffffffffffffffffffffffffffffff16836040518363ffffffff1660e01b8152600401808373ffffffffffffffffffffffffffffffffffffffff1673ffffffffffffffffffffffffffffffffffffffff16815260200182815260200192505050602060405180830381600087803b1580156118ae57600080fd5b505af11580156118c2573d6000803e3d6000fd5b505050506040513d60208110156118d857600080fd5b8101908080519060200190929190505050507f485ab7fed10680c9edd6e84fbdfc791fd018adf3d961f274b8c34486110bf93a8142604051808381526020018281526020019250505060405180910390a15050565b6000600460019054906101000a900473ffffffffffffffffffffffffffffffffffffffff1673ffffffffffffffffffffffffffffffffffffffff1663dd62ed3e33306040518363ffffffff1660e01b8152600401808373ffffffffffffffffffffffffffffffffffffffff1673ffffffffffffffffffffffffffffffffffffffff1681526020018273ffffffffffffffffffffffffffffffffffffffff1673ffffffffffffffffffffffffffffffffffffffff1681526020019250505060206040518083038186803b158015611a0257600080fd5b505afa158015611a16573d6000803e3d6000fd5b505050506040513d6020811015611a2c57600080fd5b810190808051906020019092919050505090506000600560009054906101000a900473ffffffffffffffffffffffffffffffffffffffff1673ffffffffffffffffffffffffffffffffffffffff166317bfdfbc306040518263ffffffff1660e01b8152600401808273ffffffffffffffffffffffffffffffffffffffff1673ffffffffffffffffffffffffffffffffffffffff168152602001915050602060405180830381600087803b158015611ae257600080fd5b505af1158015611af6573d6000803e3d6000fd5b505050506040513d6020811015611b0c57600080fd5b8101908080519060200190929190505050905080821115611efe57600460019054906101000a900473ffffffffffffffffffffffffffffffffffffffff1673ffffffffffffffffffffffffffffffffffffffff166323b872dd3330846040518463ffffffff1660e01b8152600401808473ffffffffffffffffffffffffffffffffffffffff1673ffffffffffffffffffffffffffffffffffffffff1681526020018373ffffffffffffffffffffffffffffffffffffffff1673ffffffffffffffffffffffffffffffffffffffff1681526020018281526020019350505050602060405180830381600087803b158015611c0457600080fd5b505af1158015611c18573d6000803e3d6000fd5b505050506040513d6020811015611c2e57600080fd5b810190808051906020019092919050505050600460019054906101000a900473ffffffffffffffffffffffffffffffffffffffff1673ffffffffffffffffffffffffffffffffffffffff1663095ea7b3600560009054906101000a900473ffffffffffffffffffffffffffffffffffffffff16836040518363ffffffff1660e01b8152600401808373ffffffffffffffffffffffffffffffffffffffff1673ffffffffffffffffffffffffffffffffffffffff16815260200182815260200192505050602060405180830381600087803b158015611d0b57600080fd5b505af1158015611d1f573d6000803e3d6000fd5b505050506040513d6020811015611d3557600080fd5b8101908080519060200190929190505050506000600560009054906101000a900473ffffffffffffffffffffffffffffffffffffffff1673ffffffffffffffffffffffffffffffffffffffff16630e752702836040518263ffffffff1660e01b815260040180828152602001915050602060405180830381600087803b158015611dbe57600080fd5b505af1158015611dd2573d6000803e3d6000fd5b505050506040513d6020811015611de857600080fd5b810190808051906020019092919050505014611e6c576040517f08c379a000000000000000000000000000000000000000000000000000000000815260040180806020018281038252600b8152602001807f7265706179206572726f7200000000000000000000000000000000000000000081525060200191505060405180910390fd5b7f62b6dc35e039ab7257195309d5c57f93d2d60963dd2ba37599e3271cb3c17f2781600460019054906101000a900473ffffffffffffffffffffffffffffffffffffffff16604051808381526020018273ffffffffffffffffffffffffffffffffffffffff1673ffffffffffffffffffffffffffffffffffffffff1681526020019250505060405180910390a16122d1565b600460019054906101000a900473ffffffffffffffffffffffffffffffffffffffff1673ffffffffffffffffffffffffffffffffffffffff166323b872dd3330856040518463ffffffff1660e01b8152600401808473ffffffffffffffffffffffffffffffffffffffff1673ffffffffffffffffffffffffffffffffffffffff1681526020018373ffffffffffffffffffffffffffffffffffffffff1673ffffffffffffffffffffffffffffffffffffffff1681526020018281526020019350505050602060405180830381600087803b158015611fdb57600080fd5b505af1158015611fef573d6000803e3d6000fd5b505050506040513d602081101561200557600080fd5b810190808051906020019092919050505050600460019054906101000a900473ffffffffffffffffffffffffffffffffffffffff1673ffffffffffffffffffffffffffffffffffffffff1663095ea7b3600560009054906101000a900473ffffffffffffffffffffffffffffffffffffffff16846040518363ffffffff1660e01b8152600401808373ffffffffffffffffffffffffffffffffffffffff1673ffffffffffffffffffffffffffffffffffffffff16815260200182815260200192505050602060405180830381600087803b1580156120e257600080fd5b505af11580156120f6573d6000803e3d6000fd5b505050506040513d602081101561210c57600080fd5b8101908080519060200190929190505050506000600560009054906101000a900473ffffffffffffffffffffffffffffffffffffffff1673ffffffffffffffffffffffffffffffffffffffff16630e752702846040518263ffffffff1660e01b815260040180828152602001915050602060405180830381600087803b15801561219557600080fd5b505af11580156121a9573d6000803e3d6000fd5b505050506040513d60208110156121bf57600080fd5b810190808051906020019092919050505014612243576040517f08c379a000000000000000000000000000000000000000000000000000000000815260040180806020018281038252600b8152602001807f7265706179206572726f7200000000000000000000000000000000000000000081525060200191505060405180910390fd5b7f62b6dc35e039ab7257195309d5c57f93d2d60963dd2ba37599e3271cb3c17f2782600460019054906101000a900473ffffffffffffffffffffffffffffffffffffffff16604051808381526020018273ffffffffffffffffffffffffffffffffffffffff1673ffffffffffffffffffffffffffffffffffffffff1681526020019250505060405180910390a15b5050565b600160009054906101000a900473ffffffffffffffffffffffffffffffffffffffff1673ffffffffffffffffffffffffffffffffffffffff163373ffffffffffffffffffffffffffffffffffffffff1614612398576040517f08c379a00000000000000000000000000000000000000000000000000000000081526004018080602001828103825260118152602001807f6e6f6e73656e646572206164647265737300000000000000000000000000000081525060200191505060405180910390fd5b600354811161240f576040517f08c379a000000000000000000000000000000000000000000000000000000000815260040180806020018281038252601d8152602001807f6e657754696d65206e6565647320746f206265203e20656e6454696d6500000081525060200191505060405180910390fd5b806003819055507f596c38936cc80c9f5cd39387dc2b9553f5667864208428ea95416c334f239c92816040518082815260200191505060405180910390a150565b600660009054906101000a900473ffffffffffffffffffffffffffffffffffffffff1681565b600560009054906101000a900473ffffffffffffffffffffffffffffffffffffffff1673ffffffffffffffffffffffffffffffffffffffff168173ffffffffffffffffffffffffffffffffffffffff1614156124d157600080fd5b3373ffffffffffffffffffffffffffffffffffffffff16600160009054906101000a900473ffffffffffffffffffffffffffffffffffffffff1673ffffffffffffffffffffffffffffffffffffffff161461252b57600080fd5b6000600560009054906101000a900473ffffffffffffffffffffffffffffffffffffffff1673ffffffffffffffffffffffffffffffffffffffff166317bfdfbc306040518263ffffffff1660e01b8152600401808273ffffffffffffffffffffffffffffffffffffffff1673ffffffffffffffffffffffffffffffffffffffff168152602001915050602060405180830381600087803b1580156125ce57600080fd5b505af11580156125e2573d6000803e3d6000fd5b505050506040513d60208110156125f857600080fd5b8101908080519060200190929190505050905060008114612681576040517f08c379a00000000000000000000000000000000000000000000000000000000081526004018080602001828103825260128152602001807f6e65656420746f2072657061792064656274000000000000000000000000000081525060200191505060405180910390fd5b600082905060008173ffffffffffffffffffffffffffffffffffffffff166370a08231306040518263ffffffff1660e01b8152600401808273ffffffffffffffffffffffffffffffffffffffff1673ffffffffffffffffffffffffffffffffffffffff16815260200191505060206040518083038186803b15801561270557600080fd5b505afa158015612719573d6000803e3d6000fd5b505050506040513d602081101561272f57600080fd5b8101908080519060200190929190505050905060008273ffffffffffffffffffffffffffffffffffffffff1663db006a75836040518263ffffffff1660e01b815260040180828152602001915050602060405180830381600087803b15801561279757600080fd5b505af11580156127ab573d6000803e3d6000fd5b505050506040513d60208110156127c157600080fd5b810190808051906020019092919050505014612845576040517f08c379a000000000000000000000000000000000000000000000000000000000815260040180806020018281038252600c8152602001807f72656465656d206572726f72000000000000000000000000000000000000000081525060200191505060405180910390fd5b600160009054906101000a900473ffffffffffffffffffffffffffffffffffffffff1673ffffffffffffffffffffffffffffffffffffffff166108fc479081150290604051600060405180830381858888f193505050501580156128ad573d6000803e3d6000fd5b507f5a43c9110c25177b0f16abc4d9326b0676099d2b6c1859c0c44a899c52b629c9476040518082815260200191505060405180910390a150505050565b8373ffffffffffffffffffffffffffffffffffffffff16600560009054906101000a900473ffffffffffffffffffffffffffffffffffffffff1673ffffffffffffffffffffffffffffffffffffffff16141561294657600080fd5b6000859050600085905060008390508273ffffffffffffffffffffffffffffffffffffffff166323b872dd3330896040518463ffffffff1660e01b8152600401808473ffffffffffffffffffffffffffffffffffffffff1673ffffffffffffffffffffffffffffffffffffffff1681526020018373ffffffffffffffffffffffffffffffffffffffff1673ffffffffffffffffffffffffffffffffffffffff1681526020018281526020019350505050602060405180830381600087803b158015612a1057600080fd5b505af1158015612a24573d6000803e3d6000fd5b505050506040513d6020811015612a3a57600080fd5b8101908080519060200190929190505050508273ffffffffffffffffffffffffffffffffffffffff1663095ea7b388886040518363ffffffff1660e01b8152600401808373ffffffffffffffffffffffffffffffffffffffff1673ffffffffffffffffffffffffffffffffffffffff16815260200182815260200192505050602060405180830381600087803b158015612ad357600080fd5b505af1158015612ae7573d6000803e3d6000fd5b505050506040513d6020811015612afd57600080fd5b8101908080519060200190929190505050612b80576040517f08c379a000000000000000000000000000000000000000000000000000000000815260040180806020018281038252600e8152602001807f617070726f76616c206572726f7200000000000000000000000000000000000081525060200191505060405180910390fd5b60008273ffffffffffffffffffffffffffffffffffffffff1663a0712d68886040518263ffffffff1660e01b815260040180828152602001915050602060405180830381600087803b158015612bd557600080fd5b505af1158015612be9573d6000803e3d6000fd5b505050506040513d6020811015612bff57600080fd5b810190808051906020019092919050505014612c83576040517f08c379a000000000000000000000000000000000000000000000000000000000815260040180806020018281038252600d8152602001807f6d696e74696e67206572726f720000000000000000000000000000000000000081525060200191505060405180910390fd5b6060600167ffffffffffffffff81118015612c9d57600080fd5b50604051908082528060200260200182016040528015612ccc5781602001602082028036833780820191505090505b5090508781600081518110612cdd57fe5b602002602001019073ffffffffffffffffffffffffffffffffffffffff16908173ffffffffffffffffffffffffffffffffffffffff168152505060608273ffffffffffffffffffffffffffffffffffffffff1663c2998238836040518263ffffffff1660e01b81526004018080602001828103825283818151815260200191508051906020019060200280838360005b83811015612d88578082015181840152602081019050612d6d565b5050505090500192505050600060405180830381600087803b158015612dad57600080fd5b505af1158015612dc1573d6000803e3d6000fd5b505050506040513d6000823e3d601f19601f820116820180604052506020811015612deb57600080fd5b8101908080516040519392919084640100000000821115612e0b57600080fd5b83820191506020820185811115612e2157600080fd5b8251866020820283011164010000000082111715612e3e57600080fd5b8083526020830192505050908051906020019060200280838360005b83811015612e75578082015181840152602081019050612e5a565b505050509050016040525050509050600081600081518110612e9357fe5b602002602001015114612f0e576040517f08c379a00000000000000000000000000000000000000000000000000000000081526004018080602001828103825260208152602001807f436f6d7074726f6c6c65722e656e7465724d61726b657473206661696c65642e81525060200191505060405180910390fd5b600560009054906101000a900473ffffffffffffffffffffffffffffffffffffffff1673ffffffffffffffffffffffffffffffffffffffff1663c5ebeaec886040518263ffffffff1660e01b815260040180828152602001915050602060405180830381600087803b158015612f8357600080fd5b505af1158015612f97573d6000803e3d6000fd5b505050506040513d6020811015612fad57600080fd5b810190808051906020019092919050505050612fd48760005461451890919063ffffffff16565b600081905550600460019054906101000a900473ffffffffffffffffffffffffffffffffffffffff1673ffffffffffffffffffffffffffffffffffffffff1663095ea7b3600560009054906101000a900473ffffffffffffffffffffffffffffffffffffffff16896040518363ffffffff1660e01b8152600401808373ffffffffffffffffffffffffffffffffffffffff1673ffffffffffffffffffffffffffffffffffffffff16815260200182815260200192505050602060405180830381600087803b1580156130a557600080fd5b505af11580156130b9573d6000803e3d6000fd5b505050506040513d60208110156130cf57600080fd5b8101908080519060200190929190505050506000600560009054906101000a900473ffffffffffffffffffffffffffffffffffffffff1673ffffffffffffffffffffffffffffffffffffffff1663a0712d68896040518263ffffffff1660e01b815260040180828152602001915050602060405180830381600087803b15801561315857600080fd5b505af115801561316c573d6000803e3d6000fd5b505050506040513d602081101561318257600080fd5b810190808051906020019092919050505014613206576040517f08c379a000000000000000000000000000000000000000000000000000000000815260040180806020018281038252600d8152602001807f6d696e74696e67206572726f720000000000000000000000000000000000000081525060200191505060405180910390fd5b7f81743433b602f88093c1451a96874b51a41cc00568e99186c24da797db091c708a89600460019054906101000a900473ffffffffffffffffffffffffffffffffffffffff168a604051808573ffffffffffffffffffffffffffffffffffffffff1673ffffffffffffffffffffffffffffffffffffffff1681526020018481526020018373ffffffffffffffffffffffffffffffffffffffff1673ffffffffffffffffffffffffffffffffffffffff16815260200182815260200194505050505060405180910390a150505050505050505050565b6000600460019054906101000a900473ffffffffffffffffffffffffffffffffffffffff1673ffffffffffffffffffffffffffffffffffffffff166323b872dd3330856040518463ffffffff1660e01b8152600401808473ffffffffffffffffffffffffffffffffffffffff1673ffffffffffffffffffffffffffffffffffffffff1681526020018373ffffffffffffffffffffffffffffffffffffffff1673ffffffffffffffffffffffffffffffffffffffff1681526020018281526020019350505050602060405180830381600087803b1580156133ba57600080fd5b505af11580156133ce573d6000803e3d6000fd5b505050506040513d60208110156133e457600080fd5b81019080805190602001909291905050505061340b8260005461451890919063ffffffff16565b600081905550600460019054906101000a900473ffffffffffffffffffffffffffffffffffffffff1673ffffffffffffffffffffffffffffffffffffffff1663095ea7b3600560009054906101000a900473ffffffffffffffffffffffffffffffffffffffff16846040518363ffffffff1660e01b8152600401808373ffffffffffffffffffffffffffffffffffffffff1673ffffffffffffffffffffffffffffffffffffffff16815260200182815260200192505050602060405180830381600087803b1580156134dc57600080fd5b505af11580156134f0573d6000803e3d6000fd5b505050506040513d602081101561350657600080fd5b8101908080519060200190929190505050613589576040517f08c379a000000000000000000000000000000000000000000000000000000000815260040180806020018281038252600e8152602001807f617070726f76616c206572726f7200000000000000000000000000000000000081525060200191505060405180910390fd5b6000600560009054906101000a900473ffffffffffffffffffffffffffffffffffffffff1673ffffffffffffffffffffffffffffffffffffffff1663a0712d68846040518263ffffffff1660e01b815260040180828152602001915050602060405180830381600087803b15801561360057600080fd5b505af1158015613614573d6000803e3d6000fd5b505050506040513d602081101561362a57600080fd5b8101908080519060200190929190505050146136ae576040517f08c379a000000000000000000000000000000000000000000000000000000000815260040180806020018281038252600d8152602001807f6d696e74696e67206572726f720000000000000000000000000000000000000081525060200191505060405180910390fd5b7fdf4dcf17030d087ed1d90ed3c90719c7260706c1c4a88505dd2d0a982887cf433383600460019054906101000a900473ffffffffffffffffffffffffffffffffffffffff16604051808473ffffffffffffffffffffffffffffffffffffffff1673ffffffffffffffffffffffffffffffffffffffff1681526020018381526020018273ffffffffffffffffffffffffffffffffffffffff1673ffffffffffffffffffffffffffffffffffffffff168152602001935050505060405180910390a160019050919050565b600460019054906101000a900473ffffffffffffffffffffffffffffffffffffffff1673ffffffffffffffffffffffffffffffffffffffff168273ffffffffffffffffffffffffffffffffffffffff1614156137d357600080fd5b600560009054906101000a900473ffffffffffffffffffffffffffffffffffffffff1673ffffffffffffffffffffffffffffffffffffffff168173ffffffffffffffffffffffffffffffffffffffff16141561382e57600080fd5b3373ffffffffffffffffffffffffffffffffffffffff16600160009054906101000a900473ffffffffffffffffffffffffffffffffffffffff1673ffffffffffffffffffffffffffffffffffffffff161461388857600080fd5b6000600560009054906101000a900473ffffffffffffffffffffffffffffffffffffffff1673ffffffffffffffffffffffffffffffffffffffff166317bfdfbc306040518263ffffffff1660e01b8152600401808273ffffffffffffffffffffffffffffffffffffffff1673ffffffffffffffffffffffffffffffffffffffff168152602001915050602060405180830381600087803b15801561392b57600080fd5b505af115801561393f573d6000803e3d6000fd5b505050506040513d602081101561395557600080fd5b81019080805190602001909291905050509050600081146139de576040517f08c379a00000000000000000000000000000000000000000000000000000000081526004018080602001828103825260128152602001807f6e65656420746f2072657061792064656274000000000000000000000000000081525060200191505060405180910390fd5b6000829050600084905060008273ffffffffffffffffffffffffffffffffffffffff166370a08231306040518263ffffffff1660e01b8152600401808273ffffffffffffffffffffffffffffffffffffffff1673ffffffffffffffffffffffffffffffffffffffff16815260200191505060206040518083038186803b158015613a6757600080fd5b505afa158015613a7b573d6000803e3d6000fd5b505050506040513d6020811015613a9157600080fd5b8101908080519060200190929190505050905060008373ffffffffffffffffffffffffffffffffffffffff1663db006a75836040518263ffffffff1660e01b815260040180828152602001915050602060405180830381600087803b158015613af957600080fd5b505af1158015613b0d573d6000803e3d6000fd5b505050506040513d6020811015613b2357600080fd5b810190808051906020019092919050505014613ba7576040517f08c379a000000000000000000000000000000000000000000000000000000000815260040180806020018281038252600c8152602001807f72656465656d206572726f72000000000000000000000000000000000000000081525060200191505060405180910390fd5b60008273ffffffffffffffffffffffffffffffffffffffff166370a08231306040518263ffffffff1660e01b8152600401808273ffffffffffffffffffffffffffffffffffffffff1673ffffffffffffffffffffffffffffffffffffffff16815260200191505060206040518083038186803b158015613c2657600080fd5b505afa158015613c3a573d6000803e3d6000fd5b505050506040513d6020811015613c5057600080fd5b810190808051906020019092919050505090508273ffffffffffffffffffffffffffffffffffffffff1663a9059cbb600160009054906101000a900473ffffffffffffffffffffffffffffffffffffffff16836040518363ffffffff1660e01b8152600401808373ffffffffffffffffffffffffffffffffffffffff1673ffffffffffffffffffffffffffffffffffffffff16815260200182815260200192505050602060405180830381600087803b158015613d0c57600080fd5b505af1158015613d20573d6000803e3d6000fd5b505050506040513d6020811015613d3657600080fd5b8101908080519060200190929190505050507fb351bfea8918821257d5f21ea5fa60898bf5ab6d9de5be133460652887c6ca048782604051808373ffffffffffffffffffffffffffffffffffffffff1673ffffffffffffffffffffffffffffffffffffffff1681526020018281526020019250505060405180910390a150505050505050565b8273ffffffffffffffffffffffffffffffffffffffff16600560009054906101000a900473ffffffffffffffffffffffffffffffffffffffff1673ffffffffffffffffffffffffffffffffffffffff161415613e1757600080fd5b600083905060008290508173ffffffffffffffffffffffffffffffffffffffff16631249c58b6203d090346040518363ffffffff1660e01b81526004016000604051808303818589803b158015613e6d57600080fd5b5088f1158015613e81573d6000803e3d6000fd5b5050505050506060600167ffffffffffffffff81118015613ea157600080fd5b50604051908082528060200260200182016040528015613ed05781602001602082028036833780820191505090505b5090508581600081518110613ee157fe5b602002602001019073ffffffffffffffffffffffffffffffffffffffff16908173ffffffffffffffffffffffffffffffffffffffff168152505060608273ffffffffffffffffffffffffffffffffffffffff1663c2998238836040518263ffffffff1660e01b81526004018080602001828103825283818151815260200191508051906020019060200280838360005b83811015613f8c578082015181840152602081019050613f71565b5050505090500192505050600060405180830381600087803b158015613fb157600080fd5b505af1158015613fc5573d6000803e3d6000fd5b505050506040513d6000823e3d601f19601f820116820180604052506020811015613fef57600080fd5b810190808051604051939291908464010000000082111561400f57600080fd5b8382019150602082018581111561402557600080fd5b825186602082028301116401000000008211171561404257600080fd5b8083526020830192505050908051906020019060200280838360005b8381101561407957808201518184015260208101905061405e565b50505050905001604052505050905060008160008151811061409757fe5b602002602001015114614112576040517f08c379a00000000000000000000000000000000000000000000000000000000081526004018080602001828103825260208152602001807f436f6d7074726f6c6c65722e656e7465724d61726b657473206661696c65642e81525060200191505060405180910390fd5b600560009054906101000a900473ffffffffffffffffffffffffffffffffffffffff1673ffffffffffffffffffffffffffffffffffffffff1663c5ebeaec876040518263ffffffff1660e01b815260040180828152602001915050602060405180830381600087803b15801561418757600080fd5b505af115801561419b573d6000803e3d6000fd5b505050506040513d60208110156141b157600080fd5b8101908080519060200190929190505050506141d88660005461451890919063ffffffff16565b600081905550600460019054906101000a900473ffffffffffffffffffffffffffffffffffffffff1673ffffffffffffffffffffffffffffffffffffffff1663095ea7b3600560009054906101000a900473ffffffffffffffffffffffffffffffffffffffff16886040518363ffffffff1660e01b8152600401808373ffffffffffffffffffffffffffffffffffffffff1673ffffffffffffffffffffffffffffffffffffffff16815260200182815260200192505050602060405180830381600087803b1580156142a957600080fd5b505af11580156142bd573d6000803e3d6000fd5b505050506040513d60208110156142d357600080fd5b8101908080519060200190929190505050506000600560009054906101000a900473ffffffffffffffffffffffffffffffffffffffff1673ffffffffffffffffffffffffffffffffffffffff1663a0712d68886040518263ffffffff1660e01b815260040180828152602001915050602060405180830381600087803b15801561435c57600080fd5b505af1158015614370573d6000803e3d6000fd5b505050506040513d602081101561438657600080fd5b81019080805190602001909291905050501461440a576040517f08c379a000000000000000000000000000000000000000000000000000000000815260040180806020018281038252600d8152602001807f6d696e74696e67206572726f720000000000000000000000000000000000000081525060200191505060405180910390fd5b7fca8fdcef63abf7bf268376b5ef99a94180913f303621a2137549bb61aa6414c334600460019054906101000a900473ffffffffffffffffffffffffffffffffffffffff1688604051808481526020018373ffffffffffffffffffffffffffffffffffffffff1673ffffffffffffffffffffffffffffffffffffffff168152602001828152602001935050505060405180910390a150505050505050565b600460019054906101000a900473ffffffffffffffffffffffffffffffffffffffff1681565b600061451083836040518060400160405280601e81526020017f536166654d6174683a207375627472616374696f6e206f766572666c6f7700008152506145a0565b905092915050565b600080828401905083811015614596576040517f08c379a000000000000000000000000000000000000000000000000000000000815260040180806020018281038252601b8152602001807f536166654d6174683a206164646974696f6e206f766572666c6f77000000000081525060200191505060405180910390fd5b8091505092915050565b600083831115829061464d576040517f08c379a00000000000000000000000000000000000000000000000000000000081526004018080602001828103825283818151815260200191508051906020019080838360005b838110156146125780820151818401526020810190506145f7565b50505050905090810190601f16801561463f5780820380516001836020036101000a031916815260200191505b509250505060405180910390fd5b506000838503905080915050939250505056fea264697066735822122008febf37f1fa1d423ce25eecd764e2292b9a3cfe7df2fa3e48f8e860ce23df3464736f6c63430006060033",
  "immutableReferences": {},
  "source": "pragma solidity ^0.6.0;\n\nimport \"@openzeppelin/contracts/token/ERC20/IERC20.sol\";\nimport \"@openzeppelin/contracts/cryptography/ECDSA.sol\";\nimport \"@openzeppelin/contracts/math/SafeMath.sol\";\n\ninterface CompChannelFactory {\n  function checkSignature(address, address, uint8, uint256, bytes calldata) external returns (bool);\n}\n\ninterface CERC20 {\n  function mint(uint256) external returns (uint256);\n  function redeem(uint256) external returns (uint256);\n  function balanceOf(address) external view returns (uint256);\n  function borrow(uint256) external returns (uint256);\n  function borrowBalanceCurrent(address) external returns (uint256);\n  function repayBorrow(uint256) external returns (uint256);\n}\n\ninterface CETH {\n  function mint() external payable;\n  function exchangeRateCurrent() external returns (uint256);\n  function supplyRatePerBlock() external returns (uint256);\n  function redeem(uint256) external returns (uint256);\n  function redeemUnderlying(uint256) external returns (uint256);\n  function balanceOf(address) external view returns (uint256);\n  function borrow(uint256) external returns (uint256);\n  function borrowBalanceCurrent(address) external returns (uint256);\n  function repayBorrow() external payable;\n}\n\ninterface Comptroller {\n  function markets(address) external returns (bool, uint256);\n  function enterMarkets(address[] calldata) external returns (uint256[] memory);\n  function getAccountLiquidity(address) external view returns (uint256, uint256, uint256);\n}\n\ncontract Erc20Channel {\n  using SafeMath for uint256;\n\n/* ============ State variables ============ */\n  uint256 public underlyingBalance; // underlying asset balance\n  address payable public sender;\n  address payable public recipient;\n  uint256 public endTime;\n  uint8 public channelNonce;\n  IERC20 public token;\n  CERC20 public cToken;\n  address public factoryAddress;\n  bool initialized;\n\n/* ============ Events ============ */\n  event FundsDeposited(address depositor, uint256 amount, address tokenAddress);\n  event ChannelForceClosed(uint256 senderAmount, uint256 closedTime);\n  event ChannelClosed(uint256 senderAmount, uint256 recipientAmount, uint256 closedTime);\n  event FundsBorrowedAgainstERC20(\n    address tokenGive, \n    uint256 giveAmount, \n    address tokenBorrowed, \n    uint256 borrowAmount\n  );\n  event FundsBorrowedAgainstEth(\n    uint256 giveAmount, \n    address tokenBorrowed, \n    uint256 borrowAmount\n  );\n  event BorrowedFundsRepaid(uint256 repayAmount, address tokenAddress);\n  event LoanedERC20Withdrawn(address tokenAddress, uint256 withdrawAmount);\n  event LoanedEthWithdrawn(uint256 withdrawAmount);\n  event EndTimeExtended(uint256 newTime);\n\n  /* ============ Public Functions ============ */\n  /**\n   * Initializes state variable and can only run once when the channel is created/cloned in place of constructor\n   *\n   * @param _sender               Address that will be depositing funds into the channel\n   * @param _recipient            Address that will recieve some of the funds when channel is closed\n   * @param _endTime              Time in unix when the channel can be forced closed\n   * @param _tokenAddress         Address of the underlying token for the channel (ex: DAI Address)\n   * @param _cTokenAddress        Address of the cToken for the channel (ex: cDAI Address)\n   * @param _factoryAddress       The address of the factory that created the channel\n   */\n  function init(\n    address payable _sender,\n    address payable _recipient,\n    uint256 _endTime,\n    address _tokenAddress,\n    address _cTokenAddress,\n    address _factoryAddress\n  ) public returns(bool) {\n     // Makes sure the function can only be called once \n    require(initialized == false, 'already initialized');\n    initialized = true;\n\n    factoryAddress = _factoryAddress;\n    sender = _sender;\n    recipient = _recipient;\n    endTime = _endTime;\n    token = IERC20(_tokenAddress); // zero address if underlying is Ether \n    cToken = CERC20(_cTokenAddress);\n\n    return true; \n  }\n\n  /**\n   * Used to deposit the underlying asset into the channel and converts it into cToken (ex: deposit DAI for a cDAI channel)\n   *\n   * @param _amount             The amount of underlying token to be added to the channel\n   */\n  function depositERC20(uint256 _amount) public returns(bool) {\n    token.transferFrom(msg.sender, address(this), _amount);\n    underlyingBalance = underlyingBalance.add(_amount); // update underlying asset balance\n    require(token.approve(address(cToken), _amount), 'approval error');\n    require(cToken.mint(_amount) == 0, 'minting error');\n\n    emit FundsDeposited(msg.sender, _amount, address(token));\n    return true;\n  }\n\n  /**\n   * Emergency function that is to be called if the recipient doesn't call the close function before the specified endTime\n   *\n   */ \n  function forceClose() public {\n    require(now > endTime, 'too early to close');\n    require(msg.sender == sender, 'nonsender address');\n    underlyingBalance = 0;\n    channelNonce += 1;\n    \n    uint256 cTokenBalance = cToken.balanceOf(address(this));\n    require(cToken.redeem(cTokenBalance) == 0, \"redeem error\");\n    uint256 balance = token.balanceOf(address(this));\n    token.transfer(sender, balance);\n    emit ChannelForceClosed(balance, block.timestamp);\n  }\n\n  /**\n   * Called by the recipient when they would like to recieve their payment\n   *\n   * @param _amount             The amount of underlying token that was signed to the recipient\n   * @param _signature          Sig that was created to the recipient for a specific amount\n   */\n  function close(\n    uint256 _amount,\n    bytes memory _signature\n  ) public {\n    require(msg.sender == recipient, 'nonrecipient address');\n   CompChannelFactory compFactory = CompChannelFactory(factoryAddress);\n\n    require(compFactory.checkSignature(\n      sender,\n      address(this),\n      channelNonce,\n      _amount,\n      _signature\n    ), 'invalid signature');\n\n    channelNonce += 1;\n    underlyingBalance = 0;\n    // Redeem Tokens\n    uint256 cTokenBalance = cToken.balanceOf(address(this));\n    require(cToken.redeem(cTokenBalance) == 0, \"redeem error\");\n\n    uint256 balance = token.balanceOf(address(this));\n    uint256 toRecipient = balance < _amount ? balance : _amount;\n    require(token.transfer(recipient, toRecipient), \"transfer error\");\n    if (toRecipient < balance) {\n      uint256 toSender = balance.sub(toRecipient);\n      token.transfer(sender, toSender);\n      emit ChannelClosed(toSender, toRecipient, block.timestamp);\n    }\n    else {\n      emit ChannelClosed(0, toRecipient, block.timestamp);\n    }\n  }\n\n  /**\n   * Allows someone to borrow the underlying ERC20 token of the channel from Compound against a different Compound ERC20 asset\n   *\n   * @param _tokenGive            ERC20 address that is provided to borrow against\n   * @param _cTokenGive           cToken address of the token that is provided to borrow against\n   * @param _giveAmount           The amount of the provided to token that they are willing to supply\n   * @param _getAmount            How much of the underlying token they would like to receive\n   * @param _compTrollAddress     Compound Comptroller Address\n   */\n\n  function borrowERC20AgainstERC20(\n    address _tokenGive, \n    address _cTokenGive, \n    uint256 _giveAmount,\n    uint256 _getAmount,\n    address _compTrollAddress\n    ) public {\n    // Prevents from entering the market of the channel asset\n    require(address(cToken) != _cTokenGive);\n\n    // Contract Instances\n    IERC20 tokenGive = IERC20(_tokenGive);\n    CERC20 cTokenGive = CERC20(_cTokenGive);\n    Comptroller comptroller = Comptroller(_compTrollAddress);\n\n    // Move allowance to channel\n    tokenGive.transferFrom(msg.sender, address(this), _giveAmount);\n\n    // Supply Colateral for borrow\n    require(tokenGive.approve(_cTokenGive, _giveAmount), 'approval error');\n    require(cTokenGive.mint(_giveAmount) == 0, 'minting error');\n\n    // Enter the market\n    address[] memory cTokens = new address[](1);\n    cTokens[0] = _cTokenGive;\n    uint256[] memory errors = comptroller.enterMarkets(cTokens);\n    if (errors[0] != 0) {\n      revert(\"Comptroller.enterMarkets failed.\");\n    }\n    cToken.borrow(_getAmount);\n    underlyingBalance = underlyingBalance.add(_getAmount); // update underlying asset balance\n    // Takes borrow amount and converts back to cToken\n    token.approve(address(cToken), _getAmount);\n    require(cToken.mint(_getAmount) == 0, 'minting error');\n\n    emit FundsBorrowedAgainstERC20(_tokenGive, _giveAmount, address(token), _getAmount);\n  }\n\n  /**\n   * Allows someone to borrow the underlying ERC20 token of the channel from Compound against a Ether\n   *\n   * @param _cEth                 cEther address\n   * @param _getAmount            How much of the underlying token they would like to receive\n   * @param _compTrollAddress     Compound Comptroller Address\n   */\n  function borrowERC20AgainstETH(\n    address _cEth, \n    uint256 _getAmount,\n    address _compTrollAddress\n    ) public payable {\n    require(address(cToken) != _cEth);\n\n    // Contract Instances\n    CETH cEthGive = CETH(_cEth);\n    Comptroller comptroller = Comptroller(_compTrollAddress);\n    \n    // Supply Colateral for borrow\n    cEthGive.mint{gas: 250000, value: msg.value}(); //0.6.0 syntax\n\n    // Enter the market\n    address[] memory cTokens = new address[](1);\n    cTokens[0] = _cEth;\n    uint256[] memory errors = comptroller.enterMarkets(cTokens);\n    if (errors[0] != 0) {\n      revert(\"Comptroller.enterMarkets failed.\");\n    }\n    cToken.borrow(_getAmount);\n    underlyingBalance = underlyingBalance.add(_getAmount); // update underlying asset balance\n    // Takes borrow amount and converts back to cToken\n    token.approve(address(cToken), _getAmount);\n    require(cToken.mint(_getAmount) == 0, 'minting error');\n\n    emit FundsBorrowedAgainstEth(msg.value, address(token), _getAmount);\n  }\n\n  /**\n   * Repays the borrowed underlying asset of the channel if an allowance has been set for the channel contract\n   *\n   */ \n  function repayERC20Borrowed() public {\n    uint256 allowance = token.allowance(msg.sender, address(this));\n    uint256 repayAmount = cToken.borrowBalanceCurrent(address(this));\n\n    if (allowance > repayAmount) {\n      token.transferFrom(msg.sender, address(this), repayAmount);\n      token.approve(address(cToken), repayAmount);\n      require(cToken.repayBorrow(repayAmount) == 0, 'repay error');\n      emit BorrowedFundsRepaid(repayAmount, address(token));\n    }\n\n    else {\n      token.transferFrom(msg.sender, address(this), allowance);\n      token.approve(address(cToken), allowance);\n      require(cToken.repayBorrow(allowance) == 0, 'repay error');\n      emit BorrowedFundsRepaid(allowance, address(token));\n    }\n  }\n\n  /**\n   * Withdraws the ERC20 that was used to borrow against once the debt has been repaid\n   *\n   * @param _tokenGave            ERC20 token address of the token that was supplied\n   * @param _cTokenGave           cToken address of the token that was supplied\n   */\n  function withdrawLoanedERC20(address _tokenGave, address _cTokenGave) public {\n    require(_tokenGave != address(token));\n    require(_cTokenGave != address(cToken));\n    require(sender == msg.sender);\n\n    uint256 repayAmount = cToken.borrowBalanceCurrent(address(this));\n    require(repayAmount == 0, 'need to repay debt');\n\n    CERC20 cTokenGave = CERC20(_cTokenGave);\n    IERC20 tokenGave = IERC20(_tokenGave);\n    \n    uint256 cTokenBalance = cTokenGave.balanceOf(address(this));\n    require(cTokenGave.redeem(cTokenBalance) == 0, 'redeem error');\n    uint256 tokenBalance = tokenGave.balanceOf(address(this));\n    tokenGave.transfer(sender, tokenBalance);\n    emit LoanedERC20Withdrawn(_tokenGave, tokenBalance);\n  }\n\n  /**\n   * Withdraws the Ether that was used to borrow against once the debt has been repaid\n   *\n   * @param _cEth           cToken address of the token that was supplied\n   */\n  function withdrawLoanedEth(address _cEth) public {\n    require(_cEth != address(cToken));\n    require(sender == msg.sender);\n    \n    uint256 repayAmount = cToken.borrowBalanceCurrent(address(this));\n    require(repayAmount == 0, 'need to repay debt');\n\n    CETH cEther = CETH(_cEth);\n    uint256 cEthBalance = cEther.balanceOf(address(this));\n    require(cEther.redeem(cEthBalance) == 0, 'redeem error');\n    sender.transfer(address(this).balance);\n    emit LoanedEthWithdrawn(address(this).balance);\n  }\n\n  /**\n   * Extends the end time of the channel to a further date if proposed by the sender and the new time is greater than the currenct end time\n   *\n   * @param _newTime         Proposed new end time\n   */\n  function extendEndTime(uint256 _newTime) public {\n    require(msg.sender == sender, 'nonsender address');\n    require(_newTime > endTime, 'newTime needs to be > endTime');\n    \n    endTime = _newTime;\n    emit EndTimeExtended(_newTime);\n  }\n  \n  fallback() external payable { }\n//   fallback() external { revert(\"Function not found\"); } \n//   receive() external payable { }\n}",
  "sourcePath": "/Users/justsomeguy/Documents/hack-money/compound-channels/contracts/Erc20Channel.sol",
  "compiler": {
    "name": "solc",
    "version": "0.6.6+commit.6c089d02.Emscripten.clang"
  },
  "schemaVersion": "3.1.0",
  "updatedAt": "2020-05-19T21:03:37.692Z",
  "devdoc": {
    "methods": {
      "borrowERC20AgainstERC20(address,address,uint256,uint256,address)": {
        "params": {
          "_cTokenGive": "cToken address of the token that is provided to borrow against",
          "_compTrollAddress": "Compound Comptroller Address",
          "_getAmount": "How much of the underlying token they would like to receive",
          "_giveAmount": "The amount of the provided to token that they are willing to supply",
          "_tokenGive": "ERC20 address that is provided to borrow against"
        }
      },
      "borrowERC20AgainstETH(address,uint256,address)": {
        "params": {
          "_cEth": "cEther address",
          "_compTrollAddress": "Compound Comptroller Address",
          "_getAmount": "How much of the underlying token they would like to receive"
        }
      },
      "close(uint256,bytes)": {
        "params": {
          "_amount": "The amount of underlying token that was signed to the recipient",
          "_signature": "Sig that was created to the recipient for a specific amount"
        }
      },
      "depositERC20(uint256)": {
        "params": {
          "_amount": "The amount of underlying token to be added to the channel"
        }
      },
      "extendEndTime(uint256)": {
        "params": {
          "_newTime": "Proposed new end time"
        }
      },
      "init(address,address,uint256,address,address,address)": {
        "params": {
          "_cTokenAddress": "Address of the cToken for the channel (ex: cDAI Address)",
          "_endTime": "Time in unix when the channel can be forced closed",
          "_factoryAddress": "The address of the factory that created the channel",
          "_recipient": "Address that will recieve some of the funds when channel is closed",
          "_sender": "Address that will be depositing funds into the channel",
          "_tokenAddress": "Address of the underlying token for the channel (ex: DAI Address)"
        }
      },
      "withdrawLoanedERC20(address,address)": {
        "params": {
          "_cTokenGave": "cToken address of the token that was supplied",
          "_tokenGave": "ERC20 token address of the token that was supplied"
        }
      },
      "withdrawLoanedEth(address)": {
        "params": {
          "_cEth": "cToken address of the token that was supplied"
        }
      }
    }
  },
  "userdoc": {
    "methods": {
      "borrowERC20AgainstERC20(address,address,uint256,uint256,address)": {
        "notice": "Allows someone to borrow the underlying ERC20 token of the channel from Compound against a different Compound ERC20 asset"
      },
      "borrowERC20AgainstETH(address,uint256,address)": {
        "notice": "Allows someone to borrow the underlying ERC20 token of the channel from Compound against a Ether"
      },
      "close(uint256,bytes)": {
        "notice": "Called by the recipient when they would like to recieve their payment"
      },
      "depositERC20(uint256)": {
        "notice": "Used to deposit the underlying asset into the channel and converts it into cToken (ex: deposit DAI for a cDAI channel)"
      },
      "extendEndTime(uint256)": {
        "notice": "Extends the end time of the channel to a further date if proposed by the sender and the new time is greater than the currenct end time"
      },
      "forceClose()": {
        "notice": "Emergency function that is to be called if the recipient doesn't call the close function before the specified endTime   "
      },
      "init(address,address,uint256,address,address,address)": {
        "notice": "Initializes state variable and can only run once when the channel is created/cloned in place of constructor"
      },
      "repayERC20Borrowed()": {
        "notice": "Repays the borrowed underlying asset of the channel if an allowance has been set for the channel contract   "
      },
      "withdrawLoanedERC20(address,address)": {
        "notice": "Withdraws the ERC20 that was used to borrow against once the debt has been repaid"
      },
      "withdrawLoanedEth(address)": {
        "notice": "Withdraws the Ether that was used to borrow against once the debt has been repaid"
      }
    }
  }
}