{
  "contractName": "EthChannel",
  "abi": [
    {
      "anonymous": false,
      "inputs": [
        {
          "indexed": false,
          "internalType": "uint256",
          "name": "repayAmount",
          "type": "uint256"
        }
      ],
      "name": "BorrowedEthRepaid",
      "type": "event"
    },
    {
      "anonymous": false,
      "inputs": [
        {
          "indexed": false,
          "internalType": "uint256",
          "name": "senderAmount",
          "type": "uint256"
        },
        {
          "indexed": false,
          "internalType": "uint256",
          "name": "recipientAmount",
          "type": "uint256"
        },
        {
          "indexed": false,
          "internalType": "uint256",
          "name": "closedTime",
          "type": "uint256"
        }
      ],
      "name": "ChannelClosed",
      "type": "event"
    },
    {
      "anonymous": false,
      "inputs": [
        {
          "indexed": false,
          "internalType": "uint256",
          "name": "senderAmount",
          "type": "uint256"
        },
        {
          "indexed": false,
          "internalType": "uint256",
          "name": "closedTime",
          "type": "uint256"
        }
      ],
      "name": "ChannelForceClosed",
      "type": "event"
    },
    {
      "anonymous": false,
      "inputs": [
        {
          "indexed": false,
          "internalType": "uint256",
          "name": "newTime",
          "type": "uint256"
        }
      ],
      "name": "EndTimeExtended",
      "type": "event"
    },
    {
      "anonymous": false,
      "inputs": [
        {
          "indexed": false,
          "internalType": "address",
          "name": "tokenGive",
          "type": "address"
        },
        {
          "indexed": false,
          "internalType": "uint256",
          "name": "giveAmount",
          "type": "uint256"
        },
        {
          "indexed": false,
          "internalType": "uint256",
          "name": "borrowAmount",
          "type": "uint256"
        }
      ],
      "name": "EthBorrowedAgainstERC20",
      "type": "event"
    },
    {
      "anonymous": false,
      "inputs": [
        {
          "indexed": false,
          "internalType": "address",
          "name": "depositor",
          "type": "address"
        },
        {
          "indexed": false,
          "internalType": "uint256",
          "name": "amount",
          "type": "uint256"
        }
      ],
      "name": "EthDeposited",
      "type": "event"
    },
    {
      "anonymous": false,
      "inputs": [
        {
          "indexed": false,
          "internalType": "address",
          "name": "tokenAddress",
          "type": "address"
        },
        {
          "indexed": false,
          "internalType": "uint256",
          "name": "withdrawAmount",
          "type": "uint256"
        }
      ],
      "name": "LoanedERC20Withdrawn",
      "type": "event"
    },
    {
      "stateMutability": "payable",
      "type": "fallback"
    },
    {
      "inputs": [],
      "name": "cEther",
      "outputs": [
        {
          "internalType": "contract CETH",
          "name": "",
          "type": "address"
        }
      ],
      "stateMutability": "view",
      "type": "function"
    },
    {
      "inputs": [],
      "name": "channelNonce",
      "outputs": [
        {
          "internalType": "uint8",
          "name": "",
          "type": "uint8"
        }
      ],
      "stateMutability": "view",
      "type": "function"
    },
    {
      "inputs": [],
      "name": "endTime",
      "outputs": [
        {
          "internalType": "uint256",
          "name": "",
          "type": "uint256"
        }
      ],
      "stateMutability": "view",
      "type": "function"
    },
    {
      "inputs": [],
      "name": "factoryAddress",
      "outputs": [
        {
          "internalType": "address",
          "name": "",
          "type": "address"
        }
      ],
      "stateMutability": "view",
      "type": "function"
    },
    {
      "inputs": [],
      "name": "recipient",
      "outputs": [
        {
          "internalType": "address payable",
          "name": "",
          "type": "address"
        }
      ],
      "stateMutability": "view",
      "type": "function"
    },
    {
      "inputs": [],
      "name": "sender",
      "outputs": [
        {
          "internalType": "address payable",
          "name": "",
          "type": "address"
        }
      ],
      "stateMutability": "view",
      "type": "function"
    },
    {
      "inputs": [],
      "name": "underlyingBalance",
      "outputs": [
        {
          "internalType": "uint256",
          "name": "",
          "type": "uint256"
        }
      ],
      "stateMutability": "view",
      "type": "function"
    },
    {
      "inputs": [
        {
          "internalType": "address payable",
          "name": "_sender",
          "type": "address"
        },
        {
          "internalType": "address payable",
          "name": "_recipient",
          "type": "address"
        },
        {
          "internalType": "uint256",
          "name": "_endTime",
          "type": "uint256"
        },
        {
          "internalType": "address",
          "name": "_cEtherAddress",
          "type": "address"
        },
        {
          "internalType": "address",
          "name": "_factoryAddress",
          "type": "address"
        }
      ],
      "name": "init",
      "outputs": [
        {
          "internalType": "bool",
          "name": "",
          "type": "bool"
        }
      ],
      "stateMutability": "nonpayable",
      "type": "function"
    },
    {
      "inputs": [],
      "name": "depositEth",
      "outputs": [
        {
          "internalType": "bool",
          "name": "",
          "type": "bool"
        }
      ],
      "stateMutability": "payable",
      "type": "function"
    },
    {
      "inputs": [],
      "name": "forceClose",
      "outputs": [],
      "stateMutability": "nonpayable",
      "type": "function"
    },
    {
      "inputs": [
        {
          "internalType": "uint256",
          "name": "_amount",
          "type": "uint256"
        },
        {
          "internalType": "bytes",
          "name": "_signature",
          "type": "bytes"
        }
      ],
      "name": "close",
      "outputs": [],
      "stateMutability": "nonpayable",
      "type": "function"
    },
    {
      "inputs": [
        {
          "internalType": "address",
          "name": "_tokenGive",
          "type": "address"
        },
        {
          "internalType": "address",
          "name": "_cTokenGive",
          "type": "address"
        },
        {
          "internalType": "uint256",
          "name": "_giveAmount",
          "type": "uint256"
        },
        {
          "internalType": "uint256",
          "name": "_getAmount",
          "type": "uint256"
        }
      ],
      "name": "borrowEthAgainstERC20",
      "outputs": [],
      "stateMutability": "nonpayable",
      "type": "function"
    },
    {
      "inputs": [],
      "name": "repayEthBorrowed",
      "outputs": [],
      "stateMutability": "payable",
      "type": "function"
    },
    {
      "inputs": [
        {
          "internalType": "address",
          "name": "_tokenGave",
          "type": "address"
        },
        {
          "internalType": "address",
          "name": "_cTokenGave",
          "type": "address"
        }
      ],
      "name": "withdrawLoanedERC20",
      "outputs": [],
      "stateMutability": "nonpayable",
      "type": "function"
    },
    {
      "inputs": [
        {
          "internalType": "uint256",
          "name": "_newTime",
          "type": "uint256"
        }
      ],
      "name": "extendEndTime",
      "outputs": [],
      "stateMutability": "nonpayable",
      "type": "function"
    }
  ],
  "bytecode": "0x608060405234801561001057600080fd5b5061285b806100206000396000f3fe6080604052600436106100ec5760003560e01c806359356c5c1161008a57806388770cb01161005957806388770cb014610463578063966dae0e1461049e578063d69c4966146104f5578063f6c2ba6114610566576100ed565b806359356c5c1461037357806366d003ac1461039e57806367e404ce146103f5578063776784141461044c576100ed565b8063415ffba7116100c6578063415ffba7146101a2578063439370b1146102745780634a5a4114146102965780634a94db28146102a0576100ed565b80631220ce42146100ef57806319b68c00146101205780633197cbb614610177576100ed565b5b005b3480156100fb57600080fd5b506101046105eb565b604051808260ff1660ff16815260200191505060405180910390f35b34801561012c57600080fd5b506101356105fe565b604051808273ffffffffffffffffffffffffffffffffffffffff1673ffffffffffffffffffffffffffffffffffffffff16815260200191505060405180910390f35b34801561018357600080fd5b5061018c610624565b6040518082815260200191505060405180910390f35b3480156101ae57600080fd5b50610272600480360360408110156101c557600080fd5b8101908080359060200190929190803590602001906401000000008111156101ec57600080fd5b8201836020820111156101fe57600080fd5b8035906020019184600183028401116401000000008311171561022057600080fd5b91908080601f016020809104026020016040519081016040528093929190818152602001838380828437600081840152601f19601f82011690508083019250505050505050919291929050505061062a565b005b61027c610d07565b604051808215151515815260200191505060405180910390f35b61029e610e1e565b005b3480156102ac57600080fd5b50610359600480360360a08110156102c357600080fd5b81019080803573ffffffffffffffffffffffffffffffffffffffff169060200190929190803573ffffffffffffffffffffffffffffffffffffffff16906020019092919080359060200190929190803573ffffffffffffffffffffffffffffffffffffffff169060200190929190803573ffffffffffffffffffffffffffffffffffffffff1690602001909291905050506110d0565b604051808215151515815260200191505060405180910390f35b34801561037f57600080fd5b5061038861128d565b6040518082815260200191505060405180910390f35b3480156103aa57600080fd5b506103b3611293565b604051808273ffffffffffffffffffffffffffffffffffffffff1673ffffffffffffffffffffffffffffffffffffffff16815260200191505060405180910390f35b34801561040157600080fd5b5061040a6112b9565b604051808273ffffffffffffffffffffffffffffffffffffffff1673ffffffffffffffffffffffffffffffffffffffff16815260200191505060405180910390f35b34801561045857600080fd5b506104616112df565b005b34801561046f57600080fd5b5061049c6004803603602081101561048657600080fd5b8101908080359060200190929190505050611702565b005b3480156104aa57600080fd5b506104b361187d565b604051808273ffffffffffffffffffffffffffffffffffffffff1673ffffffffffffffffffffffffffffffffffffffff16815260200191505060405180910390f35b34801561050157600080fd5b506105646004803603604081101561051857600080fd5b81019080803573ffffffffffffffffffffffffffffffffffffffff169060200190929190803573ffffffffffffffffffffffffffffffffffffffff1690602001909291905050506118a3565b005b34801561057257600080fd5b506105e96004803603608081101561058957600080fd5b81019080803573ffffffffffffffffffffffffffffffffffffffff169060200190929190803573ffffffffffffffffffffffffffffffffffffffff1690602001909291908035906020019092919080359060200190929190505050611e8a565b005b600460009054906101000a900460ff1681565b600460019054906101000a900473ffffffffffffffffffffffffffffffffffffffff1681565b60035481565b600260009054906101000a900473ffffffffffffffffffffffffffffffffffffffff1673ffffffffffffffffffffffffffffffffffffffff163373ffffffffffffffffffffffffffffffffffffffff16146106ed576040517f08c379a00000000000000000000000000000000000000000000000000000000081526004018080602001828103825260148152602001807f6e6f6e726563697069656e74206164647265737300000000000000000000000081525060200191505060405180910390fd5b6000600560009054906101000a900473ffffffffffffffffffffffffffffffffffffffff1690508073ffffffffffffffffffffffffffffffffffffffff1663dd569f8b600160009054906101000a900473ffffffffffffffffffffffffffffffffffffffff1630600460009054906101000a900460ff1687876040518663ffffffff1660e01b8152600401808673ffffffffffffffffffffffffffffffffffffffff1673ffffffffffffffffffffffffffffffffffffffff1681526020018573ffffffffffffffffffffffffffffffffffffffff1673ffffffffffffffffffffffffffffffffffffffff1681526020018460ff1660ff16815260200183815260200180602001828103825283818151815260200191508051906020019080838360005b8381101561082b578082015181840152602081019050610810565b50505050905090810190601f1680156108585780820380516001836020036101000a031916815260200191505b509650505050505050602060405180830381600087803b15801561087b57600080fd5b505af115801561088f573d6000803e3d6000fd5b505050506040513d60208110156108a557600080fd5b8101908080519060200190929190505050610928576040517f08c379a00000000000000000000000000000000000000000000000000000000081526004018080602001828103825260118152602001807f696e76616c6964207369676e617475726500000000000000000000000000000081525060200191505060405180910390fd5b6001600460008282829054906101000a900460ff160192506101000a81548160ff021916908360ff160217905550600080819055506000600460019054906101000a900473ffffffffffffffffffffffffffffffffffffffff1673ffffffffffffffffffffffffffffffffffffffff166370a08231306040518263ffffffff1660e01b8152600401808273ffffffffffffffffffffffffffffffffffffffff1673ffffffffffffffffffffffffffffffffffffffff16815260200191505060206040518083038186803b1580156109fe57600080fd5b505afa158015610a12573d6000803e3d6000fd5b505050506040513d6020811015610a2857600080fd5b810190808051906020019092919050505090506000600460019054906101000a900473ffffffffffffffffffffffffffffffffffffffff1673ffffffffffffffffffffffffffffffffffffffff1663db006a75836040518263ffffffff1660e01b815260040180828152602001915050602060405180830381600087803b158015610ab257600080fd5b505af1158015610ac6573d6000803e3d6000fd5b505050506040513d6020811015610adc57600080fd5b810190808051906020019092919050505014610b60576040517f08c379a000000000000000000000000000000000000000000000000000000000815260040180806020018281038252600c8152602001807f72656465656d206572726f72000000000000000000000000000000000000000081525060200191505060405180910390fd5b60004790506000858210610b745785610b76565b815b9050600260009054906101000a900473ffffffffffffffffffffffffffffffffffffffff1673ffffffffffffffffffffffffffffffffffffffff166108fc829081150290604051600060405180830381858888f19350505050158015610be0573d6000803e3d6000fd5b5081811015610cb6576000610bfe828461269390919063ffffffff16565b9050600160009054906101000a900473ffffffffffffffffffffffffffffffffffffffff1673ffffffffffffffffffffffffffffffffffffffff166108fc829081150290604051600060405180830381858888f19350505050158015610c68573d6000803e3d6000fd5b507f26f6d077fd1d0e02462503b64a3e68d59be0440af92c91d7b881fab5bdf7811081834260405180848152602001838152602001828152602001935050505060405180910390a150610cff565b7f26f6d077fd1d0e02462503b64a3e68d59be0440af92c91d7b881fab5bdf781106000824260405180848152602001838152602001828152602001935050505060405180910390a15b505050505050565b6000600460019054906101000a900473ffffffffffffffffffffffffffffffffffffffff1673ffffffffffffffffffffffffffffffffffffffff16631249c58b6203d090346040518363ffffffff1660e01b81526004016000604051808303818589803b158015610d7757600080fd5b5088f1158015610d8b573d6000803e3d6000fd5b505050505050610da6346000546126dd90919063ffffffff16565b6000819055507f66ff7c8f71ccc7c36152a41920d0d3b46ef3034359f76aa1498ed4478c204b5c3334604051808373ffffffffffffffffffffffffffffffffffffffff1673ffffffffffffffffffffffffffffffffffffffff1681526020018281526020019250505060405180910390a16001905090565b60003490506000600460019054906101000a900473ffffffffffffffffffffffffffffffffffffffff1673ffffffffffffffffffffffffffffffffffffffff166317bfdfbc306040518263ffffffff1660e01b8152600401808273ffffffffffffffffffffffffffffffffffffffff1673ffffffffffffffffffffffffffffffffffffffff16815260200191505060206040518083038186803b158015610ec457600080fd5b505afa158015610ed8573d6000803e3d6000fd5b505050506040513d6020811015610eee57600080fd5b810190808051906020019092919050505090508082111561101157600460019054906101000a900473ffffffffffffffffffffffffffffffffffffffff1673ffffffffffffffffffffffffffffffffffffffff16634e4d9fea826040518263ffffffff1660e01b81526004016000604051808303818588803b158015610f7357600080fd5b505af1158015610f87573d6000803e3d6000fd5b50505050503373ffffffffffffffffffffffffffffffffffffffff166108fc8284039081150290604051600060405180830381858888f19350505050158015610fd4573d6000803e3d6000fd5b507f28317bcfc3f1b56ca18e5b13cc59748ca558322f2b46feb1fbbb9241ace62b95816040518082815260200191505060405180910390a16110cc565b600460019054906101000a900473ffffffffffffffffffffffffffffffffffffffff1673ffffffffffffffffffffffffffffffffffffffff16634e4d9fea836040518263ffffffff1660e01b81526004016000604051808303818588803b15801561107b57600080fd5b505af115801561108f573d6000803e3d6000fd5b50505050507f28317bcfc3f1b56ca18e5b13cc59748ca558322f2b46feb1fbbb9241ace62b95826040518082815260200191505060405180910390a15b5050565b6000801515600560149054906101000a900460ff1615151461115a576040517f08c379a00000000000000000000000000000000000000000000000000000000081526004018080602001828103825260138152602001807f616c726561647920696e697469616c697a65640000000000000000000000000081525060200191505060405180910390fd5b6001600560146101000a81548160ff02191690831515021790555081600560006101000a81548173ffffffffffffffffffffffffffffffffffffffff021916908373ffffffffffffffffffffffffffffffffffffffff16021790555085600160006101000a81548173ffffffffffffffffffffffffffffffffffffffff021916908373ffffffffffffffffffffffffffffffffffffffff16021790555084600260006101000a81548173ffffffffffffffffffffffffffffffffffffffff021916908373ffffffffffffffffffffffffffffffffffffffff1602179055508360038190555082600460016101000a81548173ffffffffffffffffffffffffffffffffffffffff021916908373ffffffffffffffffffffffffffffffffffffffff1602179055506001905095945050505050565b60005481565b600260009054906101000a900473ffffffffffffffffffffffffffffffffffffffff1681565b600160009054906101000a900473ffffffffffffffffffffffffffffffffffffffff1681565b6003544211611356576040517f08c379a00000000000000000000000000000000000000000000000000000000081526004018080602001828103825260128152602001807f746f6f206561726c7920746f20636c6f7365000000000000000000000000000081525060200191505060405180910390fd5b600160009054906101000a900473ffffffffffffffffffffffffffffffffffffffff1673ffffffffffffffffffffffffffffffffffffffff163373ffffffffffffffffffffffffffffffffffffffff1614611419576040517f08c379a00000000000000000000000000000000000000000000000000000000081526004018080602001828103825260118152602001807f6e6f6e73656e646572206164647265737300000000000000000000000000000081525060200191505060405180910390fd5b600080819055506001600460008282829054906101000a900460ff160192506101000a81548160ff021916908360ff1602179055506000600460019054906101000a900473ffffffffffffffffffffffffffffffffffffffff1673ffffffffffffffffffffffffffffffffffffffff166370a08231306040518263ffffffff1660e01b8152600401808273ffffffffffffffffffffffffffffffffffffffff1673ffffffffffffffffffffffffffffffffffffffff16815260200191505060206040518083038186803b1580156114ef57600080fd5b505afa158015611503573d6000803e3d6000fd5b505050506040513d602081101561151957600080fd5b810190808051906020019092919050505090506000600460019054906101000a900473ffffffffffffffffffffffffffffffffffffffff1673ffffffffffffffffffffffffffffffffffffffff1663db006a75836040518263ffffffff1660e01b815260040180828152602001915050602060405180830381600087803b1580156115a357600080fd5b505af11580156115b7573d6000803e3d6000fd5b505050506040513d60208110156115cd57600080fd5b810190808051906020019092919050505014611651576040517f08c379a000000000000000000000000000000000000000000000000000000000815260040180806020018281038252600c8152602001807f72656465656d206572726f72000000000000000000000000000000000000000081525060200191505060405180910390fd5b6000479050600160009054906101000a900473ffffffffffffffffffffffffffffffffffffffff1673ffffffffffffffffffffffffffffffffffffffff166108fc829081150290604051600060405180830381858888f193505050501580156116be573d6000803e3d6000fd5b507f485ab7fed10680c9edd6e84fbdfc791fd018adf3d961f274b8c34486110bf93a8142604051808381526020018281526020019250505060405180910390a15050565b600160009054906101000a900473ffffffffffffffffffffffffffffffffffffffff1673ffffffffffffffffffffffffffffffffffffffff163373ffffffffffffffffffffffffffffffffffffffff16146117c5576040517f08c379a00000000000000000000000000000000000000000000000000000000081526004018080602001828103825260118152602001807f6e6f6e73656e646572206164647265737300000000000000000000000000000081525060200191505060405180910390fd5b600354811161183c576040517f08c379a000000000000000000000000000000000000000000000000000000000815260040180806020018281038252601d8152602001807f6e657754696d65206e6565647320746f206265203e20656e6454696d6500000081525060200191505060405180910390fd5b806003819055507f596c38936cc80c9f5cd39387dc2b9553f5667864208428ea95416c334f239c92816040518082815260200191505060405180910390a150565b600560009054906101000a900473ffffffffffffffffffffffffffffffffffffffff1681565b600460019054906101000a900473ffffffffffffffffffffffffffffffffffffffff1673ffffffffffffffffffffffffffffffffffffffff168173ffffffffffffffffffffffffffffffffffffffff1614156118fe57600080fd5b3373ffffffffffffffffffffffffffffffffffffffff16600160009054906101000a900473ffffffffffffffffffffffffffffffffffffffff1673ffffffffffffffffffffffffffffffffffffffff161461195857600080fd5b6000600460019054906101000a900473ffffffffffffffffffffffffffffffffffffffff1673ffffffffffffffffffffffffffffffffffffffff166317bfdfbc306040518263ffffffff1660e01b8152600401808273ffffffffffffffffffffffffffffffffffffffff1673ffffffffffffffffffffffffffffffffffffffff16815260200191505060206040518083038186803b1580156119f957600080fd5b505afa158015611a0d573d6000803e3d6000fd5b505050506040513d6020811015611a2357600080fd5b8101908080519060200190929190505050905060008114611aac576040517f08c379a00000000000000000000000000000000000000000000000000000000081526004018080602001828103825260128152602001807f6e65656420746f2072657061792064656274000000000000000000000000000081525060200191505060405180910390fd5b6000829050600084905060008273ffffffffffffffffffffffffffffffffffffffff166370a08231306040518263ffffffff1660e01b8152600401808273ffffffffffffffffffffffffffffffffffffffff1673ffffffffffffffffffffffffffffffffffffffff16815260200191505060206040518083038186803b158015611b3557600080fd5b505afa158015611b49573d6000803e3d6000fd5b505050506040513d6020811015611b5f57600080fd5b8101908080519060200190929190505050905060008373ffffffffffffffffffffffffffffffffffffffff1663db006a75836040518263ffffffff1660e01b815260040180828152602001915050602060405180830381600087803b158015611bc757600080fd5b505af1158015611bdb573d6000803e3d6000fd5b505050506040513d6020811015611bf157600080fd5b810190808051906020019092919050505014611c75576040517f08c379a000000000000000000000000000000000000000000000000000000000815260040180806020018281038252600c8152602001807f72656465656d206572726f72000000000000000000000000000000000000000081525060200191505060405180910390fd5b60008273ffffffffffffffffffffffffffffffffffffffff166370a08231306040518263ffffffff1660e01b8152600401808273ffffffffffffffffffffffffffffffffffffffff1673ffffffffffffffffffffffffffffffffffffffff16815260200191505060206040518083038186803b158015611cf457600080fd5b505afa158015611d08573d6000803e3d6000fd5b505050506040513d6020811015611d1e57600080fd5b810190808051906020019092919050505090508273ffffffffffffffffffffffffffffffffffffffff1663a9059cbb600160009054906101000a900473ffffffffffffffffffffffffffffffffffffffff16836040518363ffffffff1660e01b8152600401808373ffffffffffffffffffffffffffffffffffffffff1673ffffffffffffffffffffffffffffffffffffffff16815260200182815260200192505050602060405180830381600087803b158015611dda57600080fd5b505af1158015611dee573d6000803e3d6000fd5b505050506040513d6020811015611e0457600080fd5b8101908080519060200190929190505050507fb351bfea8918821257d5f21ea5fa60898bf5ab6d9de5be133460652887c6ca048782604051808373ffffffffffffffffffffffffffffffffffffffff1673ffffffffffffffffffffffffffffffffffffffff1681526020018281526020019250505060405180910390a150505050505050565b8273ffffffffffffffffffffffffffffffffffffffff16600460019054906101000a900473ffffffffffffffffffffffffffffffffffffffff1673ffffffffffffffffffffffffffffffffffffffff161415611ee557600080fd5b60008490506000849050600073e03718b458a2e912141cf3fc8dab648362ee746390508273ffffffffffffffffffffffffffffffffffffffff166323b872dd3330886040518463ffffffff1660e01b8152600401808473ffffffffffffffffffffffffffffffffffffffff1673ffffffffffffffffffffffffffffffffffffffff1681526020018373ffffffffffffffffffffffffffffffffffffffff1673ffffffffffffffffffffffffffffffffffffffff1681526020018281526020019350505050602060405180830381600087803b158015611fc357600080fd5b505af1158015611fd7573d6000803e3d6000fd5b505050506040513d6020811015611fed57600080fd5b8101908080519060200190929190505050508273ffffffffffffffffffffffffffffffffffffffff1663095ea7b387876040518363ffffffff1660e01b8152600401808373ffffffffffffffffffffffffffffffffffffffff1673ffffffffffffffffffffffffffffffffffffffff16815260200182815260200192505050602060405180830381600087803b15801561208657600080fd5b505af115801561209a573d6000803e3d6000fd5b505050506040513d60208110156120b057600080fd5b8101908080519060200190929190505050612133576040517f08c379a000000000000000000000000000000000000000000000000000000000815260040180806020018281038252600e8152602001807f617070726f76616c206572726f7200000000000000000000000000000000000081525060200191505060405180910390fd5b60008273ffffffffffffffffffffffffffffffffffffffff1663a0712d68876040518263ffffffff1660e01b815260040180828152602001915050602060405180830381600087803b15801561218857600080fd5b505af115801561219c573d6000803e3d6000fd5b505050506040513d60208110156121b257600080fd5b810190808051906020019092919050505014612236576040517f08c379a000000000000000000000000000000000000000000000000000000000815260040180806020018281038252600d8152602001807f6d696e74696e67206572726f720000000000000000000000000000000000000081525060200191505060405180910390fd5b6060600167ffffffffffffffff8111801561225057600080fd5b5060405190808252806020026020018201604052801561227f5781602001602082028036833780820191505090505b509050868160008151811061229057fe5b602002602001019073ffffffffffffffffffffffffffffffffffffffff16908173ffffffffffffffffffffffffffffffffffffffff168152505060608273ffffffffffffffffffffffffffffffffffffffff1663c2998238836040518263ffffffff1660e01b81526004018080602001828103825283818151815260200191508051906020019060200280838360005b8381101561233b578082015181840152602081019050612320565b5050505090500192505050600060405180830381600087803b15801561236057600080fd5b505af1158015612374573d6000803e3d6000fd5b505050506040513d6000823e3d601f19601f82011682018060405250602081101561239e57600080fd5b81019080805160405193929190846401000000008211156123be57600080fd5b838201915060208201858111156123d457600080fd5b82518660208202830111640100000000821117156123f157600080fd5b8083526020830192505050908051906020019060200280838360005b8381101561242857808201518184015260208101905061240d565b50505050905001604052505050905060008160008151811061244657fe5b6020026020010151146124c1576040517f08c379a00000000000000000000000000000000000000000000000000000000081526004018080602001828103825260208152602001807f436f6d7074726f6c6c65722e656e7465724d61726b657473206661696c65642e81525060200191505060405180910390fd5b600460019054906101000a900473ffffffffffffffffffffffffffffffffffffffff1673ffffffffffffffffffffffffffffffffffffffff1663c5ebeaec876040518263ffffffff1660e01b815260040180828152602001915050602060405180830381600087803b15801561253657600080fd5b505af115801561254a573d6000803e3d6000fd5b505050506040513d602081101561256057600080fd5b810190808051906020019092919050505050612587866000546126dd90919063ffffffff16565b600081905550600460019054906101000a900473ffffffffffffffffffffffffffffffffffffffff1673ffffffffffffffffffffffffffffffffffffffff16631249c58b6203d090886040518363ffffffff1660e01b81526004016000604051808303818589803b1580156125fb57600080fd5b5088f115801561260f573d6000803e3d6000fd5b5050505050507fcbe96c24dab04348f2d639a57dec03f676169d4870980b3d94dbe53cb6af0513898888604051808473ffffffffffffffffffffffffffffffffffffffff1673ffffffffffffffffffffffffffffffffffffffff168152602001838152602001828152602001935050505060405180910390a1505050505050505050565b60006126d583836040518060400160405280601e81526020017f536166654d6174683a207375627472616374696f6e206f766572666c6f770000815250612765565b905092915050565b60008082840190508381101561275b576040517f08c379a000000000000000000000000000000000000000000000000000000000815260040180806020018281038252601b8152602001807f536166654d6174683a206164646974696f6e206f766572666c6f77000000000081525060200191505060405180910390fd5b8091505092915050565b6000838311158290612812576040517f08c379a00000000000000000000000000000000000000000000000000000000081526004018080602001828103825283818151815260200191508051906020019080838360005b838110156127d75780820151818401526020810190506127bc565b50505050905090810190601f1680156128045780820380516001836020036101000a031916815260200191505b509250505060405180910390fd5b506000838503905080915050939250505056fea26469706673582212204c3e9f10f3cdb1278c5a0393cecb06183378d56f51a21001edf59d97aa1d1aa464736f6c63430006060033",
  "immutableReferences": {},
  "source": "pragma solidity 0.6.6;\n\nimport \"@openzeppelin/contracts/token/ERC20/IERC20.sol\";\nimport \"@openzeppelin/contracts/cryptography/ECDSA.sol\";\nimport \"@openzeppelin/contracts/math/SafeMath.sol\";\n\ninterface CompChannelFactory {\n  function checkSignature(address, address, uint8, uint256, bytes calldata) external returns (bool);\n}\n\ninterface CERC20 {\n  function mint(uint256) external returns (uint256);\n  function redeem(uint256) external returns (uint256);\n  function balanceOf(address) external view returns (uint256);\n  function borrow(uint256) external returns (uint256);\n  function borrowBalanceCurrent(address account) external view returns (uint);\n  function repayBorrow(uint repayAmount) external returns (uint);\n}\n\ninterface CETH {\n  function mint() external payable;\n  function exchangeRateCurrent() external returns (uint256);\n  function supplyRatePerBlock() external returns (uint256);\n  function redeem(uint256) external returns (uint256);\n  function redeemUnderlying(uint256) external returns (uint256);\n  function balanceOf(address) external view returns (uint256);\n  function borrow(uint256) external returns (uint256);\n  function borrowBalanceCurrent(address account) external view returns (uint);\n  function repayBorrow() external payable;\n}\n\ninterface Comptroller {\n  function markets(address) external returns (bool, uint256);\n  function enterMarkets(address[] calldata) external returns (uint256[] memory);\n  function getAccountLiquidity(address) external view returns (uint256, uint256, uint256);\n}\n\ncontract EthChannel {\n  using SafeMath for uint256;\n\n/* ============ State variables ============ */\n  uint256 public underlyingBalance; // underlying asset balance\n  address payable public sender;\n  address payable public recipient;\n  uint256 public endTime;\n  uint8 public channelNonce;\n  CETH public cEther;\n  address public factoryAddress;\n  bool initialized;\n\n/* ============ Events ============ */\n  event EthDeposited(address depositor, uint256 amount);\n  event ChannelForceClosed(uint256 senderAmount, uint256 closedTime);\n  event ChannelClosed(uint256 senderAmount, uint256 recipientAmount, uint256 closedTime);\n  event EthBorrowedAgainstERC20(\n    address tokenGive, \n    uint256 giveAmount, \n    uint256 borrowAmount\n  );\n  event BorrowedEthRepaid(uint256 repayAmount);\n  event LoanedERC20Withdrawn(address tokenAddress, uint256 withdrawAmount);\n  event EndTimeExtended(uint256 newTime);\n\n/* ============ Public Functions ============ */\n  /**\n   * Initializes state variable and can only run once when the channel is created/cloned in place of constructor\n   *\n   * @param _sender               Address that will be depositing funds into the channel\n   * @param _recipient            Address that will recieve some of the funds when channel is closed\n   * @param _endTime              Time in unix when the channel can be forced closed\n   * @param _cEtherAddress        cEther address \n   * @param _factoryAddress       The address of the factory that created the channel\n   */\n  function init(\n    address payable _sender,\n    address payable _recipient,\n    uint256 _endTime,\n    address _cEtherAddress,\n    address  _factoryAddress\n  ) public returns (bool) {\n    // Makes sure the function can only be called once \n    require(initialized == false, 'already initialized');\n    initialized = true;\n\n    factoryAddress = _factoryAddress;\n    sender = _sender;\n    recipient = _recipient;\n    endTime = _endTime;\n    cEther = CETH(_cEtherAddress);\n\n    return true;\n  }\n\n  /**\n   * Used to deposit the Ether into the channel and converts it into cEth\n   *\n   */\n  function depositEth() public payable returns(bool) {\n    cEther.mint{gas: 250000, value: msg.value}(); //0.6.0 syntax\n    // cEther.mint.value(msg.value).gas(250000); //0.5.0 syntax\n    underlyingBalance = underlyingBalance.add(msg.value); // update underlying asset balance\n    emit EthDeposited(msg.sender, msg.value);\n    return true;\n  }\n\n  /**\n   * Emergency function that is to be called if the recipient doesn't call the close function before the specified endTime\n   *\n   */ \n  function forceClose() public {\n    require(now > endTime, 'too early to close');\n    require(msg.sender == sender, 'nonsender address');\n    underlyingBalance = 0;\n    channelNonce += 1;\n    \n    uint256 cEthBalance = cEther.balanceOf(address(this));\n    require(cEther.redeem(cEthBalance) == 0, \"redeem error\");\n    uint256 balance = address(this).balance;\n    sender.transfer(balance);\n    emit ChannelForceClosed(balance, block.timestamp);\n  }\n\n  /**\n   * Called by the recipient when they would like to recieve their payment\n   *\n   * @param _amount             The amount of underlying token that was signed to the recipient\n   * @param _signature          Sig that was created to the recipient for a specific amount\n   */\n  function close(\n    uint256 _amount,\n    bytes memory _signature\n  ) public {\n    require(msg.sender == recipient, 'nonrecipient address');\n    CompChannelFactory compFactory = CompChannelFactory(factoryAddress);\n\n    require(compFactory.checkSignature(\n      sender,\n      address(this),\n      channelNonce,\n      _amount,\n      _signature\n    ), 'invalid signature');\n\n    channelNonce += 1;\n    underlyingBalance = 0;\n    // Redeem Tokens\n    uint256 cEthBalance = cEther.balanceOf(address(this));\n    require(cEther.redeem(cEthBalance) == 0, \"redeem error\");\n\n    uint256 balance = address(this).balance;\n    uint256 toRecipient = balance < _amount ? balance : _amount;\n    recipient.transfer(toRecipient);\n    if (toRecipient < balance) {\n      uint256 toSender = balance.sub(toRecipient);\n      sender.transfer(toSender);\n      emit ChannelClosed(toSender, toRecipient, block.timestamp);\n    }\n    else {\n      emit ChannelClosed(0, toRecipient, block.timestamp);\n    }\n  }\n\n  /**\n   * Allows someone to borrow the underlying Ether from Compound against a different Compound ERC20 asset\n   *\n   * @param _tokenGive            ERC20 address that is provided to borrow against\n   * @param _cTokenGive           cToken address of the token that is provided to borrow against\n   * @param _giveAmount           The amount of the provided to token that they are willing to supply\n   * @param _getAmount            How much of the Ether they would like to receive\n   */\n  function borrowEthAgainstERC20(\n    address _tokenGive, \n    address _cTokenGive, \n    uint256 _giveAmount,\n    uint256 _getAmount\n    ) public {\n    require(address(cEther) != _cTokenGive);\n    IERC20 tokenGive = IERC20(_tokenGive);\n    CERC20 cTokenGive = CERC20(_cTokenGive);\n    Comptroller comptroller = Comptroller(0xe03718b458a2E912141CF3fC8daB648362ee7463); //Ropsten comptroller address\n    // Move allowance to channel\n    tokenGive.transferFrom(msg.sender, address(this), _giveAmount);\n\n    // Supply Colateral for borrow\n    require(tokenGive.approve(_cTokenGive, _giveAmount), 'approval error');\n    require(cTokenGive.mint(_giveAmount) == 0, 'minting error');\n\n    // Enter the market\n    address[] memory cTokens = new address[](1);\n    cTokens[0] = _cTokenGive;\n    uint256[] memory errors = comptroller.enterMarkets(cTokens);\n    if (errors[0] != 0) {\n      revert(\"Comptroller.enterMarkets failed.\");\n    }\n    cEther.borrow(_getAmount);\n    underlyingBalance = underlyingBalance.add(_getAmount); // update underlying asset balance\n    cEther.mint{gas: 250000, value: _getAmount}(); //0.6.0 syntax\n    emit EthBorrowedAgainstERC20(_tokenGive, _giveAmount, _getAmount);\n  }\n\n  /**\n   * Repays the borrowed Eth of the channel\n   *\n   */ \n  function repayEthBorrowed() public payable {\n    uint received = msg.value;\n    uint256 repayAmount = cEther.borrowBalanceCurrent(address(this));\n\n    if(received > repayAmount) {\n      cEther.repayBorrow{value: repayAmount}(); // 0.6.0 syntax\n      msg.sender.transfer(received - repayAmount);\n      emit BorrowedEthRepaid(repayAmount);\n    }\n    else {\n      cEther.repayBorrow{value: received}(); // 0.6.0 syntax\n      emit BorrowedEthRepaid(received);\n    }\n  }\n\n  /**\n   * Withdraws the ERC20 that was used to borrow against once the debt has been repaid\n   *\n   * @param _tokenGave            ERC20 token address of the token that was supplied\n   * @param _cTokenGave           cToken address of the token that was supplied\n   */\n  function withdrawLoanedERC20(address _tokenGave, address _cTokenGave) public {\n    require(_cTokenGave != address(cEther));\n    require(sender == msg.sender);\n    \n    uint256 repayAmount = cEther.borrowBalanceCurrent(address(this));\n    require(repayAmount == 0, 'need to repay debt');\n\n    CERC20 cTokenGave = CERC20(_cTokenGave);\n    IERC20 tokenGave = IERC20(_tokenGave);\n\n    uint256 cTokenBalance = cTokenGave.balanceOf(address(this));\n    require(cTokenGave.redeem(cTokenBalance) == 0, 'redeem error');\n    uint256 tokenBalance = tokenGave.balanceOf(address(this));\n    tokenGave.transfer(sender, tokenBalance);\n    emit LoanedERC20Withdrawn(_tokenGave, tokenBalance);\n  }\n\n  /**\n   * Extends the end time of the channel to a further date if proposed by the sender and the new time is greater than the currenct end time\n   *\n   * @param _newTime         Proposed new end time\n   */\n  function extendEndTime(uint256 _newTime) public {\n    require(msg.sender == sender, 'nonsender address');\n    require(_newTime > endTime, 'newTime needs to be > endTime');\n    \n    endTime = _newTime;\n    emit EndTimeExtended(_newTime);\n  }\n  \n  \n  fallback() external payable { }\n//   fallback() external payable { revert(\"Function not found\"); } \n//   receive() external payable { }\n}",
  "sourcePath": "/Users/justsomeguy/Documents/hack-money/compound-channels/contracts/EthChannel.sol",
  "compiler": {
    "name": "solc",
    "version": "0.6.6+commit.6c089d02.Emscripten.clang"
  },
  "schemaVersion": "3.1.0",
  "updatedAt": "2020-05-21T17:43:47.381Z",
  "devdoc": {
    "methods": {
      "borrowEthAgainstERC20(address,address,uint256,uint256)": {
        "params": {
          "_cTokenGive": "cToken address of the token that is provided to borrow against",
          "_getAmount": "How much of the Ether they would like to receive",
          "_giveAmount": "The amount of the provided to token that they are willing to supply",
          "_tokenGive": "ERC20 address that is provided to borrow against"
        }
      },
      "close(uint256,bytes)": {
        "params": {
          "_amount": "The amount of underlying token that was signed to the recipient",
          "_signature": "Sig that was created to the recipient for a specific amount"
        }
      },
      "extendEndTime(uint256)": {
        "params": {
          "_newTime": "Proposed new end time"
        }
      },
      "init(address,address,uint256,address,address)": {
        "params": {
          "_cEtherAddress": "cEther address ",
          "_endTime": "Time in unix when the channel can be forced closed",
          "_factoryAddress": "The address of the factory that created the channel",
          "_recipient": "Address that will recieve some of the funds when channel is closed",
          "_sender": "Address that will be depositing funds into the channel"
        }
      },
      "withdrawLoanedERC20(address,address)": {
        "params": {
          "_cTokenGave": "cToken address of the token that was supplied",
          "_tokenGave": "ERC20 token address of the token that was supplied"
        }
      }
    }
  },
  "userdoc": {
    "methods": {
      "borrowEthAgainstERC20(address,address,uint256,uint256)": {
        "notice": "Allows someone to borrow the underlying Ether from Compound against a different Compound ERC20 asset"
      },
      "close(uint256,bytes)": {
        "notice": "Called by the recipient when they would like to recieve their payment"
      },
      "depositEth()": {
        "notice": "Used to deposit the Ether into the channel and converts it into cEth   "
      },
      "extendEndTime(uint256)": {
        "notice": "Extends the end time of the channel to a further date if proposed by the sender and the new time is greater than the currenct end time"
      },
      "forceClose()": {
        "notice": "Emergency function that is to be called if the recipient doesn't call the close function before the specified endTime   "
      },
      "init(address,address,uint256,address,address)": {
        "notice": "Initializes state variable and can only run once when the channel is created/cloned in place of constructor"
      },
      "repayEthBorrowed()": {
        "notice": "Repays the borrowed Eth of the channel   "
      },
      "withdrawLoanedERC20(address,address)": {
        "notice": "Withdraws the ERC20 that was used to borrow against once the debt has been repaid"
      }
    }
  }
}